:100000002EC100004DC100004BC100000C94FA3518
:1000100047C100000C946C180C94A91741C1000052
:100020003FC10000BAC100003BC100000C94FB2F8F
:1000300037C1000035C100000C94E60E31C100004C
:100040002FC100000C9462312BC1000029C10000B7
:1000500027C1000025C1000023C100004FC70000D8
:100060001FC100000C946C2A0C94502B19C1000085
:1000700017C100000C94F82213C1000011C1000048
:10008000D0C400000DC100000BC1000009C1000078
:100090000C94A52A0C949B2B03C1000001C1000005
:1000A000FFC00000FDC000000C94872FF9C00000C5
:1000B000F7C00000F5C00000F3C00000F1C0000070
:1000C000EFC00000EDC00000EBC000000C94DE2A81
:1000D0000C94E62BE5C000000C94172B0C94312CEB
:1000E000DFC000003A05420551056005D305E20571
:1000F000F1056306720681065A11561151114D1110
:10010000481143113F113A11351131112C112711AA
:1001100023111E111911151110110B1107110211C4
:10012000FD10F910F410EF10EB10E610E110DD10E7
:10013000D810D310CF10CA10C510C110BC10B71002
:10014000B310AE10A910A510A0109B10971092101C
:100150008D10891084107F10781071106A10631050
:100160005C1055104E1047104010391032102B10F3
:1001700024101D1016100F1008100110FA0FF30FA5
:10018000EC0FE50FDE0FD70FD00FC90FC20FBB0F5B
:10019000B40FAD0FA60F9F0F980F910F8A0F830F0B
:1001A0007C0F750F6E0F670F600F590F520F4B0FBB
:1001B000440F3D0F360F2F0F280F210F1A0F130F6B
:1001C0000C0FCD12D012D312D612D912DC12DF12BC
:1001D000E212E512E8127619AF19DE190D1A461A65
:1001E0007D1AB91AB91AB91AB91AB91AB91AB91AB3
:1001F000B91AB91AB91AB91AB91AB91AB91AB91A67
:10020000B91AB91AB91AB91AB91AB91AB91AB91A56
:10021000B91AB91AB91AB91AB91AB91AB91AB91A46
:10022000B91AB91AB91AB91AB91AB91AB91AB91A36
:10023000B91AB91AB91AB91AB91AB91AB91AB91A26
:10024000B91AB91A5219671C6E1C6E1C6E1C7D1CE3
:10025000831C831C831C941C9A1C9A1CAD1C1124A7
:100260001FBECFEFD1E2DEBFCDBF00E00CBF18E173
:10027000A0E0B2E0E2EEF5E800E00BBF02C00790BC
:100280000D92AA31B107D9F72CE1AAE1B8E101C07A
:100290001D92A534B207E1F70E94B51E0C94EF42FF
:1002A000AFCE0F921F92CF93DF93D92FC82FA88183
:1002B000B9812A810B80209D23E0029ED72FC62F73
:1002C000388191E0442319F0990F4A95E9F7CA95CE
:1002D0008881892B8883C3958D9178E0880F68F099
:1002E000392B90953883000000003923909538838E
:1002F000000000007A9591F70FC0392B9095388354
:100300000000000000000000000000000000392391
:10031000909538837A9511F70A94F1F6DF91CF9191
:100320001F900F900895E8E6F0E08081816080835F
:1003300080E090E008950E945031811105C08BE06B
:100340009CE00C94DA33089580911A1881111EC034
:1003500081E080931A1884B18F7884B985B1806761
:1003600085B98FE39CE90197F1F700C00000EBE647
:10037000F0E0808180678083E8E6F0E08081816042
:100380008083789483B1807780932118089593B106
:10039000982381E009F080E008951F920F920FB634
:1003A0000F9211240BB60F921F932F933F934F93ED
:1003B0005F936F937F938F939F93AF93BF93CF93ED
:1003C000DF93EF93FF93D3B11D2F1077C0912118C6
:1003D000C127C4FF0CC0E0911F18F091201830977E
:1003E00031F0D4FB882780F991E089271995C5FF62
:1003F0000CC0E0911D18F0911E18309731F0D5FB1C
:10040000882780F991E089271995C6FF0CC0E091F3
:100410001B18F0911C18309731F0D6FBDD27D0F96E
:1004200081E08D271995C07759F0E8E6F0E08081EA
:100430008E7F808364E670E083E991E00E9406325B
:1004400010932118FF91EF91DF91CF91BF91AF9160
:100450009F918F917F916F915F914F913F912F91DC
:100460001F910F900BBE0F900FBE0F901F9018950D
:1004700092B19F7C92B922B130E1839FC0011124D7
:10048000822B82B9089592B1937F92B922B134E060
:10049000839FC0011124822B82B90895CF93DF93EB
:1004A000FC01DB01EA014C815D812A813B8188816D
:1004B000998160851F926F9367811F926F93668108
:1004C0001F926F93BA0177277F936F931F925F9369
:1004D00012964C911297642F042E000C770B7F9389
:1004E0004F9345811F924F9344811F924F934381B5
:1004F0001F924F93A90155275F934F931F923F93EC
:1005000011962C911197422F022E000C550B5F93E0
:100510002F9322811F922F9321811F922F9320814D
:100520001F922F939C0133273F932F931F929F93EA
:100530008C91282F082E000C330B3F938F9382E170
:100540008F9383E68F930E940B288DB79EB7869674
:100550000FB6F8949EBF0FBE8DBFDF91CF91089567
:100560001F928F9381E08F9381E68F930E940B28D7
:1005700081E60E94D3270F900F900F900F9008955F
:10058000CF93DF93FC01DB01EA014C815D812A817D
:100590003B818881998160851F926F9367811F924B
:1005A0006F9366811F926F93BA0177277F936F9342
:1005B0001F925F9312964C911297642F042E000C99
:1005C000770B7F934F9345811F924F9344811F92E6
:1005D0004F9343811F924F93A90155275F934F93E8
:1005E0001F923F9311962C911197422F022E000CCF
:1005F000550B5F932F9322811F922F9321811F927E
:100600002F9320811F922F939C0133273F932F9389
:100610001F929F938C91282F082E000C330B3F9331
:100620008F9382E18F9382E68F930E940B288DB780
:100630009EB786960FB6F8949EBF0FBE8DBF82E61A
:100640000E94D327DF91CF9108950F931F93CF93EB
:10065000DF9380918F188111A8C081E080938F185B
:1006600080E091E090934518809344180E9A169874
:1006700081B1806381B981B18F6081B957988091D0
:100680004418909145180E94842C893008F486C043
:100690001092461885C0809144189091451808968C
:1006A0008C0F9D1F0E94842CF80180838091441838
:1006B0009091451809968C0F9D1F0E94842CF8017B
:1006C000818380914418909145180A968C0F9D1F44
:1006D0000E94842CF80182838091441890914518DF
:1006E0000B968C0F9D1F0E94842CF80183838091B0
:1006F0004418909145180C968C0F9D1F0E94842CD5
:10070000F801848380914418909145180D968C0FC0
:100710009D1F0E94842CF80185838091441890913C
:1007200045180E968C0F9D1F0E94842CF80186831D
:1007300080914418909145180F968C0F9D1F0E9430
:10074000842CF80187838091441890914518409635
:100750008C0F9D1F0E94842CF80180872996075FCB
:100760001F4FC834D10509F096CF82B18C7F82B972
:1007700082B1836082B91092900088E080939100EA
:1007800014BC81E080936E0082E0809371008AEF58
:1007900090E0909399008093980007C0809346184A
:1007A00007E418E1C0E0D0E076CFDF91CF911F9150
:1007B0000F91089580918F18811105C08BED9CE0F9
:1007C0000C94DA3308951092461860E08091441832
:1007D000909145180C947C2C0895CF92DF92EF9263
:1007E000FF920F931F93CF93DF93EB01FC01A08146
:1007F000B0E02881A21BB1092181E22FF0E029811C
:100800008F01021B1109FC01428150E08A81481BC3
:1008100051099D010E94C33E6B017C019801D801E2
:100820000E94C33EC60ED71EE81EF91E9A01DA01C9
:100830000E94C33EDC01CB018C0D9D1DAE1DBF1D72
:100840008115F0E89F07A105B10514F08FEF9FE730
:10085000DF91CF911F910F91FF90EF90DF90CF909C
:1008600008953F924F925F926F927F928F929F92E4
:10087000AF92BF92CF92DF92EF92FF920F931F93AE
:10088000CF93DF93B0904618B11006C08FEFFB01F5
:10089000808381838283B3C0EA016B017C01082FCE
:1008A000AF2CBC0187E498E198DF99838883F1E05D
:1008B000FB1510F50F2EF0E58F2EF8E19F2EF02D91
:1008C00011E0312C602F7A2DC40187DF2C01612CBF
:1008D000712C4881598160E070E044165506660627
:1008E00077061CF499838883312E1F5F89E0880E78
:1008F000911CB112E7CF01C0312C28813981809140
:100900000602909107022817390718F4F601308281
:1009100003C08FEFF60180834701F3E08F0E911C37
:10092000B4018AE498E159DF9B838A8381E08B15C7
:10093000E8F403E518E1AA24A394312CB401C8011A
:100940004CDF2C01612C712C4A815B8160E070E0EE
:1009500044165506660677061CF49B838A833A2C58
:10096000A394075F1F4FBA10E9CF01C0312C2A8131
:100970003B8180910802909109022817390718F4E9
:10098000F601318203C08FEFF6018183F6E0EF0EAE
:10099000F11CB7018DE498E120DF9D838C8381E019
:1009A0008B15E8F406E518E1AA24A394912CB7016D
:1009B000C80113DF2C01612C712C4C815D8160E03A
:1009C00070E044165506660677061CF49D838C83FA
:1009D0009A2CA394075F1F4FBA10E9CF01C0912C46
:1009E0002C813D8180910A0290910B0228173907D2
:1009F00018F4F601928203C08FEFF6018283DF9133
:100A0000CF911F910F91FF90EF90DF90CF90BF900B
:100A1000AF909F908F907F906F905F904F903F909E
:100A200008951F920F920FB60F9211240BB60F92DA
:100A30002F933F934F935F936F937F938F939F93E6
:100A4000AF93BF93CF93DF93EF93FF93E1E9F0E090
:100A500080818B7F808315BC8091431890E08A3021
:100A6000910508F025C2FC018827EE58FF4F8F4FF3
:100A70000C94BB3E80E0FCDC80E005DD81E08093EF
:100A8000431816C280914018811102C086B501C07A
:100A90008FEF80932B1883E0F6DC82E0809343187D
:100AA00007C280914018811102C086B501C08FEF46
:100AB00080932C1881E0E7DC83E080934318F8C131
:100AC00080914018811102C086B501C08FEF8093DC
:100AD0002D188091411881115CC0CBE2D8E1809142
:100AE000461890E09C01220F331F220F331F220F64
:100AF000331F820F931F2091441830914518285FAF
:100B00003F4F6881820F931F0E947C2C8091461872
:100B100090E09C01220F331F220F331F220F331F3F
:100B2000820F931F2091441830914518275F3F4F43
:100B30006981820F931F0E947C2C8091461890E05F
:100B40009C01220F331F220F331F220F331F820FEE
:100B5000931F2091441830914518265F3F4F6A81BA
:100B6000820F931F0E947C2C8091461890E0FC011C
:100B7000EE0FFF1FEE0FFF1FEE0FFF1F8E0F9F1FC9
:100B8000FC01E95BF74E88819981AA81808391837A
:100B9000A28381E06DDC80E076DC809143188F5F7A
:100BA0008093431885C180914018811102C086B599
:100BB00001C08FEF80932E1883E065DC85E0809381
:100BC000431876C180914018811102C086B501C0DA
:100BD0008FEF80932F1881E056DC86E080934318D6
:100BE00067C180914018811102C086B501C08FEFA6
:100BF000809330188091411881115BC0CBE2D8E11D
:100C00008091461890E09C01220F331F220F331F62
:100C1000220F331F820F931F2091441830914518E3
:100C2000255F3F4F6B81820F931F0E947C2C809128
:100C3000461890E09C01220F331F220F331F220F12
:100C4000331F820F931F2091441830914518245F61
:100C50003F4F6C81820F931F0E947C2C809144181F
:100C6000909145180D962091461830E0A901440F47
:100C7000551F440F551F440F551F240F351F6D81FD
:100C8000820F931F0E947C2C8091461890E0FC01FB
:100C9000EE0FFF1FEE0FFF1FEE0FFF1F8E0F9F1FA8
:100CA000FC01E95BF74E8B819C81AD81838394834A
:100CB000A58382E0DDDB80E0E6DB809143188F5F77
:100CC00080934318F5C080914018811102C086B509
:100CD00001C08FEF8093311883E0D5DB88E08093EB
:100CE0004318E6C080914018811102C086B501C04A
:100CF0008FEF8093321881E0C6DB89E08093431840
:100D0000D7C080914018811102C086B501C08FEF15
:100D10008093331880914118811173C0CBE2D8E1E0
:100D20008091461890E09C01220F331F220F331F41
:100D3000220F331F820F931F2091441830914518C2
:100D4000225F3F4F6E81820F931F0E947C2C809107
:100D5000461890E09C01220F331F220F331F220FF1
:100D6000331F820F931F2091441830914518215F43
:100D70003F4F6F81820F931F0E947C2C80914618F9
:100D800090E09C01220F331F220F331F220F331FCD
:100D9000820F931F2091441830914518205F3F4FD8
:100DA0006885820F931F0E947C2C60914618862FC5
:100DB00090E0FC01EE0FFF1FEE0FFF1FEE0FFF1F75
:100DC0008E0F9F1FFC01E95BF74E8E819F81A885E6
:100DD00086839783A0876F5F60934618809144183D
:100DE000909145180E947C2CE0913C18F0913D18A0
:100DF000309709F456C080914618BE01815019956C
:100E000050C042E258E168E278E18BE298E129DDE6
:100E1000809128188F3F41F090910C02891731F092
:100E200080930C02C1E003C0C0E001C0C0E080912B
:100E300029188F3F39F090910D02891719F080938E
:100E40000D02C1E080912A188F3F69F090910E0247
:100E5000891749F080930E02E0913A18F0913B18FF
:100E6000309741F411C0E0913A18F0913B18309757
:100E700011F408C0C1E042E258E16CE072E08BE29C
:100E800098E11995CC2369F0E0913818F091391860
:100E9000309739F042E258E16CE072E08BE298E181
:100EA0001995809143188F5F80934318169811C04D
:100EB00010924018109295001092940016BC8FEF7B
:100EC00085BB88BBE1E9F0E080818460808387E0B6
:100ED00085BDFF91EF91DF91CF91BF91AF919F9130
:100EE0008F917F916F915F914F913F912F910F90D3
:100EF0000BBE0F900FBE0F901F9018951F920F9270
:100F00000FB60F9211248F93809140188F5F8093BA
:100F100040188F910F900FBE0F901F901895CF9390
:100F2000C0918F18C11105C085E09DE00E94DA33A1
:100F300021C0209146182830E0F490933D1880930A
:100F40003C1880E095DA80E09EDA10924118109209
:100F50004318169A1092950010929400E1E9F0E07F
:100F600080818460808316BC87E085BD7894C1E071
:100F700001C0C0E08C2FCF910895CF93DF93EC0197
:100F800080918F18811105C08CE29DE00E94DA33B8
:100F900026C0C436D10510F4C4E6D0E0109237184C
:100FA000109236187093351860933418D0933F1808
:100FB000C0933E188091421881110E9480328FEFB9
:100FC00080930C02BE0184E699E00E940632809371
:100FD0004218811104C081E69DE00E94DA33DF915E
:100FE000CF91089580918F18811105C083EA9DE00B
:100FF0000C94DA33089580914218882321F00E94DE
:1010000080321092421808959C0190918F1891118E
:1010100005C087ED9DE00C94DA33089530933B18BA
:1010200020933A18709339186093381880E020DACA
:1010300080E029DA81E08093411810924318169AD3
:101040001092950010929400E1E9F0E080818460B4
:10105000808316BC87E085BD789408950F931F9315
:10106000CF93DF93D82FC0918F18C11105C089EF9E
:101070009DE00E94DA3322C1623609F460C028F490
:10108000603651F0613699F118C1633609F4CCC06D
:10109000643609F46EC011C14130D9F40E9416279C
:1010A000863A59F01F9283E08F93DF930E944B277B
:1010B0000F900F900F90C1E001C17CDB1F9280E682
:1010C0008F93DF930E944B270F900F900F90C1E0FA
:1010D000F5C0642F0E942D271F9281E08F93DF932C
:1010E0000E944B270F900F900F90C1E0E7C0413056
:1010F000C1F40E941627863A59F01F9283E08F931D
:10110000DF930E944B270F900F900F90C1E0D6C045
:1011100061E68D2F0E949A2780EB92E000DFC1E00C
:10112000CDC0642F0E942D271F9281E08F93DF9303
:101130000E944B270F900F900F90C1E0BFC041114C
:101140000AC062E60E949A2760E070E080EC92E0BC
:101150005BDFC1E0B3C0642F0E942D271F9281E0A6
:101160008F93DF930E944B270F900F900F90C1E059
:10117000A5C0413009F04AC00E9416279091461838
:10118000891758F01F9283E08F93DF930E944B27BB
:101190000F900F900F90C1E091C090E0FC01EE0F16
:1011A000FF1FEE0FFF1FEE0FFF1F8E0F9F1FFC0193
:1011B000E95BF74E80851F928F9387811F928F93F3
:1011C00086811F928F9385811F928F9384811F92B6
:1011D0008F9383811F928F9382811F928F9381813E
:1011E0001F928F9380811F928F9389E08F9384E663
:1011F0008F93DF930E944B278DB79EB745960FB60E
:10120000F8949EBF0FBE8DBFC1E058C0642F0E94EE
:101210002D271F9281E08F93DF930E944B270F9021
:101220000F900F90C1E04AC04230C9F50E941627C6
:10123000082F10E0102F00278D2F0E941627082B53
:101240000E945331BC01C8010E94563E892B59F0BF
:101250001F9283E08F93DF930E944B270F900F9094
:101260000F90C1E02BC0BEDE0115110571F483E6BD
:101270000E94D3271F9286E08F93DF930E944B2713
:101280000F900F900F90C1E019C063E68D2F0E9460
:101290009A276EE472E0C80170DEC1E00FC0642FCF
:1012A0000E942D271F9281E08F93DF930E944B278E
:1012B0000F900F900F90C1E001C0C0E08C2FDF9124
:1012C000CF911F910F910895609134187091351846
:1012D000809136189091371897DE80913E18909142
:1012E0003F180895CF93AC018935910598F091E0AE
:1012F0009F5F292F30E0F901EE0FFF1FE20FF31F70
:10130000EA5FF04F608171816417750788F391304F
:1013100049F404C068E570E021E030E04C33510549
:1013200008F47DC0F9013197CF01880F991FE80FAC
:10133000F91FEA5FF04FA081B181C281F901EE0F80
:10134000FF1F2E0F3F1FF901EA5FF04F228130E0AF
:101350002C1B31094A1B5B0B249FC001259F900D5C
:10136000349F900D11246A1B7B0B0E946A3E6C0F08
:1013700057C0EBE9F8E169C081E08093971860837A
:1013800080919A188F5F80939A1880919A18843070
:1013900008F58091991820919A1890E002C09595CF
:1013A00087952A95E2F780FD15C080919A188F5F86
:1013B00080939A1880919A18843060F480919918DB
:1013C00020919A1890E002C0959587952A95E2F7AA
:1013D00080FFEBCF80919A18843038F460919A188E
:1013E00081E00E947D2281E037C0E0919318F09166
:1013F0009418309719F08BE998E119958091971816
:10140000882351F1E0919118F0919218309729F0CA
:101410008BE998E1199580E01FC080E01DC06FEF57
:10142000262F30E080919A18813039F048F08230D0
:1014300051F0833009F49DCFA3CFECE9F8E105C06A
:10144000EDE9F8E102C0EEE9F8E1808190E0821771
:10145000930709F091CF94CFCF91089510929A18E5
:1014600080919A18843008F58091991820919A18E3
:1014700090E002C0959587952A95E2F780FD15C00A
:1014800080919A188F5F80939A1880919A1884306F
:1014900060F48091991820919A1890E002C0959577
:1014A00087952A95E2F780FFEBCF80919A188430D8
:1014B00068F4109297180E94792260919A1881E03E
:1014C0000E947D2282E799E00E94D22280919518A5
:1014D00090919618089580919018811109C081E02B
:1014E0008093901880B3807F80BB81B3807F81BB65
:1014F000089580919818882331F0809198180E945F
:1015000080321092981808950F931F93CF93C82F8D
:101510008B0180919018811105C081E29EE00E94AC
:10152000DA333FC0E6DF1093941800939318C29506
:10153000CF70C093991810929A1880919A1884309D
:1015400008F58091991820919A1890E002C095951D
:1015500087952A95E2F780FD15C080919A188F5FD4
:1015600080939A1880919A18843060F48091991829
:1015700020919A1890E002C0959587952A95E2F7F8
:1015800080FFEBCF80919A18843058F40E94792222
:1015900060919A1881E00E947D2282E799E00E9482
:1015A000D222CF911F910F910895CF93DF93EB013A
:1015B00090919018911105C085E59EE00E94DA3364
:1015C00028C0982F907F29F48CE89EE00E94DA339F
:1015D00020C082958F708093991810929418109261
:1015E00093185093921840939118709396186093A3
:1015F00095187FDFBE018EE29AE00E94063280934A
:10160000981880919818811104C083EC9EE00E9484
:10161000DA33DF91CF910895EF920F93CF938091BA
:101620009F1881112BC081E080939F188091A01892
:101630009091A118009711F00E948F3561E08BE026
:101640000E945D359093A1188093A018C0E0E12C12
:1016500000E020E040E06C2F8091A0189091A1184C
:101660000E949B35CF5FCB3091F747E065E270E099
:101670008091A0189091A1180E949235CF910F915E
:10168000EF900895EF920F9390919F18911105C0DC
:1016900080E39FE00E94DA330DC08B3058F4E22ED5
:1016A000042F262F40E0682F8091A0189091A11858
:1016B0000E949B350F91EF90089580919F188111A2
:1016C00005C088E59FE00C94DA33089547E065E2B1
:1016D00070E08091A0189091A1180E9492358FE13E
:1016E0009EE40197F1F700C000000895EF920F9378
:1016F00090919F18911105C08BE79FE00E94DA330B
:101700000EC08B3058F4E22E042F262F40E0682FB5
:101710008091A0189091A1180E949B35CEDF0F9167
:10172000EF9008950F931F93CF93DF93D82FC0911D
:101730009F18C11105C08FE99FE00E94DA333EC0B7
:101740006034D9F5443059F50E941627C82F8D2FE3
:101750000E941627182F8D2F0E941627082F8D2FD5
:101760000E941627CB3058F01F9283E08F93DF93AF
:101770000E944B270F900F900F90C1E01FC0282FA1
:10178000402F612F8C2FB2DF1F9280E48F93DF9365
:101790000E944B270F900F900F90C1E00FC0642F55
:1017A0000E942D271F9281E08F93DF930E944B2789
:1017B0000F900F900F90C1E001C0C0E08C2FDF911F
:1017C000CF911F910F91089581E00895AB01BC0165
:1017D000DB01CA01689412F8B695A795979587958D
:1017E0001694D1F701978F3F910509F008F445C091
:1017F00020E02F5FE22FF0E0EE0FFF1FEE0FFF1F44
:10180000E755FF4EDB01CA01008004C0B695A795DD
:10181000979587950A94D2F701978F3F910509F024
:1018200040F78093B4008093B3002230A1F028F4F5
:10183000222349F0213059F01DC02430A1F078F066
:101840002530A9F017C082E08093B10013C083E077
:101850008093B1000FC084E08093B1000BC085E09D
:101860008093B10007C086E08093B10003C087E099
:101870008093B1001092B20008958093B4008093D9
:10188000B300E1CFE3EAF8E181858F5F8187908142
:10189000911105C09091AB1889130BC002C0891338
:1018A00008C0E1EBF0E08081887F808382E390E0F4
:1018B00008959091AB18981708F07DC0A3EAB8E19D
:1018C00013968D919C911497019614969C938E93E8
:1018D0001397FC01EE0FFF1F8E0F9F1F880F991F9C
:1018E0001196ED91FC911297E80FF91F808191817B
:1018F000A281B381892B8A2B8B2BC1F4E091A8188C
:10190000F091A918309741F01995882329F0109289
:10191000A7181092A6180AC01092AA18E1EBF0E0DE
:101920008081887F808380E090E00895A3EAB8E119
:1019300013968D919C911497FC01EE0FFF1F8E0F53
:101940009F1F880F991F1196ED91FC911297E80F38
:10195000F91F80819181A281B3810197A105B10511
:1019600031F4E1EBF0E08081887F808308C08581DD
:101970008093AD18608171818281938127DFA3EA12
:10198000B8E113968D919C911497FC01EE0FFF1F07
:101990008E0F9F1F880F991F1196ED91FC91129742
:1019A000E80FF91F848118968C93189719961C924A
:1019B00082E390E0089582E390E008958093AD186B
:1019C0008091070A9091080AA091090AB0910A0A29
:1019D000892B8A2B8B2B19F180E090E020E030914D
:1019E000AD18FC01EE0FFF1FE80FF91FEE0FFF1FF0
:1019F000E95FF54F35832F5F822F90E0FC01EE0FFA
:101A0000FF1FE80FF91FEE0FFF1FE95FF54F408141
:101A1000518162817381452B462B472B01F78091C1
:101A2000F5099091F609A091F709B091F809892B71
:101A30008A2B8B2B19F180E090E020E03091AD18DB
:101A4000FC01EE0FFF1FE80FF91FEE0FFF1FEB5019
:101A5000F64F35832F5F822F90E0FC01EE0FFF1FC2
:101A6000E80FF91FEE0FFF1FEB50F64F4081518139
:101A700062817381452B462B472B01F78091E90941
:101A80009091EA09A091EB09B091EC09892B8A2B7E
:101A90008B2B19F180E090E020E03091AD18FC0133
:101AA000EE0FFF1FE80FF91FEE0FFF1FE751F64F74
:101AB00035832F5F822F90E0FC01EE0FFF1FE80FB0
:101AC000F91FEE0FFF1FE751F64F408151816281F0
:101AD0007381452B462B472B01F78091C3089091CA
:101AE000C408A091C508B091C608892B8A2B8B2BFE
:101AF00019F180E090E020E03091AD18FC01EE0F8C
:101B0000FF1FE80FF91FEE0FFF1FED53F74F35834F
:101B10002F5F822F90E0FC01EE0FFF1FE80FF91FEF
:101B2000EE0FFF1FED53F74F4081518162817381AA
:101B3000452B462B472B01F780915D0890915E085D
:101B4000A0915F08B0916008892B8A2B8B2B19F12B
:101B500080E090E020E03091AD18FC01EE0FFF1F17
:101B6000E80FF91FEE0FFF1FE35AF74F35832F5F82
:101B7000822F90E0FC01EE0FFF1FE80FF91FEE0F20
:101B8000FF1FE35AF74F4081518162817381452BDA
:101B9000462B472B01F78091B5079091B607A0918E
:101BA000B707B091B807892B8A2B8B2B19F180E0EE
:101BB00090E020E03091AD18FC01EE0FFF1FE80F20
:101BC000F91FEE0FFF1FEB54F84F35832F5F822F65
:101BD00090E0FC01EE0FFF1FE80FF91FEE0FFF1F53
:101BE000EB54F84F4081518162817381452B462B24
:101BF000472B01F78091B3069091B406A091B506EA
:101C0000B091B606892B8A2B8B2B19F180E090E0DE
:101C100020E03091AD18FC01EE0FFF1FE80FF91F17
:101C2000EE0FFF1FED54F94F35832F5F822F90E0A9
:101C3000FC01EE0FFF1FE80FF91FEE0FFF1FED5421
:101C4000F94F4081518162817381452B462B472B8F
:101C500001F780910B0690910C06A0910D06B091B2
:101C60000E06892B8A2B8B2B19F180E090E020E067
:101C70003091AD18FC01EE0FFF1FE80FF91FEE0FBA
:101C8000FF1FE55FF94F35832F5F822F90E0FC0146
:101C9000EE0FFF1FE80FF91FEE0FFF1FE55FF94F73
:101CA0004081518162817381452B462B472B01F77F
:101CB0008091A9049091AA04A091AB04B091AC04C6
:101CC000892B8A2B8B2B19F180E090E020E030915A
:101CD000AD18FC01EE0FFF1FE80FF91FEE0FFF1FFD
:101CE000E755FB4F35832F5F822F90E0FC01EE0F0D
:101CF000FF1FE80FF91FEE0FFF1FE755FB4F408155
:101D0000518162817381452B462B472B01F78091CE
:101D1000E3039091E403A091E503B091E603892BDE
:101D20008A2B8B2B19F180E090E020E03091AD18E8
:101D3000FC01EE0FFF1FE80FF91FEE0FFF1FED5123
:101D4000FC4F35832F5F822F90E0FC01EE0FFF1FC9
:101D5000E80FF91FEE0FFF1FED51FC4F408151813D
:101D600062817381452B462B472B01F780910F022F
:101D700090911002A0911102B0911202892B8A2B2E
:101D80008B2B19F180E090E020E03091AD18FC0140
:101D9000EE0FFF1FE80FF91FEE0FFF1FE15FFD4F72
:101DA00035832F5F822F90E0FC01EE0FFF1FE80FBD
:101DB000F91FEE0FFF1FE15FFD4F408151816281EE
:101DC0007381452B462B472B01F708951F920F92E5
:101DD0000FB60F9211240BB60F928F939F93AF9370
:101DE000BF93EF93FF938091AD18853609F468C2D5
:101DF000E2E0F1E0908180E4892780838091AD1852
:101E000090E08536910508F05BC2FC018827E45814
:101E1000FF4F8F4F0C94BB3E8FE891E00197F1F795
:101E200000C0000047C28BE891E00197F1F700C0C5
:101E3000000040C287E891E00197F1F700C0000080
:101E400039C283E891E00197F1F700C0000032C287
:101E50008FE791E00197F1F700C000002BC28BE7FC
:101E600091E00197F1F700C0000024C287E791E0FC
:101E70000197F1F700C000001DC283E791E00197D0
:101E8000F1F700C0000016C28FE691E00197F1F76C
:101E900000C000000FC28BE691E00197F1F700C08F
:101EA000000008C287E691E00197F1F700C000004A
:101EB00001C283E691E00197F1F700C00000FAC18A
:101EC0008FE591E00197F1F700C00000F3C18BE5C9
:101ED00091E00197F1F700C00000ECC187E591E0C7
:101EE0000197F1F700C00000E5C183E591E001979B
:101EF000F1F700C00000DEC18FE491E00197F1F737
:101F000000C00000D7C18BE491E00197F1F700C059
:101F10000000D0C187E491E00197F1F700C0000014
:101F2000C9C183E491E00197F1F700C00000C2C18C
:101F30008FE391E00197F1F700C00000BBC18BE394
:101F400091E00197F1F700C00000B4C187E391E090
:101F50000197F1F700C00000ADC183E391E0019764
:101F6000F1F700C00000A6C18FE291E00197F1F700
:101F700000C000009FC18BE291E00197F1F700C023
:101F8000000098C187E291E00197F1F700C00000DE
:101F900091C183E291E00197F1F700C000008AC18E
:101FA0008FE191E00197F1F700C0000083C18BE160
:101FB00091E00197F1F700C000007CC187E191E05A
:101FC0000197F1F700C0000075C183E191E001972E
:101FD000F1F700C000006EC18FE091E00197F1F7CA
:101FE00000C0000067C18BE091E00197F1F700C0ED
:101FF000000060C187E091E00197F1F700C00000A8
:1020000059C183E091E00197F1F700C0000052C18F
:102010008FEF90E00197F1F700C000004BC18BEF0C
:1020200090E00197F1F700C0000044C187EF90E015
:102030000197F1F700C000003DC183EF90E00197E8
:10204000F1F700C0000036C18FEE90E00197F1F784
:1020500000C000002FC18BEE90E00197F1F700C0A7
:10206000000028C187EE90E00197F1F700C0000062
:1020700021C183EE90E00197F1F700C000001AC182
:102080008FED90E00197F1F700C0000013C18BEDD8
:1020900090E00197F1F700C000000CC187ED90E0DF
:1020A0000197F1F700C0000005C183ED90E00197B2
:1020B000F1F700C00000FEC08FEC90E00197F1F74F
:1020C00000C00000F7C08BEC90E00197F1F700C072
:1020D0000000F0C087EC90E00197F1F700C000002D
:1020E000E9C083EC90E00197F1F700C00000E2C086
:1020F0008FEB90E00197F1F700C00000DBC09AEF92
:102100009A95F1F700C0D6C085EF8A95F1F70000E7
:10211000D1C090EF9A95F1F7CDC08AEE8A95F1F78C
:1021200000C0C8C095EE9A95F1F70000C3C080EEDC
:102130008A95F1F7BFC09AED9A95F1F700C0BAC041
:1021400085ED8A95F1F70000B5C090ED9A95F1F70D
:10215000B1C08AEC8A95F1F700C0ACC095EC9A95B5
:10216000F1F70000A7C080EC8A95F1F7A3C09AEBC5
:102170009A95F1F700C09EC085EB8A95F1F70000B3
:1021800099C090EB9A95F1F795C08AEA8A95F1F794
:1021900000C090C095EA9A95F1F700008BC080EAE4
:1021A0008A95F1F787C09AE99A95F1F700C082C045
:1021B00085E98A95F1F700007DC090E99A95F1F7DD
:1021C00079C08AE88A95F1F700C074C095E89A95BD
:1021D000F1F700006FC080E88A95F1F76BC09AE7CD
:1021E0009A95F1F700C066C085E78A95F1F700007F
:1021F00061C090E79A95F1F75DC08AE68A95F1F79C
:1022000000C058C095E69A95F1F7000053C080E6EB
:102210008A95F1F74FC09AE59A95F1F700C04AC048
:1022200085E58A95F1F7000045C090E59A95F1F7AC
:1022300041C08AE48A95F1F700C03CC095E49A95C4
:10224000F1F7000037C080E48A95F1F733C09AE3D4
:102250009A95F1F700C02EC085E38A95F1F700004A
:1022600029C090E39A95F1F725C08AE28A95F1F7A3
:1022700000C020C095E29A95F1F700001BC080E2F3
:102280008A95F1F717C09AE19A95F1F700C012C04C
:1022900085E18A95F1F700000DC090E19A95F1F77C
:1022A00009C08AE08A95F1F700C004C095E09A95CC
:1022B000F1F70000E2E0F1E0908180E4892780837B
:1022C000FF91EF91BF91AF919F918F910F900BBEB6
:1022D0000F900FBE0F901F9018958091A21881113A
:1022E00011C081E08093A218E1E0F1E08081806478
:1022F000808382E08093B0001092B10084E08093EC
:10230000700078940895CF92DF92EF92FF926B0164
:102310007C018091A218811105C089EC9FE00E9488
:10232000DA3308C08091AA1881110E940433C701D2
:10233000B6014CDAFF90EF90DF90CF900895809136
:10234000A218811105C08BEE9FE00C94DA3308953A
:10235000E1EBF0E08081887F80838091AA18811171
:102360000C94253308958091A218811105C08EE048
:1023700090E10C94DA3308958091AA18882321F013
:102380000E9480321092AA18E1EBF0E08081887FF1
:1023900080830895CF92DF92FF920F931F93CF9384
:1023A000DF93EC01F62E6A018091A218811105C01D
:1023B00080E390E10E94DA332DC0D5DF88819981D6
:1023C000AA81BB81892B8A2B8B2B21F103EA18E18F
:1023D000F801D283C18314821382D682C582F0822F
:1023E0008D818093AD18688179818A819B81EED936
:1023F0008C81F8018087118662E370E082E49CE0C2
:102400000E940632F8018783811104C082E590E1C1
:102410000E94DA33DF91CF911F910F91FF90DF90EF
:10242000CF9008950F931F93CF93DF93D82FC09130
:10243000A218C11105C081E890E10E94DA330CC1F5
:10244000603509F43EC018F4693441F004C16135C7
:1024500009F477C0623509F4E2C0FDC0442319F0E5
:10246000413099F020C08091AD181F928F9381E088
:102470008F9389E48F93DF930E944B270F900F90E7
:102480000F900F900F90C1E0E7C00E94162796DAD8
:102490001F9289E48F93DF930E944B270F900F9038
:1024A0000F90C1E0D9C0642F0E942D271F9281E0B8
:1024B0008F93DF930E944B270F900F900F90C1E0F6
:1024C000CBC0423081F50E941627282F30E0122F12
:1024D00000278D2F0E9416279801282B21153105E2
:1024E000B1F040E050E060E074E284EF90E00E94E0
:1024F0009F3ECA01B90107DF1F9283E08F93DF93EC
:102500000E944B270F900F900F90C1E0A5C017DFDE
:102510001F9280E58F93DF930E944B270F900F90BF
:102520000F90C1E099C0642F0E942D271F9281E077
:102530008F93DF930E944B270F900F900F90C1E075
:102540008BC0433009F05DC00E941627C82F8D2F25
:102550000E941627182F8D2F0E941627282FCB3068
:1025600020F41B3010F4823058F01F9283E08F93D8
:10257000DF930E944B270F900F900F90C1E06CC02B
:102580008C2F90E0FC013197EA30F10520F5882787
:10259000EF51FF4F8F4F0C94BB3E85EF99E01DC06C
:1025A00087E09AE01AC083EC98E017C08DE598E0C8
:1025B00014C085EB97E011C083EB96E00EC08BE072
:1025C00096E00BC089EA94E008C083EE93E005C072
:1025D0008FE092E002C089EE99E0213019F040E0EE
:1025E00050E002C044EE5BE0612FD4DE1F9281E533
:1025F0008F93DF930E944B270F900F900F90C1E0B5
:102600002BC0642F0E942D271F9281E08F93DF93B0
:102610000E944B270F900F900F90C1E01DC04111F9
:102620000CC0A1DE1F9282E58F93DF930E944B279F
:102630000F900F900F90C1E00FC0642F0E942D27C4
:102640001F9281E08F93DF930E944B270F900F9092
:102650000F90C1E001C0C0E08C2FDF91CF911F919E
:102660000F9108958091E718811126C0E8E2F1E00A
:10267000808191819695879591838083AAE2B1E0CC
:102680008D919C9111979695879511969C938E9319
:1026900080819181C29720F4109229011092280123
:1026A00080912A0190912B01C29708F09EC0109250
:1026B0002B0110922A0199C08091E61888232CF0F2
:1026C0002091E2183091E31804C02091E418309171
:1026D000E5181092E3181092E2181092E518109283
:1026E000E4188091E718880F990B821B930B9C01CB
:1026F00012F42D5F3F4FF901F595E795F595E795B4
:1027000080919F0A882379F18091E0189091E118D7
:102710006091DE187091DF182091DE183091DF187B
:10272000232B19F00E94563E02C06AE070E08091AF
:10273000280190912901E69F9001E79F300DF69FB7
:10274000300D1124820F931F992314F480E090E040
:10275000893E23E0920714F088EE93E090932901DC
:102760008093280106C088EE93E09093290180931E
:10277000280180919F0A882391F18091DE18909121
:10278000DF188091E0189091E1188091E018909105
:10279000E11820912A0130912B014091DE185091CF
:1027A000DF186091E0187091E118E49FC001E59F87
:1027B000900DF49F900D11240E94563E620F731FDE
:1027C000772314F460E070E0693E83E0780714F04A
:1027D00068EE73E070932B0160932A0106C088EEC7
:1027E00093E090932B0180932A0184E690E0089572
:1027F0001F9283E18F930E940B2883E10E94D327CD
:102800000F900F9008951F9284E18F930E940B28E0
:1028100084E10E94D3270F900F9008959CE4980FB5
:10282000923388F4682F90E090939E0A80939D0ADB
:1028300080E090E00E947C2C60E081E090E00E94CB
:102840007C2C81E0089580E00895CF93DF93E90127
:1028500016161706180619067CF4EBE0F1E0208145
:102860002260208320812F7D20832081216020838E
:1028700020812B7F208315C0EBE0F1E020812062D6
:10288000208320812D7F208320812460208320814C
:102890002E7F208390958095709561957F4F8F4F07
:1028A0009F4F4093E718A0919D0AB0919E0A9B010B
:1028B000AC010E94DE3E27E330E040E050E00E94A1
:1028C0009F3E2093DA183093DB184093DC18509326
:1028D000DD181092D6181092D7181092D8181092AE
:1028E000D918D093C918C093C818DF91CF91089513
:1028F000CF938091E81881115BC081E08093E81844
:1029000080E090E00E94842CC82F81E090E00E943B
:10291000842C8C2B90E090939E0A80939D0A80914A
:102920009D0A90919E0A843B910538F080919D0A02
:1029300090919E0A863E910530F089ED90E090934B
:102940009E0A80939D0AEBE0F1E08081807C808389
:10295000EAE0F1E080818F63808310922901109278
:10296000280110922B0110922A0182EA8093200103
:102970008CE18093210188EE93E09093270180936E
:102980002601EAE6F0E080818160808380818D7F8E
:102990008083EC9A8081846080838081877F8083BC
:1029A000ED9A64E670E082E393E10E940632789447
:1029B000CF91089585360CF084E68C390CF48CE9BF
:1029C0001816E4F427E68202212D11242595259579
:1029D00087FD2395022E000C330BA901465F5F4F44
:1029E0005093DF184093DE184AE050E0BA01621BB2
:1029F000730B7093E1186093E0181BC027E6820206
:102A0000212D11242595259587FD2395022E000C57
:102A1000330BA901465F5F4F5093DF184093DE18D8
:102A20004AE050E0BA01621B730B7093E1186093A7
:102A3000E0188093E61808951092DA181092DB18C7
:102A40001092DC181092DD1885360CF084E68C3973
:102A50000CF48CE99091E7189817C1F118167CF4E2
:102A6000EBE0F1E090819260908390819F7D908374
:102A700090819460908390819E7F908324C088236E
:102A800084F4EBE0F1E090819062908390819D7FEF
:102A9000908390819160908390819B7F90838195BA
:102AA00012C0EBE0F1E0208191E092279083208139
:102AB00092E092279083208194E092279083208156
:102AC00090E2922790838093E718CCCD08952F92BF
:102AD0003F924F925F926F927F928F929F92AF92AE
:102AE000BF92CF92DF92EF92FF920F931F93CF93FB
:102AF000DF93CDB7DEB7C556D1090FB6F894DEBF68
:102B00000FBECDBF10929F0AEAE6F0E0808181609F
:102B1000808380818D7F8083EC9A80818460808334
:102B20008081877F8083ED9A78941A821982FE01D2
:102B3000339683E6DF011D928A95E9F71092D51846
:102B40001092D4181092D3181092D2181092D11853
:102B50001092D0181092CF181092CE181092CD1853
:102B60001092CC181092CB181092CA1881EC90E1F8
:102B70000E94C43384E660DFBFEF23ED80E3B150F1
:102B800020408040E1F700C000008BEC90E10E9403
:102B9000C43380E051DF9FEFA9E6B8E19150A04037
:102BA000B040E1F700C000003324339400E010E0AF
:102BB0000F2EF2ED8F2EF0E19F2EF02DCE0101961B
:102BC0005C0101C0339422242A94230C92E029163C
:102BD000D9F0921530F0222069F0A1E02A1679F0A0
:102BE00043C0B4E02B16D1F02B1698F025E0221646
:102BF000D1F03AC00091D4181091D51819C10091A4
:102C0000D2181091D31814C10091D0181091D11876
:102C10000FC10091CE181091CF180AC10091CC18A5
:102C20001091CD1805C10091CA181091CB181F93AF
:102C30000F931F9285E08F9382ED90E19F938F9386
:102C4000CE0101966C019F938F930E941440C601A0
:102C50000E94C4331093BB180093BA180FB6F894AF
:102C6000DEBF0FBECDBF26C01F930F931F922F92C2
:102C70009F928F92BF92AF920E941440C5010E9412
:102C8000C433E22DE695F0E020FA662460F8712C5A
:102C9000EE0FFF1FE60DF71DEE0FFF1FE055F74E7D
:102CA000118300830FB6F894DEBF0FBECDBF96E050
:102CB000391288CF8FED90E10E94C4331092D5185D
:102CC0001092D4181092D3181092D2181092D118D2
:102CD0001092D0181092CF181092CE181092CD18D2
:102CE0001092CC181092CB181092CA188CE9A4DE5E
:102CF000AFEFB3ED20E3A150B0402040E1F700C0BA
:102D00000000992493940F2EF2EDAF2EF0E1BF2E28
:102D1000F02DCE0101966C0101C0939488248A9411
:102D2000890C92E08916D9F0981530F0882069F066
:102D3000A1E08A1679F043C0B4E08B16D1F08B166F
:102D400098F025E08216D1F03AC00091D418109185
:102D5000D51892C00091D2181091D3188DC000914F
:102D6000D0181091D11888C00091CE181091CF18AA
:102D700083C00091CC181091CD187EC00091CA1864
:102D80001091CB181F930F931F9285E08F9382EDC4
:102D900090E19F938F93CE0101967C019F938F9337
:102DA0000E941440C7010E94C4331093C7180093B7
:102DB000C6180FB6F894DEBF0FBECDBF26C01F9356
:102DC0000F931F928F92BF92AF92DF92CF920E9489
:102DD0001440C6010E94C433E82DE695F0E080FA65
:102DE000442440F8512CEE0FFF1FE40DF51DEE0FAB
:102DF000FF1FE454F74E118300830FB6F894DEBF33
:102E00000FBECDBF96E0991288CF8BEC90E10E9467
:102E1000C43380E011DEAFEFB0E722E0A150B04054
:102E20002040E1F700C0000081E080939F0A48C085
:102E30001F930F931F922F929F928F92BF92AF92E8
:102E40000E941440C5010E94C433E22DE695F0E0D3
:102E500020FACC24C0F8D12CEE0FFF1FEC0DFD1D85
:102E6000EE0FFF1FE055F74E118300830FB6F89465
:102E7000DEBF0FBECDBFA6CE1F930F931F928F92C2
:102E8000BF92AF92DF92CF920E941440C6010E947F
:102E9000C433E82DE695F0E080FAEE24E0F8F12C5A
:102EA000EE0FFF1FEE0DFF1DEE0FFF1FE454F74E58
:102EB000118300830FB6F894DEBF0FBECDBF2DCFB8
:102EC000CB59DF4F0FB6F894DEBF0FBECDBFDF91F9
:102ED000CF911F910F91FF90EF90DF90CF90BF9017
:102EE000AF909F908F907F906F905F904F903F90AA
:102EF0002F9008950F931F93CF93DF938C01862F0C
:102F0000EA019ADD40919D0A50919E0A9801A4ED34
:102F1000B1E00E94C93E9A0140E050E00E947D3E2F
:102F20002093DA183093DB184093DC185093DD18A7
:102F30001092D6181092D7181092D8181092D9184B
:102F4000D093C918C093C818DF91CF911F910F91EA
:102F500008951F920F920FB60F9211240BB60F9285
:102F60002F933F934F935F936F937F938F939F9391
:102F7000AF93BF93EF93FF938091CC189091CD18AE
:102F800001969093CD188093CC1880919F0A882346
:102F900009F478C02091E0183091E1188091DE1892
:102FA0009091DF1828173907E8F18091DA1890918D
:102FB000DB18A091DC18B091DD18892B8A2B8B2BA4
:102FC00089F18091D6189091D718A091D818B09116
:102FD000D9180196A11DB11D8093D6189093D718CA
:102FE000A093D818B093D9184091D6185091D718FB
:102FF0006091D8187091D9188091DA189091DB18E7
:10300000A091DC18B091DD1884179507A607B707C3
:1030100048F4E091C818F091C918309709F0199553
:1030200080E00ADD8091E4189091E5180196909374
:10303000E5188093E4188091E7188823D1F18091F6
:10304000AF188F5F8093AF182091E0183091E1188E
:1030500090E082179307B0F01092AF18809128018A
:10306000909129010B9738F0E8E2F1E0808191819D
:103070000A9791838083EAE2F1E0808191810A9648
:10308000918380838091060185FF0AC08091D418C6
:103090009091D51801969093D5188093D41809C0B3
:1030A0008091D0189091D11801969093D118809367
:1030B000D018FF91EF91BF91AF919F918F917F9128
:1030C0006F915F914F913F912F910F900BBE0F9099
:1030D0000FBE0F901F9018951F920F920FB60F9270
:1030E00011240BB60F922F933F934F935F936F93DF
:1030F0007F938F939F93AF93BF93EF93FF938091B1
:10310000CA189091CB1801969093CB188093CA1847
:1031100080919F0A882309F478C02091E0183091AB
:10312000E1188091DE189091DF1828173907E8F52B
:103130008091DA189091DB18A091DC18B091DD181D
:10314000892B8A2B8B2B89F18091D6189091D718D7
:10315000A091D818B091D9180196A11DB11D8093E6
:10316000D6189093D718A093D818B093D918409137
:10317000D6185091D7186091D8187091D9188091AD
:10318000DA189091DB18A091DC18B091DD18841743
:103190009507A607B70748F4E091C818F091C91839
:1031A000309709F0199580E047DC8091E218909102
:1031B000E31801969093E3188093E2188091E71842
:1031C0008823D1F18091AE188F5F8093AE18209143
:1031D000DE183091DF1890E082179307B0F010925C
:1031E000AE1880912A0190912B010B9738F0EAE2FA
:1031F000F1E0808191810A9791838083E8E2F1E098
:10320000808191810A96918380838091060184FF59
:103210000AC08091D2189091D31801969093D31838
:103220008093D21809C08091CE189091CF18019642
:103230009093CF188093CE18FF91EF91BF91AF91EB
:103240009F918F917F916F915F914F913F912F91BE
:103250000F900BBE0F900FBE0F901F901895CF933D
:10326000C82F862FA7DB8C2FE7DBCF9108951F9304
:10327000CF93DF93D82FC091E818C11105C08AEE13
:1032800090E10E94DA3376C1862F90E0FC017097BE
:10329000E833F10508F06DC18827E551FF4F8F4FE6
:1032A0000C94BB3E41110CC01F9287E48F93DF93B7
:1032B0000E944B270CDC0F900F900F90C1E05AC179
:1032C000413029F48D2F0E941627C1E053C1642F8D
:1032D0008D2F0E942D271F9281E08F93DF930E94F4
:1032E0004B270F900F900F90C1E044C1423041F541
:1032F0008D2F0E941627C82F8D2F0E94162794E627
:103300009C0F993C90F48C3984F0853674F4682FC6
:103310008C2FA5DF1F9280E18F93DF930E944B27B4
:103320000F900F900F90C1E025C11F9283E08F9303
:10333000DF930E944B270F900F900F90C1E01AC1AE
:10334000642F8D2F0E942D271F9281E08F93DF9392
:103350000E944B270F900F900F90C1E00BC141309E
:10336000F1F48D2F0E94162794E6980F993C60F493
:1033700063DB1F9281E18F93DF930E944B270F90B5
:103380000F900F90C1E0F6C01F9283E08F93DF9300
:103390000E944B270F900F900F90C1E0EBC0642F5D
:1033A0008D2F0E942D271F9281E08F93DF930E9423
:1033B0004B270F900F900F90C1E0DCC04130F1F42B
:1033C0008D2F0E94162794E6980F993C60F4F2DA4C
:1033D0001F9282E18F93DF930E944B270F900F90F3
:1033E0000F90C1E0C7C01F9283E08F93DF930E94CC
:1033F0004B270F900F900F90C1E0BCC0642F8D2F12
:103400000E942D271F9281E08F93DF930E944B270C
:103410000F900F900F90C1E0ADC0433041F58D2F5C
:103420000E941627C82F8D2F0E9416278D2F0E94CD
:10343000162794E69C0F993C78F4482F6C2FCC0FFC
:10344000770B880B990B28EF33E1FFD963E18D2FC0
:103450000E949A27C1E08EC01F9283E08F93DF9372
:103460000E944B270F900F900F90C1E083C0642FF4
:103470008D2F0E942D271F9281E08F93DF930E9452
:103480004B270F900F900F90C1E074C0433031F57F
:103490008D2F0E941627C82F8D2F0E941627182FB8
:1034A0008D2F0E94162794E69C0F993C60F490E0C3
:1034B00043E054E16C2F912B1DDD64E18D2F0E94C0
:1034C0009A27C1E057C01F9283E08F93DF930E9439
:1034D0004B270F900F900F90C1E04CC0642F8D2FA1
:1034E0000E942D271F9281E08F93DF930E944B272C
:1034F0000F900F900F90C1E03DC0423059F58D2FD5
:103500000E941627C82F8D2F0E9416272C2F30E0DF
:10351000322F2227A901482BCA019C01245B3109C3
:103520002333310560F47AD91F9285E18F93DF93BD
:103530000E944B270F900F900F90C1E01BC01F926D
:1035400083E08F93DF930E944B270F900F900F9093
:10355000C1E010C0642F8D2F0E942D271F9281E0A3
:103560008F93DF930E944B270F900F900F90C1E035
:1035700001C0C0E08C2FDF91CF911F910895089575
:10358000CF93DF9300D01F92CDB7DEB71092EA1829
:103590001A8219821B821C82E091EF18F091F018B8
:1035A000CE01019619958FEB9AE19093F0188093D4
:1035B000EF1880E090E00F900F900F900F90DF9148
:1035C000CF9108956F927F929F92BF92CF92DF9298
:1035D000EF92FF920F931F93CF93DF93D82FC92FB2
:1035E0008091EA18882309F44DC08091EA180E945E
:1035F00080321092EA1846C08091F31890E0042EB1
:1036000002C0959587950A94E2F780FF20C020813B
:103610003181ADECBCEC0E94C93E9C0136952795EA
:103620003695279536952795922F413041F008F42D
:1036300045C0423009F444C0433019F008C0D601F7
:1036400040C0D3013EC0963010F02C93B92C4F5F90
:103650005F4F32964430510579F6E091EF18F091C2
:10366000F018309719F084EF98E11995BB2069F1B3
:10367000E091ED18F091EE18309739F184EF98E170
:10368000199523C0ED2FFC2F40E050E0B12C992478
:1036900093940F2EF5EFCF2EF8E1DF2EF02D0F2EA5
:1036A000F6EFEF2EF8E1FF2EF02D07EF18E10F2EC9
:1036B000F4EF6F2EF8E17F2EF02D9ECFD70101C0E1
:1036C000D8018C919813BFCFC2CFDF91CF911F91BA
:1036D0000F91FF90EF90DF90CF90BF909F907F90E1
:1036E0006F9008958091F31822EE3AE145E062E090
:1036F00071E00E94DC2F8091EB189091EC180895F6
:103700008091F118811112C081E08093F118E1E0FD
:10371000F1E0808180628083E7E0F1E08081807F5A
:103720008083E8E0F1E08081807F8083089580914C
:10373000F118811105C082E191E10C94DA3308950A
:103740008091F218882331F08091F2180E94803223
:103750001092F21808950F931F93CF93C82F8B01E7
:103760008091F118811105C088E491E10E94DA335B
:1037700022C0DDDF1093F0180093EF181092EE18BE
:103780001092ED18C093F31881E08093E9188091AE
:10379000EA18811108C06BE470E080EC9AE10E94A5
:1037A00006328093EA1822EE3AE145E062E071E0E9
:1037B0008C2F0E94DC2FCF911F910F910895CF93F2
:1037C000DF93EB019091F118911105C08CE791E125
:1037D0000E94DA3326C0982F9F7029F483EB91E181
:1037E0000E94DA331EC08093F3181092F0181092E2
:1037F000EF185093EE184093ED187093EC18609307
:10380000EB1895DFBE0182E79BE10E9406328093B0
:10381000F2188091F218811104C08AEE91E10E94A1
:10382000DA33DF91CF9108959091FC19943019F01B
:10383000953061F013C095E09093FC1980958093CA
:10384000F91965E081E059D681E00895809580936B
:10385000FA1981E08093FB1980E0089580E00895D3
:10386000FC019091F819923059F018F4913031F030
:103870000DC0943039F0983039F008C0928107C0FB
:10388000918105C0938103C0908101C090E0809137
:10389000651B1F929F9391E09F9393E39F938F9358
:1038A0000E944B270F900F900F900F900F9008954C
:1038B0003091F818832F90E08C30910508F056C0B5
:1038C000FC018827ED5DFE4F8F4F0C94BB3E2FEF20
:1038D0004FEF6FEF80E00E94760B48C02FEF4FEF65
:1038E0006FEF832F0E94760B8091F81820E040E064
:1038F00060E081500E94760B39C020E040E060E03B
:1039000083E00E94760B8091F8182FEF4FEF6FEF56
:103910008D5F0E94760B8091F81820E040E060E017
:103920008E5F0E94760B22C020E040E060E08AE0DB
:103930000E94760B9091F8182FEF4FEF6FEF8EE00B
:10394000891B0E94760B9091F81820E040E060E01F
:103950008FE0891B0E94760B09C020E040E060E008
:1039600084E00E94760B80E090E008958091F81842
:103970008F5F8093F81886E990E008950F931F9366
:10398000CF93DF9300D0CDB7DEB78091F9188111C6
:103990000BC01092F91885E0EDE2F2E1A9EFB8E171
:1039A00001900D928A95E1F719821A821B8211E02B
:1039B00013C0113021F482E392E10E94C4330981E3
:1039C0000A83BE016E5F7F4F89EF98E10E94094034
:1039D000802F0E94BC331F5FCE0101960E94DE340F
:1039E0008111E7CF1130C9F0A9EFB8E10D900020A7
:1039F000E9F7119785E0EDE2F2E101900D928A95E9
:103A0000E1F788EE90E10E94C43389EF98E10E94CB
:103A1000C43388EE90E10E94C4338AEF90E00F90A7
:103A20000F900F90DF91CF911F910F910895E2E0D9
:103A3000F1E08081877F8083E1E0F1E08081886030
:103A4000808357C5089584E08093FC191092FB1978
:103A5000E2E0F1E080818860808364E081E04DD520
:103A600084E19CE179D58091FB198823E1F3E2E0C0
:103A7000F1E08081877F80830895CF936333E9F4F9
:103A8000642FC82F413069F00E942D271F9281E0DA
:103A90008F93CF930E944B270F900F900F9081E050
:103AA0000DC08093651B0E941627C82F60E37CE140
:103AB00052DEC093F81981E001C080E0CF910895F3
:103AC000CF93683459F5642FC82F41111AC0BBDF5A
:103AD000E9EFF9E1918180811F929F931F928F936B
:103AE00082E08F9388E48F93CF930E944B278DB70A
:103AF0009EB707960FB6F8949EBF0FBE8DBF81E0AC
:103B00000EC00E942D271F9281E08F93CF930E94B9
:103B10004B270F900F900F9081E001C080E0CF9174
:103B200008951F93CF93DF936233A1F5642FC82FBD
:103B3000411123C080E10E94C701D82F80E20E947A
:103B4000C701182F80E40E94C701110F24E0829F53
:103B5000C0011124212F282BD22B1F92DF9381E04B
:103B60008F9382E38F93CF930E944B270F900F90F8
:103B70000F900F900F9081E00EC00E942D271F9292
:103B800081E08F93CF930E944B270F900F900F905F
:103B900081E001C080E0DF91CF911F9108950F93E4
:103BA0001F93CF93683109F046C0142F082F41119D
:103BB00031C088E10E94BC33E9EFF8E101900020B8
:103BC000E9F73197CF01895F98410E94BC33C0E08B
:103BD00009EF18E108C0EC2FF0E0E750F74E8081C4
:103BE0000E94BC33CF5FF80101900020E9F73197C4
:103BF000E95FF8418C2F90E08E179F0761F785E011
:103C0000EDE2F2E1A9EFB8E101900D928A95E1F7BA
:103C100081E012C088E10E94BC3380E00E94BC3386
:103C2000C0E0802F0E9416270E94D634CF5F1C135D
:103C3000F8CF81E001C080E0CF911F910F910895EE
:103C40001F93CF93DF93C82FD62F142F673061F4C3
:103C5000642F0E942D271F921F92CF930E944B2703
:103C60000F900F900F907DC09ADF81117AC0D830ED
:103C700029F468EE8C2F0E942D2773C0D731E9F408
:103C80001F9287E18F93CF930E944B272FEF80E7FE
:103C900092E0215080409040E1F700C0000098E0A1
:103CA00088E10FB6F894A895809360000FBE9093BA
:103CB00060000F900F900F90FFCF412F6D2F8C2F32
:103CC000DCDE81114EC0412F6D2F8C2FF9DE81116A
:103CD00048C0412F6D2F8C2F24DF811142C0412F0E
:103CE0006D2F8C2F0E94920B81113BC0412F6D2FA5
:103CF0008C2F0E949E3B811134C0412F6D2F8C2F41
:103D00000E94121281112DC0412F6D2F8C2FAFDA1E
:103D1000811127C0412F6D2F8C2F0E94683981118E
:103D200020C0412F6D2F8C2F75D281111AC0412FC9
:103D30006D2F8C2F0E946337811113C0412F6D2F7F
:103D40008C2F0E942E0881110CC0612F8C2F0E9495
:103D50002D271F921F92CF930E944B270F900F90F9
:103D60000F90DF91CF911F910895CF93DF9300D0F3
:103D70001F92CDB7DEB785E0EDE2F2E1A9EFB8E141
:103D800001900D928A95E1F760E87AE186E090E093
:103D90000E948B2C6CE389E190E00E94E43080E289
:103DA0009EE185D40F2EFCE2EF2EFF24F394F02D3C
:103DB00008EE28EE40E855E260E070E080E0C6D50D
:103DC00020E042E060E875E280E090E00E9462342A
:103DD00069E170E08EEB9CE10E9406320E94F52EB4
:103DE0000E940C0B20E040E060E080E00E94760B37
:103DF0000E941C3A0E946D110E9425032CD0CE0116
:103E000001960E94E8380E9478140E94B2360E94FF
:103E10009B010DDE66E970E088E59CE10E940632B8
:103E2000FFCF1F926F931F927F931F928F931F92CA
:103E30009F931F9281E08F9385E08F9386E38F930A
:103E40000E940B288DB79EB70C960FB6F8949EBFB4
:103E50000FBE8DBF08950F931F93CF93DF93809173
:103E6000201A81116DC081E08093201A80E092E0D9
:103E700090931F1A80931E1A67E082E290E00E94DE
:103E8000102D80911E1A90911F1A0E94842C8093ED
:103E90001D1ACDEFD9E100E010E080911E1A90913B
:103EA0001F1A0196800F911F0E94842C90E0A0E0C1
:103EB000B0E0B82FAA279927882788839983AA83F7
:103EC000BB8380911E1A90911F1A0296800F911F3A
:103ED0000E94842C488159816A817B81682B4883A8
:103EE00059836A837B8380911E1A90911F1A0396CF
:103EF000800F911F0E94842C488159816A817B81A7
:103F0000582B488359836A837B8380911E1A909132
:103F10001F1A0496800F911F0E94842C488159819A
:103F20006A817B81482B49935993699379930C5FFC
:103F30001F4F0032110509F0B0CF0E94A12E01C021
:103F400080E0DF91CF911F910F9108958091201A09
:103F5000811105C08CE392E10C94DA3308958091CD
:103F6000291A882331F08091291A0E9480321092F8
:103F7000291A08950F931F93CF938C01C091201A93
:103F8000C11105C081E792E10E94DA3310C00E949E
:103F90006D2E811105C00E946D2EC82F882339F027
:103FA000C8010E94AE2EC1E0811101C0C0E08C2F7B
:103FB000CF911F910F9108950F931F93CF93DF938C
:103FC00000D01F92CDB7DEB7CE010196D3DF882394
:103FD000F9F069817A818B819C810091211A10917D
:103FE000221A2091231A3091241A0617170728073E
:103FF0003907B1F06093211A7093221A8093231A23
:104000009093241AE091271AF091281A199508C064
:104010001092211A1092221A1092231A1092241A26
:104020008091251A9091261A0F900F900F900F9063
:10403000DF91CF911F910F9108958091201A8111E6
:1040400005C085E992E10C94DA33089510921D1AA7
:1040500060E080911E1A90911F1A0C947C2C089598
:104060000F931F938B019C0190911D1A992311F1BD
:104070004091FD195091FE196091FF197091001A3D
:10408000041715072607370769F40AC041915191B3
:1040900061917191401751076207730731F40BC0AA
:1040A00080E009C0E1E0FAE180E08F5F8913EECFA4
:1040B0008FEF01C08FEF1F910F910895CF92DF9284
:1040C000EF92FF92CF936B017C018091201A8111B6
:1040D00006C082EC92E10E94DA338FEF6FC0C0918C
:1040E0001D1AC83008F067C0C701B601B9DF8823C0
:1040F0000CF063C02C2F30E0220F331F220F331F30
:10410000F901E350F64EC082D182E282F3826F2D34
:1041100077278827992740911E1A50911F1A4F5FC1
:104120005F4FCA01820F931F0E947C2CB701882722
:10413000992720911D1A40911E1A50911F1A4E5F07
:104140005F4FCA0134E0239F800D911D11240E940E
:104150007C2C99278F2D7E2D6D2D20911D1A40913D
:104160001E1A50911F1A4D5F5F4FCA0134E0239F02
:10417000800D911D11240E947C2C20911D1A80918C
:104180001E1A90911F1A04966C2D34E0239F800D07
:10419000911D11240E947C2C60911D1A6F5F609309
:1041A0001D1A80911E1A90911F1A0E947C2C8091DA
:1041B0001D1A815003C08FEF01C08FEFCF91FF9088
:1041C000EF90DF90CF9008959C019091201A91116B
:1041D00005C08CEE92E10C94DA3308957093281A9E
:1041E0006093271A3093261A2093251AAFDE609128
:1041F000251A7091261A8CED9FE10E940632809359
:10420000291A8091291A811104C082E293E10C9449
:10421000DA330895CF92DF92EF92FF920F931F93BC
:10422000CF93DF9300D01F92CDB7DEB7082F109148
:10423000201A111105C083E693E10E94DA333DC1D3
:10424000673309F483C030F4653359F0663309F4F9
:104250003DC032C1683309F49FC0693309F4F1C02D
:104260002BC1411127C0CE01019684DE8823C1F005
:1042700039812A819B818C811F923F931F922F93BA
:104280001F929F931F928F9384E08F9385E38F9368
:104290000F9301D60FB6F894DEBF0FBECDBF08C096
:1042A0001F9285E38F930F93F6D50F900F900F9089
:1042B00011E003C1642FD1D51F9281E08F930F933A
:1042C000EAD50F900F900F9011E0F7C0423091F5B2
:1042D000ADD5E82E802FAAD58E29E82EF12C36DE1A
:1042E000E114F10461F486E35ED61F9286E08F93B9
:1042F0000F93D1D50F900F900F9011E0DEC00E9468
:104300005331BC01C7010E94563E892B51F01F92C8
:1043100083E08F930F93BFD50F900F900F9011E014
:10432000CCC066E3802F06D661E17FE1C7014CDF98
:1043300011E0C3C0642F91D51F9281E08F930F933A
:10434000AAD50F900F900F9011E0B7C04130C1F483
:104350006DD5863A51F01F9283E08F930F939BD5D2
:104360000F900F900F9011E0A8C067DE1F9287E3B7
:104370008F930F9390D50F900F900F9011E09DC0E9
:10438000642F6BD51F9281E08F930F9384D50F908C
:104390000F900F9011E091C0453009F046C046D50E
:1043A000182F802F43D5D82E802F40D5F82E802F60
:1043B0003DD5E82E802F3AD5282F163A51F01F927E
:1043C00083E08F930F9367D50F900F900F9011E0BC
:1043D00074C08F2D90E0A0E0B0E0DC019927882721
:1043E000BD29822BBC01CD017E2968DE88239CF08B
:1043F000282F082E000C330B3F938F9381E08F936F
:1044000088E38F930F9347D50F900F900F900F90E5
:104410000F9011E052C01F9282E08F930F933BD513
:104420000F900F900F9011E048C0642F16D51F9287
:1044300081E08F930F932FD50F900F900F9011E085
:104440003CC0443069F5F2D4C82ED12CE12CF12CBB
:10445000FC2CEE24DD24CC24802FE8D4E82A802F05
:10446000E5D4182F802FE2D4A7019601282BDA017A
:10447000C901BC01CD01712BF3DD282F082E000CE2
:10448000330B3F938F9381E08F9389E38F930F9347
:1044900002D50F900F900F900F900F9011E00DC06C
:1044A000642FDBD41F9281E08F930F93F4D40F908D
:1044B0000F900F9011E001C010E0812F0F900F902E
:1044C0000F900F90DF91CF911F910F91FF90EF9080
:1044D000DF90CF900895CF93C0912A1AC11105C0E3
:1044E0008FE893E10E94DA3301C0C1E08C2FCF91B5
:1044F000089581E080932A1A0895CF93DF93C82FFF
:10450000D62FE9DF882329F1ECE7F0E08081282F1E
:104510002F7330E4C39FC0011124822B8083D830D5
:1045200050F48081807ED82BD083EBE7F0E080814F
:10453000877F80830EC0D03160F4ECE7F0E08081AB
:10454000807ED850D82BD083EBE7F0E08081886064
:104550008083DF91CF910895CF93DF93EC01BBDF90
:104560008823E9F0ECE7F0E0808180628083EAE76D
:10457000F0E08FE8808310922E1A10922D1A10927C
:104580002C1A10922B1AD093321AC093311A10920F
:10459000301A10922F1A8081806480837894DF9182
:1045A000CF910895CF93DF93EC0195DF8823E9F055
:1045B000ECE7F0E080818F7D8083EAE7F0E08FE830
:1045C000808310922E1A10922D1A10922C1A10928B
:1045D0002B1A1092321A1092311AD093301AC093BB
:1045E0002F1A8081806480837894DF91CF91089521
:1045F0001F920F920FB60F9211240BB60F922F93AA
:104600003F934F935F936F937F938F939F93AF935A
:10461000BF93EF93FF93E091311AF091321A3097E4
:1046200021F080917900199501C080E0E0912F1A66
:10463000F091301A309729F08091780090917900AC
:104640001995E0912D1AF0912E1A309721F0809152
:104650007900199519C0E0912B1AF0912C1A309716
:1046600031F0809178009091790019950DC08823E0
:1046700031F0EAE7F0E080818064808305C0EAE7FA
:10468000F0E080818F778083FF91EF91BF91AF91B0
:104690009F918F917F916F915F914F913F912F915A
:1046A0000F900BBE0F900FBE0F901F901895CF93D9
:1046B000DF9300D01F92CDB7DEB79C838B838B81B5
:1046C0009C819093341B8093331B1A8295C019826E
:1046D0008CC08A81482F50E08981882F90E09C010E
:1046E000220F331F280F391FC901880F991F880F08
:1046F000991F9C01CA01880F991F840F951F880F6D
:10470000991F880F991F880F991F820F931F8A572F
:10471000944EFC01118210828A81482F50E08981D9
:10472000882F90E09C01220F331F280F391FC901E9
:10473000880F991F880F991F9C01CA01880F991F24
:10474000840F951F880F991F880F991F880F991F35
:10475000820F931F8157944EFC0110828A81482F4B
:1047600050E08981882F90E09C01220F331F280F91
:10477000391FC901880F991F880F991F9C01CA0111
:10478000880F991F840F951F880F991F880F991FF5
:10479000880F991F820F931F8357944EFC0110823C
:1047A0008A81482F50E08981882F90E09C01220F58
:1047B000331F280F391FC901880F991F880F991FB0
:1047C0009C01CA01880F991F840F951F880F991F9C
:1047D000880F991F880F991F820F931F8257944E3D
:1047E000FC01108289818F5F89838981823008F47E
:1047F00070CF8A818F5F8A838A81843008F467CF83
:1048000081E08093321B00000F900F900F900F906B
:10481000DF91CF910895CF93DF9300D01F92CDB752
:10482000DEB78C838C81882F90E08B5C944EFC01EA
:1048300080810E94043319823FC08C81482F50E050
:104840008981882F90E09C01220F331F280F391F88
:10485000C901880F991F880F991F9C01CA01880FF1
:10486000991F840F951F880F991F880F991F880F14
:10487000991F820F931F8A57944E9B838A838A8144
:104880009B81FC01238134818A819B81FC013683D9
:1048900025838A819B81FC0110868A819B81FC0192
:1048A00011868A819B81FC0117828A819B81FC0190
:1048B000128689818F5F89838981823008F4BDCF18
:1048C0001F9284E08F938C818F93E5D20F900F908D
:1048D0000F908C81882F90E0880F991F8C5F934EEA
:1048E000FC01808191810F900F900F900F90DF91CC
:1048F000CF910895CF93DF93CDB7DEB780E08BDF04
:10490000882F90E0DF91CF910895CF93DF93CDB7BB
:10491000DEB781E080DF882F90E0DF91CF910895AE
:10492000CF93DF93CDB7DEB782E075DF882F90E0BD
:10493000DF91CF910895CF93DF93CDB7DEB783E0BA
:104940006ADF882F90E0DF91CF910895EF92FF9278
:104950000F93CF93DF93CDB7DEB72C970FB6F894B4
:10496000DEBF0FBECDBF8C834D835E836F837887A0
:1049700029870A87FC86EB868091321B882331F4D5
:1049800085EA9AE00E94DA3380E08EC18C81882F1C
:1049900090E08130910509F43EC0823091051CF40D
:1049A000892B49F0C8C08230910509F464C003978F
:1049B00009F491C0C0C08B859C85BC018AE794E254
:1049C0000E9406328093351B8091351B882329F481
:1049D00087EC9AE00E94DA33AEC08D819E81AF8170
:1049E000B88520E042E0BC01CD010E94473381EC54
:1049F00090E021EC30E0F90120812068FC01208367
:104A00008B859C859093051C8093041C8091351B9D
:104A10000E94043390C08B859C85BC0185E894E29C
:104A20000E9406328093361B8091361B882329F41E
:104A300087EC9AE00E94DA337EC08D819E81AF813F
:104A4000B88520E042E0BC01CD010E94ED3389EC45
:104A500090E029EC30E0F90120812068FC012083FE
:104A60008B859C859093071C8093061C8091361B38
:104A70000E94043360C08B859C85BC0180E994E270
:104A80000E9406328093371B8091371B882329F4BC
:104A900087EC9AE00E94DA334EC08D819E81AF810F
:104AA000B88520E042E0BC01CD010E94623481ED76
:104AB00090E021ED30E0F90120812068FC012083A5
:104AC0008B859C859093091C8093081C8091371BD3
:104AD0000E94043330C08B859C85BC018BE994E235
:104AE0000E9406328093381B8091381B882329F45A
:104AF00087EC9AE00E94DA331EC08D819E81AF81DF
:104B0000B88520E042E0BC01CD010E94EA3481E397
:104B100091E021E331E0F90120812068FC0120834C
:104B20008B859C8590930B1C80930A1C8091381B6D
:104B30000E94043300001982B1C08C81482F50E0DC
:104B40008981082E000C990B9C01220F331F280F1E
:104B5000391FC901880F991F880F991F9C01CA012D
:104B6000880F991F840F951F880F991F880F991F11
:104B7000880F991F820F931F8A57944E9B838A83B5
:104B80008A819B81FC0180819181892B39F08A8106
:104B90009B81FC01808191810E94803F8A819B8161
:104BA000FC0111868A819B81FC01178289818823FF
:104BB00089F48A819B812985FC0122838985882F3C
:104BC00090E00E94E83E9C018A819B81FC01318338
:104BD000208310C08A819B812A85FC0122838A85DB
:104BE000882F90E00E94E83E9C018A819B81FC0115
:104BF000318320838A819B81FC0180819181892B73
:104C000091F589818150898329C08C81482F50E09A
:104C10008981082E000C990B9C01220F331F280F4D
:104C2000391FC901880F991F880F991F9C01CA015C
:104C3000880F991F840F951F880F991F880F991F40
:104C4000880F991F820F931F8A57944EFC01808111
:104C500091810E94803F8981815089838981882345
:104C6000A4F680E021C08A819B81FC0120813181F2
:104C70008A819B81FC01348323838A819B81FC018F
:104C8000208131818A819B81FC01368325838A8141
:104C90009B81FC01138689818F5F898389818230A2
:104CA0000CF44BCF789481E02C960FB6F894DEBFCD
:104CB0000FBECDBFDF91CF910F91FF90EF90089580
:104CC000CF93DF9300D01F92CDB7DEB78B836C8379
:104CD0008B81482F50E08C81882F90E09C01220F1F
:104CE000331F280F391FC901880F991F880F991F7B
:104CF0009C01CA01880F991F840F951F880F991F67
:104D0000880F991F880F991F820F931F8A57944EFF
:104D10009A83898389819A81FC01258136818981E1
:104D20009A81FC01838194812817390751F4898184
:104D30009A81FC01118689819A81FC01178281E0A8
:104D400001C080E00F900F900F900F90DF91CF91F6
:104D50000895CF93DF9300D01F921F92CDB7DEB797
:104D60008C836D838C81482F50E08D81882F90E05B
:104D70009C01220F331F280F391FC901880F991F6B
:104D8000880F991F9C01CA01880F991F840F951FD6
:104D9000880F991F880F991F880F991F820F931FE3
:104DA0008A57944E9A83898389819A81FC018581EF
:104DB0009681AC014F5F5F4F29813A81F90156839B
:104DC0004583FC0180818B8389819A81FC01258147
:104DD000368189819A81FC014081518189819A8142
:104DE000FC018281882F90E0840F951F28173907D6
:104DF00050F089819A81FC012081318189819A81D9
:104E0000FC013683258389819A81FC0180852FEFFF
:104E1000280F89819A81FC0120878B810F900F9048
:104E20000F900F900F90DF91CF910895CF93DF9364
:104E30001F92CDB7DEB789838091321B882331F46E
:104E400086EF9AE00E94DA3380E003C060E0898157
:104E500080DF0F90DF91CF910895CF93DF931F9262
:104E60001F92CDB7DEB789836A838091321B882376
:104E700051F48CE19BE00E94DA3308C08981D6DFCF
:104E80008A8181508A838A818823C1F70F900F908D
:104E9000DF91CF910895CF93DF9300D01F92CDB7CC
:104EA000DEB78091321B882329F485E49BE00E94C1
:104EB000DA3339C0CE010D969C838B838FE590E069
:104EC000FC01808180788A838A81882309F0F894A4
:104ED0004B8561E08A85C1D1882309F14C8561E069
:104EE0008A85BBD18823D9F0198213C08B819C811C
:104EF0009C012E5F3F4F3C832B83FC01808191817D
:104F0000482F61E08A85A9D1882341F089818F5F8C
:104F1000898399818C85981748F301C000008A81A4
:104F2000882309F078940F900F900F900F90DF91E5
:104F3000CF910895CF93DF931F921F92CDB7DEB725
:104F400089836A838091321B882329F484E69BE05D
:104F50000E94DA3323C08A81882F90E02A81222F91
:104F600030E02D5C354EF9012081622F2981422FDE
:104F700050E021E030E002C0220F331F4A95E2F7F3
:104F8000262B8D5C954EFC0120831F9285E08F932C
:104F900089818F9380DF0F900F900F900F900F906B
:104FA000DF91CF910895CF93DF931F921F92CDB7DA
:104FB000DEB78A838091321B882329F486E89BE040
:104FC0000E94DA3323C019821EC08A81882F90E0A4
:104FD0002A81222F30E02D5C354EF9012081622F8D
:104FE0002981422F50E021E030E002C0220F331F20
:104FF0004A95E2F7209526238D5C954EFC0120838F
:1050000089818F5F898389818430F8F20F900F90B6
:10501000DF91CF910895CF93DF9300D01F921F921D
:10502000CDB7DEB78091321B882329F486EA9BE056
:105030000E94DA335AC0CE010D969D838C8319826B
:105040004EC08B85882F90E08D5C954EFC01808151
:10505000882F90E02981222F30E002C09595879516
:105060002A95E2F781709927892BB1F18FE590E0BD
:10507000FC01808180788B838B81882309F0F894F0
:105080004B8561E08981E9D0882309F14C8561E095
:105090008981E3D08823D9F01A8213C08C819D8145
:1050A0009C012E5F3F4F3D832C83FC0180819181C9
:1050B000482F61E08981D1D0882341F08A818F5FB8
:1050C0008A839A818C85981748F301C000008B81F0
:1050D000882351F0789408C089818F5F8983898102
:1050E000843008F4AECF01C000000F900F900F90F5
:1050F0000F900F90DF91CF910895CF93DF9300D061
:1051000000D0CDB7DEB78D836E838D81482F50E000
:105110008E81882F90E09C01220F331F280F391FAA
:10512000C901880F991F880F991F9C01CA01880F18
:10513000991F840F951F880F991F880F991F880F3B
:10514000991F820F931F8A57944E9A83898389816E
:105150009A81FC018781882311F480E075C08E81DB
:105160008823B9F560E08D81F4DD8B8360E08D816B
:10517000F0DD8C838B81882F90E02B81222F30E013
:105180002D5C354EF9012081622F2D81422F50E098
:1051900021E030E002C0220F331F4A95E2F7262BB0
:1051A0008D5C954EFC0120832091331B3091341B84
:1051B0004C816B818D81F901199589819A81FC015E
:1051C00087812FEF280F89819A81FC01278381E055
:1051D0003BC08D81882F90E081309105B1F0823005
:1051E00091051CF4892B39F02EC082309105B9F05D
:1051F0000397F9F028C081EC90E021EC30E0F90150
:1052000020812062FC0120831EC089EC90E029EC03
:1052100030E0F90120812062FC01208314C081ED7F
:1052200090E021ED30E0F90120812062FC01208333
:105230000AC081E391E021E331E0F901208120629D
:10524000FC012083000080E026960FB6F894DEBFB4
:105250000FBECDBFDF91CF910895CF93DF9300D0E4
:105260001F921F92CDB7DEB78B836C834D838B81EA
:10527000482F50E08C81882F90E09C01220F331F33
:10528000280F391FC901880F991F880F991F9C018A
:10529000CA01880F991F840F951F880F991F880FC7
:1052A000991F880F991F820F931F8A57944E9A83D4
:1052B000898389819A81FC0180819181892B11F4F4
:1052C00080E002C189819A81FC0123813481898136
:1052D0009A81FC01858196812817390709F047C01A
:1052E00089819A81FC018085882309F440C037C0F8
:1052F00089819A81FC01838194819C01215031092B
:1053000089819A81FC013483238389819A81FC01FC
:105310002381348189819A81FC01808191812817C0
:10532000390798F489819A81FC0120813181898132
:105330009A81FC018281882F90E00197280F391F04
:1053400089819A81FC013483238389819A81FC01BC
:1053500081852FEF280F89819A81FC01218789811E
:105360009A81FC018185882319F680E0ADC089818E
:105370009A81FC0183819481AC014F5F5F4F298149
:105380003A81F901548343832D81FC012083898173
:105390009A81FC012381348189819A81FC014081B9
:1053A000518189819A81FC018281882F90E0840F4C
:1053B000951F2817390750F089819A81FC012081B7
:1053C000318189819A81FC013483238389819A8187
:1053D000FC01818521E0280F89819A81FC012187C8
:1053E00089819A81FC01808521E0280F89819A8139
:1053F000FC0120878C81882349F48B81882F90E0E1
:105400008B5C944EFC0180810E94E23289819A81FA
:10541000FC018185813069F48C818823A9F48B811A
:10542000882F90E08B5C944EFC0180810E94253394
:105430000BC089819A81FC018185823029F48981A0
:105440009A812D81FC01228789819A81FC018185C5
:10545000282F30E089819A81FC018285882F90E095
:1054600002962817390779F58C81882349F48B81B6
:10547000882F90E08B5C944EFC0180810E94043365
:1054800089819A81FC01118689819A81FC01878139
:1054900021E0280F89819A81FC01278389819A81E3
:1054A000FC018385882379F489819A8121E0FC01BC
:1054B000238700006C818B8120DE8823D9F78981C6
:1054C0009A81FC01138681E00F900F900F900F904E
:1054D0000F90DF91CF9108951F920F9200905F007F
:1054E0000F92112400905B000F922F933F934F93E4
:1054F0005F936F937F938F939F93AF93BF93EF933C
:10550000FF93CF93DF93CDB7DEB786EC90E0FC013D
:105510008081482F60E080E0A0DE0000DF91CF9125
:10552000FF91EF91BF91AF919F918F917F916F917B
:105530005F914F913F912F910F9000925B000F90E0
:1055400000925F000F901F9018951F920F9200908D
:105550005F000F92112400905B000F922F933F93F6
:105560004F935F936F937F938F939F93AF93BF936B
:10557000EF93FF93CF93DF93CDB7DEB78EEC90E040
:10558000FC018081482F60E081E067DE0000DF9150
:10559000CF91FF91EF91BF91AF919F918F917F91AB
:1055A0006F915F914F913F912F910F9000925B000F
:1055B0000F9000925F000F901F9018951F920F920E
:1055C00000905F000F92112400905B000F922F93C8
:1055D0003F934F935F936F937F938F939F93AF937B
:1055E000BF93EF93FF93CF93DF93CDB7DEB786EDF5
:1055F00090E0FC018081482F60E082E02EDE000018
:10560000DF91CF91FF91EF91BF91AF919F918F91DA
:105610007F916F915F914F913F912F910F900092E9
:105620005B000F9000925F000F901F9018951F92E3
:105630000F9200905F000F92112400905B000F9278
:105640002F933F934F935F936F937F938F939F938A
:10565000AF93BF93EF93FF93CF93DF93CDB7DEB7B5
:1056600086E391E0FC018081482F60E083E0F5DD76
:105670000000DF91CF91FF91EF91BF91AF919F918A
:105680008F917F916F915F914F913F912F910F90EB
:1056900000925B000F9000925F000F901F90189592
:1056A0001F920F9200905F000F92112400905B00F8
:1056B0000F920F931F932F933F934F935F936F938B
:1056C0007F938F939F93AF93BF93EF93FF93CF936A
:1056D000DF93CDB7DEB761E080E0F2DA882341F4F2
:1056E00006EC10E061E080E034DBF801808309C063
:1056F00081EC90E021EC30E0F90120812F7DFC016C
:1057000020830000DF91CF91FF91EF91BF91AF9186
:105710009F918F917F916F915F914F913F912F91C9
:105720001F910F910F9000925B000F9000925F000D
:105730000F901F9018951F920F9200905F000F928C
:10574000112400905B000F920F931F932F933F93B0
:105750004F935F936F937F938F939F93AF93BF9379
:10576000EF93FF93CF93DF93CDB7DEB761E081E096
:10577000A7DA882341F40EEC10E061E081E0E9DA79
:10578000F801808309C089EC90E029EC30E0F90150
:1057900020812F7DFC0120830000DF91CF91FF91BC
:1057A000EF91BF91AF919F918F917F916F915F9199
:1057B0004F913F912F911F910F910F9000925B009D
:1057C0000F9000925F000F901F9018951F920F92FC
:1057D00000905F000F92112400905B000F920F93D6
:1057E0001F932F933F934F935F936F937F938F9369
:1057F0009F93AF93BF93EF93FF93CF93DF93CDB777
:10580000DEB761E082E05CDA882341F406ED10E067
:1058100061E082E09EDAF801808309C081ED90E0CA
:1058200021ED30E0F90120812F7DFC012083000073
:10583000DF91CF91FF91EF91BF91AF919F918F91A8
:105840007F916F915F914F913F912F911F910F9198
:105850000F9000925B000F9000925F000F901F90DE
:1058600018951F920F9200905F000F9211240090E4
:105870005B000F920F931F932F933F934F935F9370
:105880006F937F938F939F93AF93BF93EF93FF9308
:10589000CF93DF93CDB7DEB761E083E011DA8823E1
:1058A00041F406E311E061E083E053DAF80180831C
:1058B00009C081E391E021E331E0F90120812F7DEE
:1058C000FC0120830000DF91CF91FF91EF91BF9108
:1058D000AF919F918F917F916F915F914F913F9188
:1058E0002F911F910F910F9000925B000F900092EB
:1058F0005F000F901F901895F999FECF92BD81BD62
:1059000060BDFA9AF99A0895F999FECF92BD81BDCA
:10591000F89A80B508959B01AC0181E08093391B12
:10592000ECEBF0E080818B7F80831092B90060E027
:1059300074E284EF90E00E947D3EDA01C901409755
:10594000A109B109B695A795979587958093B80059
:105950002FEF80E792E0215080409040E1F700C0B7
:10596000000008951F93CF93DF93162FE0910D1C35
:10597000F0910E1C2081C1E0D0E0AE0100900C1C23
:1059800002C0440F551F0A94E2F7942F909592237A
:105990009083880F8E7754D2812F52D2E0910D1CC4
:1059A000F0910E1C808100900C1C02C0CC0FDD1FFA
:1059B0000A94E2F7C82BC083DF91CF911F9108951D
:1059C000CF93DF93E0910D1CF0910E1C2081C1E07C
:1059D000D0E0AE0100900C1C02C0440F551F0A9489
:1059E000E2F7942F909592239083880F8E778068AA
:1059F00027D280E025D2E0910D1CF0910E1C908101
:105A000000900C1C02C0CC0FDD1F0A94E2F7C92BDA
:105A1000C083DF91CF9108956FE081E0A3CF089517
:105A200090930E1C80930D1C60930C1CFC017081E4
:105A300021E030E0A90102C0440F551F6A95E2F74A
:105A4000472B4083E0910D1CF0910E1C8291009039
:105A50000C1C02C0220F331F0A94E2F7282B20836C
:105A6000E6D1811101C0C1D1D7DF6DE88AE27ADFCA
:105A70006EE38BE277DF6EE18CE274DF60E08DE253
:105A800071DF60E485E16EDF6DE381E16BDF68E784
:105A900086E268DF6FE782E065DF84E191DF982FBF
:105AA000937021F4682F636084E15CCF08953F9286
:105AB0004F925F926F927F928F929F92AF92BF921E
:105AC000CF92DF92EF92FF920F931F93CF93DF93CA
:105AD000982EF62EE72E442E822E332E58018CE07F
