:1000000024C1000043C1000041C1000078C50000C8
:100010003DC100000C94FC1E0C94391E37C1000039
:1000200035C100000C94260A31C100000C9403096C
:100030002DC100002BC100000C94291527C1000020
:1000400025C100000C94643021C100001FC10000D4
:100050001DC100001BC1000019C100000C94D20F8B
:1000600015C1000011C2000011C100000FC1000045
:100070000DC100000C94C02C09C1000007C1000094
:100080000C94650D03C1000001C10000FFC0000019
:100090007DC20000FBC00000F9C00000F7C00000F6
:1000A000F5C00000F3C000000C948508EFC000000C
:1000B000EDC00000EBC00000E9C00000E7C0000098
:1000C000E5C00000E3C00000E1C0000097C20000EE
:1000D000DDC00000DBC00000CCC20000D7C00000C3
:1000E000D5C000008E0D960DA50DB40D270E360E51
:1000F000450EB70EC60ED50E9D179917941790177B
:100100008B17861782177D17781774176F176A1762
:10011000661761175C17581753174E174A1745177C
:1001200040173C17371732172E1729172417201797
:100130001B17161712170D1708170417FF16FA16B4
:10014000F616F116EC16E816E316DE16DA16D516D4
:10015000D016CC16C716C216BB16B416AD16A61608
:100160009F16981691168A1683167C1675166E16AB
:1001700067166016591652164B1644163D1636165B
:100180002F16281621161A1613160C160516FE150C
:10019000F715F015E915E215DB15D415CD15C615C3
:1001A000BF15B815B115AA15A3159C1595158E1573
:1001B00087158015791572156B1564155D15561523
:1001C0004F15C620FF202E215D219621CD21092229
:1001D00009220922092209220922092209220922C7
:1001E00009220922092209220922092209220922B7
:1001F00009220922092209220922092209220922A7
:100200000922092209220922092209220922092296
:100210000922092209220922092209220922092286
:100220000922092209220922092209220922EE1F94
:10023000A220D724DE24DE24DE24ED24F324F324BC
:10024000F32404250A250A251D2511241FBECFEFFE
:10025000D1E2DEBFCDBF00E00CBF13E1A0E0B2E011
:10026000E6E4F9E700E00BBF02C007900D92A83A60
:10027000B107D9F72BE1A8EAB3E101C01D92AB3475
:10028000B207E1F70E9457280C94A13CB9CE0F9217
:100290001F92CF93DF93D92FC82FA881B9812A81CC
:1002A0000B80209D23E0029ED72FC62F388191E03E
:1002B000442319F0990F4A95E9F7CA958881892B4B
:1002C0008883C3958D9178E0880F68F0392B9095DD
:1002D0003883000000003923909538830000000027
:1002E0007A9591F70FC0392B909538830000000064
:1002F00000000000000000000000392390953883C2
:100300007A9511F70A94F1F6DF91CF911F900F9033
:1003100008952F923F924F925F926F927F928F92A9
:100320009F92AF92BF92CF92DF92EF92FF920F9384
:100330001F93CF93DF9300D0CDB7DEB7412C662457
:1003400063940F2EFFEACF2EF3E1DF2EF02D0F2E58
:10035000F7EBEF2EF3E1FF2EF02D00E010E0542C30
:10036000702E8091BF1390E0002E02C09595879566
:100370000A94E2F780FF08C0E091AA13F091AB1352
:10038000662D802F19955AC0802F0E94AB23282EEE
:1003900081E0821508F052C0402F62E0CE01019644
:1003A0000E94BE23882309F449C04701F7018081D8
:1003B0009181009711F00E940D3C3A80A32CB12C42
:1003C000F2E0AF0EB11CC5010E94753BF4019183B0
:1003D0008083009751F4E091AA13F091AB1360E091
:1003E000872D19958AEF90E039C0311004C0F601CD
:1003F0009183808306C09C012E5F3F4FF6013183BD
:100400002083222D30E02A153B05C4F062E0630D05
:10041000472D0E94BE23882389F08A81672D8E5F35
:100420000E940F24872D0E94AB23E091AC13F09122
:10043000AD134A816981872D1995562C0F5F1F4F87
:10044000F2E0CF0ED11C82E0E80EF11C0430110561
:1004500009F086CF511075CF89E190E00F900F9091
:100460000F90DF91CF911F910F91FF90EF90DF9050
:10047000CF90BF90AF909F908F907F906F905F9044
:100480004F903F902F9008951F920F920FB60F92AA
:1004900011240BB60F922F933F934F935F936F935B
:1004A0007F938F939F93AF93BF93CF93EF93FF93DC
:1004B000F8948091A91380FF4BC0C091C600C03250
:1004C00009F048C081E08093A81360E080E20E94B8
:1004D0004E2381113DC08091BF1381608093BF1373
:1004E00037C08091A813823058F180FF06C0C11137
:1004F0000AC08F5F8093A81309C0CF3F21F48F5F9C
:100500008093A81303C01092A81322C08091A8134F
:100510008C30F1F480E090E00E947B2480E20E9425
:10052000BA328AE00E94BA32C5E08FEF0E94BA3236
:1005300080E00E94BA32C150C1F71092A81308C0DF
:10054000CA3021F48F5F8093A81302C01092A813C1
:10055000789408C060E08C2F0E944E23882309F411
:10056000BACFBFCFFF91EF91CF91BF91AF919F9144
:100570008F917F916F915F914F913F912F910F904C
:100580000BBE0F900FBE0F901F9018951F920F92E9
:100590000FB60F9211240BB60F922F933F934F93E8
:1005A0005F936F937F938F939F93AF93BF93EF93DB
:1005B000FF93F8948091A91381FF0CC08091CE0025
:1005C00061E00E944E23811105C08091BF138260BB
:1005D0008093BF137894FF91EF91BF91AF919F915A
:1005E0008F917F916F915F914F913F912F910F90DC
:1005F0000BBE0F900FBE0F901F9018951F920F9279
:100600000FB60F9211240BB60F922F933F934F9377
:100610005F936F937F938F939F93AF93BF93EF936A
:10062000FF93F8948091A91382FF0DC08091D600AA
:1006300062E00E944E23811108C08091BF13846044
:100640008093BF1302C00E9440287894FF91EF91DD
:10065000BF91AF919F918F917F916F915F914F91DA
:100660003F912F910F900BBE0F900FBE0F901F90D8
:1006700018951F920F920FB60F9211240BB60F927E
:100680002F933F934F935F936F937F938F939F939A
:10069000AF93BF93EF93FF93F8948091360163E09B
:1006A0000E944E23811105C08091BF138860809302
:1006B000BF137894FF91EF91BF91AF919F918F916C
:1006C0007F916F915F914F913F912F910F900BBE52
:1006D0000F900FBE0F901F901895AF92BF92DF92B0
:1006E000EF92FF920F931F93CF93DF93CDB7DEB7B7
:1006F0001D85DE847E018FE0E80EF11CDD2079F19E
:1007000000E0113081F028F01230B9F01330E9F038
:1007100026C0570192E0A90EB11CF70180810E940A
:10072000BA32750119C05701F2E0AF0EB11CF701E2
:1007300080810E945B3375010FC0F7018081F2E078
:10074000EF0EF11C0E94D33307C0F701808192E0C5
:10075000E90EF11C0E944B340F5FD012D2CFDF9113
:10076000CF911F910F91FF90EF90DF90BF90AF90CE
:100770000895CF92DF92EF92FF92CF93C82F6A0134
:100780007B010E942D23C130B9F028F0C23029F13D
:10079000C33079F14CC020E042E0C701B6010E94AD
:1007A0004932E2ECF0E0808188608083E1ECF0E0A7
:1007B0008081806880832DC020E042E0C701B601BF
:1007C0000E94EB32EAECF0E0808188608083E9EC03
:1007D000F0E08081806880831CC020E042E0C70197
:1007E000B6010E946333E1EDF0E080818068808390
:1007F00010C020E042E0C701B6010E94DB33E2E313
:10080000F1E0808188608083E1E3F1E080818068AD
:1008100080832091A91381E090E002C0880F991F86
:10082000CA95E2F7822B8093A91381E001C080E092
:10083000CF91FF90EF90DF90CF9008959091A91302
:1008400021E030E0082E02C0220F331F0A94E2F7A5
:10085000209529232093A91390E00C947B240895DC
:100860000895E82FF0E0EE0FFF1FE155FC4EA08148
:10087000B181CD010196918380838C910895CF92AF
:10088000DF92EF92FF920F931F93CF93DF93CDB739
:10089000DEB7DC840E851F920F931F928D858F9398
:1008A00082E08F93DF9219DF0F900F900F900F90DF
:1008B0000F900F900023C9F07E018FE0E80EF11C2D
:1008C00010E0CC24C394F701818192E0E90EF11C81
:1008D0008F9380818F93CF92DF92FFDE1F5F0F9007
:1008E0000F900F900F900113EECFDF91CF911F91DA
:1008F0000F91FF90EF90DF90CF900895E82FF0E0F8
:10090000E65FF44E60831F921F921F9295E09F93C3
:1009100092E09F938F93E1DE0F900F900F900F90D6
:100920000F900F900895CF92DF92EF92FF920F9366
:100930001F93CF93DF93CDB7DEB78C85ED84909175
:100940000A1B8917C1F090910B1B981769F09091C1
:100950000C1B891761F090910D1B98130EC00F2E80
:10096000F3E0DF2EF02D0CC0DD24D39409C0689491
:10097000DD24D1F805C0D12C03C06894DD24D2F861
:100980000E2D10E01F92EF921F928F9382E08F93B3
:10099000DF92A3DE0F900F900F900F900F900F90AB
:1009A000012BC9F08E01025F1F4FEE20A1F0F12C48
:1009B000CC24C394F80181810E5F1F4F8F938081F7
:1009C0008F93CF92DF9289DEF3940F900F900F9068
:1009D0000F90EF10EFCFDF91CF911F910F91FF900C
:1009E000EF90DF90CF90089590910A1B8917C1F086
:1009F00090910B1B891761F090910C1B891761F086
:100A000090910D1B981313C093E0E3E0F0E00BC04E
:100A100091E0E1E0F0E007C092E0E2E0F0E003C046
:100A2000E0E0F0E090E0E65FF44E108201C094E078
:100A30001F921F921F9286E08F9382E08F939F9365
:100A40004CDE0F900F900F900F900F900F90089525
:100A5000CF93DF93EC010E942D238091AE1381117F
:100A600008C06CE271E089E891E00E94083180934F
:100A7000AE13209721F0D093AD13C093AC13DF9148
:100A8000CF9108951092CA131092C6131092C713F3
:100A90001092C8131092C91380910E1B81110E94ED
:100AA000063288EC90E008951F926F931F927F9317
:100AB0001F928F931F929F9384E08F9387E58F936C
:100AC0008091C2138F93DBDE8DB79EB70B960FB666
:100AD000F8949EBF0FBE8DBF0895CF93DF93EC01B6
:100AE0008091C313811104C085E397E00E94D8323E
:100AF000D093C513C093C413DF91CF9108951F9273
:100B00000F920FB60F9211240BB60F920F931F93F3
:100B10002F933F934F935F936F937F938F939F9305
:100B2000AF93BF93EF93FF93E4E8F0E0808191816E
:100B30002091C0133091C113821B930B9C01408103
:100B400051815093C1134093C013992334F42091E1
:100B5000880030918900280F391F8091CA138111B4
:100B600012C080910E1B0E9427321092C613109261
:100B7000C7131092C8131092C9138091CA138F5FC4
:100B80008093CA1376C0813051F42536310518F4AC
:100B90001092CA136EC082E08093CA136AC0823278
:100BA00051F42536310518F41092CA1362C083E25D
:100BB0008093CA135EC0833289F52536310558F11A
:100BC0008091C4139091C513892B89F080910E1BDD
:100BD0000E9406326091C6137091C7138091C813AA
:100BE0009091C913E091C413F091C513199564E075
:100BF0008091C9130E944E2364E08091C8130E9423
:100C00004E2364E08091C7130E944E2364E08091DC
:100C1000C6130E944E231092CA132BC09EEF980F4A
:100C2000903238F52536310508F540E050E060E0B7
:100C300070E89EEF980F04C0769567955795479595
:100C40009A95D2F70091C6131091C7132091C8133B
:100C50003091C913402B512B622B732B4093C61339
:100C60005093C7136093C8137093C9138F5F809319
:100C7000CA1380910E1B81110E94E431FF91EF9104
:100C8000BF91AF919F918F917F916F915F914F91A4
:100C90003F912F911F910F910F900BBE0F900FBEA0
:100CA0000F901F9018958091C313811124C081E08B
:100CB0008093C313539A5B9852985A9AE9E6F0E0EE
:100CC00080818062808380818F7E8083EA9A68EC55
:100CD00070E082E495E00E94083180930E1B811140
:100CE00004C08AE697E00E94D83280910E1B8111E1
:100CF0000E94063278940895009789F020E030E051
:100D00005B9A45E44A95F1F700005B9845E44A9503
:100D1000F1F700002F5F3F4F8217930789F708957F
:100D20008F929F92AF92BF92CF92DF92EF92FF92FB
:100D30001F93CF93DF936B017C018091C3138111CB
:100D400005C085E397E00E94D83257C01FB7F894DA
:100D500086E591E0D1DF8FE496E40197F1F700C0DA
:100D60000000C0E0D0E0812C912C54016894B7F8C9
:100D7000D501C4010C2E04C0B695A795979587950B
:100D80000A94D2F78C219D21AE21BF21892B8A2B79
:100D90008B2B51F085E190E0AFDF8FEB98E001976E
:100DA000F1F700C0000009C085E190E0A5DF87E60B
:100DB0009AE10197F1F700C000002196C032D105F9
:100DC000B9F685E190E098DF87E69AE10197F1F7BF
:100DD00000C0000085E190E08FDF87E69AE101978F
:100DE000F1F700C0000085E190E086DF87E69AE138
:100DF0000197F1F700C000001FBFDF91CF911F9155
:100E0000FF90EF90DF90CF90BF90AF909F908F902A
:100E100008958F929F92AF92BF92CF92DF92EF92FE
:100E2000FF920F931F93CF93DF93CDB7DEB7DA9581
:100E30000FB6F894DEBF0FBECDBFF82E1091C313CE
:100E4000111105C086E997E00E94D83200C16535CE
:100E500059F020F4633209F494C0F8C06635B1F15A
:100E6000673509F471C0F2C0443021F5FADC182F5F
:100E70008F2DF7DC882E912CA12CB12C54019924B4
:100E80008824B12A8F2DEDDC182F8F2DEADCA501E7
:100E90009401282BDA01C901BC01CD01712B40DF7F
:100EA0001F9285E58F93FF92EADC0F900F900F90D1
:100EB00011E0CDC0642FD4DC1F9281E08F93FF92AC
:100EC000DEDC0F900F900F9011E0C1C0443081F52F
:100ED000C8DC182F8F2DC5DC882E912CA12CB12CAD
:100EE000540199248824B12A8F2DBBDC182F8F2D13
:100EF000B8DC882AC501B401712BE091C413F091CC
:100F0000C513309759F019951F9286E58F93FF927C
:100F1000B6DC0F900F900F9011E099C01F9282E005
:100F20008F93FF92ACDC0F900F900F9011E08FC069
:100F3000642F96DC1F9281E08F93FF92A0DC0F90CC
:100F40000F900F9011E083C041110FC08093C21326
:100F500084E595E0C2DD1F9287E58F93FF928FDCD9
:100F60000F900F900F9011E072C0642F79DC1F92E8
:100F700081E08F93FF9283DC0F900F900F9011E030
:100F800066C0411148C084E00E94AB23C82E811185
:100F900010C01F921F921F9283E28F9382E08F9363
:100FA000FF929BDB0F900F900F900F900F900F9080
:100FB00030C044E0682FCE0101960E94BE231F92EC
:100FC000CF921F9283E28F9382E08F93FF9285DB13
:100FD0008E010F5F1F4FCA94D12C3FEFC31AD30A63
:100FE000C00ED11E0F900F900F900F900F900F908A
:100FF000EE24E394F80181918F011F928F93EF9279
:10100000FF926BDB0F900F900F900F900C151D054A
:1010100089F711E01CC0413069F484E00E94652426
:101020001F9283E28F93FF922ADC0F900F900F9014
:1010300011E00DC0642F14DC1F9281E08F93FF92AA
:101040001EDC0F900F900F9011E001C010E0812F77
:10105000D3950FB6F894DEBF0FBECDBFDF91CF9111
:101060001F910F91FF90EF90DF90CF90BF90AF90C6
:101070009F908F90089581E08093CB1380E090E063
:101080000895E091121BF091131B429181E090E0D2
:101090009C0100903F1B02C0220F331F0A94E2F70D
:1010A000242B2083E091121BF091131B3081AC01A3
:1010B00000903F1B02C0440F551F0A94E2F7242FF3
:1010C00020952323208323E130E03093A90020934F
:1010D000A80022E0209372001092A5001092A400B4
:1010E0001092A0002AE02093A100E091121BF09141
:1010F000131B208100903F1B02C0880F991F0A9488
:10110000E2F7822B8083789408951F920F920FB696
:101110000F9211240BB60F922F938F939F93EF93FF
:10112000FF93E091121BF091131B808190E00090DF
:101130003F1B02C0959587950A94E2F780FF25C072
:101140008BE08093A100E091121BF091131B208192
:1011500081E090E000903F1B02C0880F991F0A9425
:10116000E2F78095822380831092A5001092A4005C
:101170008FE790E09093A9008093A8001092251B20
:101180001092241B1092261B09C08091241B909161
:10119000251B01969093251B8093241BFF91EF91B3
:1011A0009F918F912F910F900BBE0F900FBE0F90BC
:1011B0001F901895CF93C82F8093111B3093101B4D
:1011C00020930F1B7093131B6093121B40933F1BC4
:1011D0001092261B64E670E08BE398E00E940831D1
:1011E0001092CB139091111BE6E0F1E080818923EE
:1011F000E9F747DFE8E6F0E0808184608083C09310
:101200006D00CF9108951F920F920FB60F92112487
:101210000BB60F922F923F924F925F926F927F92F6
:101220008F929F92AF92BF92CF92DF92EF92FF92F6
:101230000F931F932F933F934F935F936F937F93DE
:101240008F939F93AF93BF93CF93DF93EF93FF93CE
:10125000B09006010091111BB022A090261BAB2478
:10126000B092261B212C312C3090241B0F2EF4E140
:10127000EF2EFBE1FF2EF02DC7E2DBE10F2EFFE3A7
:10128000CF2EFBE1DF2EF02D9924939411E0812CD9
:1012900044244A94542C612C712C802F812309F40E
:1012A00062C08A2D812309F45AC08B2D812361F0FD
:1012B00041E04883E4EAF0E080819181820D931D52
:1012C0009A838983982C4FC0F2E0F883E4EAF0E037
:1012D00020813181220D331D89819A812817390798
:1012E000B0F0281B390B22953295307F3227207FB2
:1012F0003227AFE9B6E40E94563B929582958F70F3
:1013000089279F708927F701918380832CC0B301BF
:10131000A201481B590B61097109DB01CA01820F47
:10132000931FA11DB11D880F991FAA1FBB1F880FF6
:10133000991FAA1FBB1FBC01CD01660F771F881F15
:10134000991F660F771F881F991F2AE330E040E03E
:1013500050E00E942C3BF7013183208304C0888138
:10136000823009F0982C110FF2E0EF0EF11C239659
:10137000CC15DD0509F091CF992049F01092A1001C
:10138000E0910F1BF091101B84E19BE11995FF91F7
:10139000EF91DF91CF91BF91AF919F918F917F910D
:1013A0006F915F914F913F912F911F910F91FF90FE
:1013B000EF90DF90CF90BF90AF909F908F907F90F5
:1013C0006F905F904F903F902F900F900BBE0F90BB
:1013D0000FBE0F901F901895E8E6F0E080818160C5
:1013E000808380E090E008950E945230811105C012
:1013F00080EC97E00C94D83208958091CC13811141
:101400001EC081E08093CC1384B18F7884B985B1FC
:10141000806785B98FE39CE90197F1F700C0000070
:10142000EBE6F0E0808180678083E8E6F0E0808191
:1014300081608083789483B180778093D3130895FB
:1014400093B1982381E009F080E008951F920F92F4
:101450000FB60F9211240BB60F921F932F933F9349
:101460004F935F936F937F938F939F93AF93BF93AC
:10147000CF93DF93EF93FF93D3B11D2F1077C091DC
:10148000D313C127C4FF0CC0E091D113F091D21344
:10149000309731F0D4FB882780F991E0892719959E
:1014A000C5FF0CC0E091CF13F091D013309731F00D
:1014B000D5FB882780F991E089271995C6FF0CC0D4
:1014C000E091CD13F091CE13309731F0D6FBDD27AC
:1014D000D0F981E08D271995C07759F0E8E6F0E062
:1014E00080818E7F808364E670E08CEE99E00E94BC
:1014F00008311093D313FF91EF91DF91CF91BF91FA
:10150000AF919F918F917F916F915F914F913F919B
:101510002F911F910F900BBE0F900FBE0F901F9039
:10152000189592B19F7C92B922B130E1839FC0019E
:101530001124822B82B9089592B1937F92B922B17E
:1015400034E0839FC0011124822B82B90895CF9388
:10155000DF93FC01DB01EA014C815D812A813B8143
:101560008881998160851F926F9367811F926F9325
:1015700066811F926F93BA0177277F936F931F92B3
:101580005F9312964C911297642F042E000C770BE8
:101590007F934F9345811F924F9344811F924F93A6
:1015A00043811F924F93A90155275F934F931F9239
:1015B0003F9311962C911197422F022E000C550B40
:1015C0005F932F9322811F922F9321811F922F933C
:1015D00020811F922F939C0133273F932F931F92BB
:1015E0009F938C91282F082E000C330B3F938F93E1
:1015F00082E18F9383E68F9396D98DB79EB78696B7
:101600000FB6F8949EBF0FBE8DBFDF91CF910895A6
:101610001F928F9381E08F9381E68F9384D981E627
:10162000E3D90F900F900F900F900895CF93DF9311
:10163000FC01DB01EA014C815D812A813B818881CB
:10164000998160851F926F9367811F926F93668166
:101650001F926F93BA0177277F936F931F925F93C7
:1016600012964C911297642F042E000C770B7F93E7
:101670004F9345811F924F9344811F924F93438113
:101680001F924F93A90155275F934F931F923F934A
:1016900011962C911197422F022E000C550B5F933F
:1016A0002F9322811F922F9321811F922F932081AC
:1016B0001F922F939C0133273F932F931F929F9349
:1016C0008C91282F082E000C330B3F938F9382E1CF
:1016D0008F9382E68F9327D98DB79EB786960FB6E4
:1016E000F8949EBF0FBE8DBF82E67ED9DF91CF9169
:1016F00008950F931F93CF93DF938091411481112D
:10170000A8C081E08093411480E091E09093F713AA
:101710008093F6130E9A169881B1806381B981B1D6
:101720008F6081B957988091F6139091F7130E94BA
:10173000272D893008F486C01092F81385C0809157
:10174000F6139091F71308968C0F9D1F0E94272D7A
:10175000F80180838091F6139091F71309968C0F0E
:101760009D1F0E94272DF80181838091F61390918F
:10177000F7130A968C0F9D1F0E94272DF801828374
:101780008091F6139091F7130B968C0F9D1F0E947A
:10179000272DF80183838091F6139091F7130C960F
:1017A0008C0F9D1F0E94272DF80184838091F613D2
:1017B0009091F7130D968C0F9D1F0E94272DF80115
:1017C00085838091F6139091F7130E968C0F9D1FD1
:1017D0000E94272DF80186838091F6139091F713CC
:1017E0000F968C0F9D1F0E94272DF80187838091F3
:1017F000F6139091F71340968C0F9D1F0E94272D92
:10180000F80180872996075F1F4FC834D10509F07A
:1018100096CF82B18C7F82B982B1836082B91092F7
:10182000900088E08093910014BC81E080936E006A
:1018300082E0809371008AEF90E09093990080930A
:10184000980007C08093F81309EF13E1C0E0D0E0DF
:1018500076CFDF91CF911F910F9108958091411420
:10186000811105C080E998E00C94D8320895109257
:10187000F81360E08091F6139091F7130C941F2DEC
:101880000895CF92DF92EF92FF920F931F93CF9321
:10189000DF93EB01FC01A081B0E02881A21BB1091C
:1018A0002181E22FF0E029818F01021B1109FC0147
:1018B000428150E08A81481B51099D010E94503BA2
:1018C0006B017C019801D8010E94503BC60ED71EC7
:1018D000E81EF91E9A01DA010E94503BDC01CB019F
:1018E0008C0D9D1DAE1DBF1D8115F0E89F07A10544
:1018F000B10514F08FEF9FE7DF91CF911F910F910A
:10190000FF90EF90DF90CF9008953F924F925F92BB
:101910006F927F928F929F92AF92BF92CF92DF92FF
:10192000EF92FF920F931F93CF93DF93B090F81332
:10193000B11006C08FEFFB01808381838283B3C027
:10194000EA016B017C01082FAF2CBC0189EF93E108
:1019500098DF99838883F1E0FB1510F50F2EF2E0F4
:101960008F2EF4E19F2EF02D11E0312C602F7A2D77
:10197000C40187DF2C01612C712C4881598160E002
:1019800070E044165506660677061CF49983888332
:10199000312E1F5F89E0880E911CB112E7CF01C084
:1019A000312C2881398180910602909107022817F5
:1019B000390718F4F601308203C08FEFF6018083F7
:1019C0004701F3E08F0E911CB4018CEF93E159DFD6
:1019D0009B838A8381E08B15E8F405E014E1AA2457
:1019E000A394312CB401C8014CDF2C01612C712C63
:1019F0004A815B8160E070E0441655066606770612
:101A00001CF49B838A833A2CA394075F1F4FBA1060
:101A1000E9CF01C0312C2A813B818091080290914D
:101A200009022817390718F4F601318203C08FEF35
:101A3000F6018183F6E0EF0EF11CB7018FEF93E121
:101A400020DF9D838C8381E08B15E8F408E014E1AE
:101A5000AA24A394912CB701C80113DF2C01612C97
:101A6000712C4C815D8160E070E04416550666067D
:101A700077061CF49D838C839A2CA394075F1F4FD9
:101A8000BA10E9CF01C0912C2C813D8180910A02CE
:101A900090910B022817390718F4F601928203C0BF
:101AA0008FEFF6018283DF91CF911F910F91FF900D
:101AB000EF90DF90CF90BF90AF909F908F907F90EE
:101AC0006F905F904F903F9008951F920F920FB6C6
:101AD0000F9211240BB60F922F933F934F935F9366
:101AE0006F937F938F939F93AF93BF93CF93DF9326
:101AF000EF93FF93E1E9F0E080818B7F808315BC59
:101B00008091F51390E08A30910508F025C2FC0120
:101B10008827EE58FF4F8F4F0C94483B80E001DD43
:101B200080E00ADD81E08093F51316C28091F21304
:101B3000811102C086B501C08FEF8093DD1383E071
:101B4000FBDC82E08093F51307C28091F2138111D0
:101B500002C086B501C08FEF8093DE1381E0ECDC1C
:101B600083E08093F513F8C18091F213811102C0D4
:101B700086B501C08FEF8093DF138091F31381113D
:101B80005CC0CDEDD3E18091F81390E09C01220F71
:101B9000331F220F331F220F331F820F931F2091F9
:101BA000F6133091F713285F3F4F6881820F931F20
:101BB0000E941F2D8091F81390E09C01220F331F8B
:101BC000220F331F220F331F820F931F2091F61312
:101BD0003091F713275F3F4F6981820F931F0E9457
:101BE0001F2D8091F81390E09C01220F331F220FCC
:101BF000331F220F331F820F931F2091F613309152
:101C0000F713265F3F4F6A81820F931F0E941F2D9B
:101C10008091F81390E0FC01EE0FFF1FEE0FFF1F05
:101C2000EE0FFF1F8E0F9F1FFC01E750FC4E8881B7
:101C30009981AA8180839183A28381E072DC80E014
:101C40007BDC8091F5138F5F8093F51385C18091C4
:101C5000F213811102C086B501C08FEF8093E013AB
:101C600083E06ADC85E08093F51376C18091F213FE
:101C7000811102C086B501C08FEF8093E11381E02E
:101C80005BDC86E08093F51367C18091F2138111CC
:101C900002C086B501C08FEF8093E2138091F313E9
:101CA00081115BC0CDEDD3E18091F81390E09C01F0
:101CB000220F331F220F331F220F331F820F931F58
:101CC0002091F6133091F713255F3F4F6B81820F00
:101CD000931F0E941F2D8091F81390E09C01220F0A
:101CE000331F220F331F220F331F820F931F2091A8
:101CF000F6133091F713245F3F4F6C81820F931FCF
:101D00000E941F2D8091F6139091F7130D9620914C
:101D1000F81330E0A901440F551F440F551F440F1D
:101D2000551F240F351F6D81820F931F0E941F2D99
:101D30008091F81390E0FC01EE0FFF1FEE0FFF1FE4
:101D4000EE0FFF1F8E0F9F1FFC01E750FC4E8B8193
:101D50009C81AD8183839483A58382E0E2DB80E074
:101D6000EBDB8091F5138F5F8093F513F5C08091C5
:101D7000F213811102C086B501C08FEF8093E31387
:101D800083E0DADB88E08093F513E6C08091F213FC
:101D9000811102C086B501C08FEF8093E41381E00A
:101DA000CBDB89E08093F513D7C08091F2138111CA
:101DB00002C086B501C08FEF8093E5138091F313C5
:101DC000811173C0CDEDD3E18091F81390E09C01B7
:101DD000220F331F220F331F220F331F820F931F37
:101DE0002091F6133091F713225F3F4F6E81820FDF
:101DF000931F0E941F2D8091F81390E09C01220FE9
:101E0000331F220F331F220F331F820F931F209186
:101E1000F6133091F713215F3F4F6F81820F931FAD
:101E20000E941F2D8091F81390E09C01220F331F18
:101E3000220F331F220F331F820F931F2091F6139F
:101E40003091F713205F3F4F6885820F931F0E94E8
:101E50001F2D6091F813862F90E0FC01EE0FFF1FFD
:101E6000EE0FFF1FEE0FFF1F8E0F9F1FFC01E750AD
:101E7000FC4E8E819F81A88586839783A0876F5FA4
:101E80006093F8138091F6139091F7130E941F2D21
:101E9000E091EE13F091EF13309709F456C0809162
:101EA000F813BE018150199550C044ED53E16AED1D
:101EB00073E18DED93E129DD8091DA138F3F41F0DD
:101EC00090910C02891731F080930C02C1E003C09D
:101ED000C0E001C0C0E08091DB138F3F39F09091EA
:101EE0000D02891719F080930D02C1E08091DC1377
:101EF0008F3F69F090910E02891749F080930E028E
:101F0000E091EC13F091ED13309741F411C0E091A2
:101F1000EC13F091ED13309711F408C0C1E044EDDB
:101F200053E16CE072E08DED93E11995CC2369F0FB
:101F3000E091EA13F091EB13309739F044ED53E15F
:101F40006CE072E08DED93E119958091F5138F5F50
:101F50008093F513169811C01092F2131092950009
:101F60001092940016BC8FEF85BB88BBE1E9F0E0CE
:101F700080818460808387E085BDFF91EF91DF9150
:101F8000CF91BF91AF919F918F917F916F915F9111
:101F90004F913F912F910F900BBE0F900FBE0F905E
:101FA0001F9018951F920F920FB60F9211248F93C6
:101FB0008091F2138F5F8093F2138F910F900FBE79
:101FC0000F901F901895CF93C0914114C11105C077
:101FD0008AEB98E00E94D83221C02091F813283073
:101FE000E0F49093EF138093EE1380E09ADA80E0B0
:101FF000A3DA1092F3131092F513169A109295002B
:1020000010929400E1E9F0E080818460808316BC46
:1020100087E085BD7894C1E001C0C0E08C2FCF91EE
:102020000895CF93DF93EC0180914114811105C095
:1020300081EE98E00E94D83226C0C436D10510F453
:10204000C4E6D0E01092E9131092E8137093E713FE
:102050006093E613D093F113C093F0138091F413BF
:1020600081110E9482318FEF80930C02BE0188EBB8
:1020700091E10E9408318093F413811104C086E13C
:1020800099E00E94D832DF91CF9108958091411458
:10209000811105C088E599E00C94D83208958091AB
:1020A000F413882321F00E9482311092F4130895D2
:1020B0009C0190914114911105C08CE899E00C9419
:1020C000D83208953093ED132093EC137093EB13F3
:1020D0006093EA1380E025DA80E02EDA81E08093D5
:1020E000F3131092F513169A109295001092940023
:1020F000E1E9F0E080818460808316BC87E085BDE3
:10210000789408950F931F93CF93DF93D82FC091A6
:102110004114C11105C08EEA99E00E94D83222C153
:10212000623609F460C028F4603651F0613699F1E6
:1021300018C1633609F4CCC0643609F46EC011C10D
:102140004130D9F40E943104863A59F01F9283E05D
:102150008F93DF930E943F040F900F900F90C1E088
:1021600001C17CDB1F9280E68F93DF930E943F04C6
:102170000F900F900F90C1E0F5C0642F0E943004C3
:102180001F9281E08F93DF930E943F040F900F9086
:102190000F90C1E0E7C04130C1F40E943104863A9B
:1021A00059F01F9283E08F93DF930E943F040F90BA
:1021B0000F900F90C1E0D6C061E68D2F0E947E0483
:1021C00088E09BE000DFC1E0CDC0642F0E943004B6
:1021D0001F9281E08F93DF930E943F040F900F9036
:1021E0000F90C1E0BFC041110AC062E60E947E04A8
:1021F00060E070E086E19BE05BDFC1E0B3C0642F8C
:102200000E9430041F9281E08F93DF930E943F046D
:102210000F900F900F90C1E0A5C0413009F04AC067
:102220000E9431049091F813891758F01F9283E0AF
:102230008F93DF930E943F040F900F900F90C1E0A7
:1022400091C090E0FC01EE0FFF1FEE0FFF1FEE0F9D
:10225000FF1F8E0F9F1FFC01E750FC4E80851F92D1
:102260008F9387811F928F9386811F928F93858191
:102270001F928F9384811F928F9383811F928F93DC
:1022800082811F928F9381811F928F9380811F92F1
:102290008F9389E08F9384E68F93DF930E943F04AE
:1022A0008DB79EB745960FB6F8949EBF0FBE8DBFF3
:1022B000C1E058C0642F0E9430041F9281E08F93C8
:1022C000DF930E943F040F900F900F90C1E04AC02F
:1022D0004230C9F50E943104082F10E0102F00276A
:1022E0008D2F0E943104082B0E945530BC01C8017B
:1022F0000E94E33A892B59F01F9283E08F93DF937A
:102300000E943F040F900F900F90C1E02BC0BEDEE3
:102310000115110571F483E60E94F4041F9286E012
:102320008F93DF930E943F040F900F900F90C1E0B6
:1023300019C063E68D2F0E947E0467EA7AE0C80127
:1023400070DEC1E00FC0642F0E9430041F9281E054
:102350008F93DF930E943F040F900F900F90C1E086
:1023600001C0C0E08C2FDF91CF911F910F91089594
:102370006091E6137091E7138091E8139091E9134F
:1023800097DE8091F0139091F1130895CF93AC01F3
:102390008935910598F091E09F5F292F30E0F90190
:1023A000EE0FFF1FE20FF31FE554F54F60817181BF
:1023B0006417750788F3913049F404C068E570E04C
:1023C00021E030E04C33510508F47DC0F90131972C
:1023D000CF01880F991FE80FF91FE554F54FA08131
:1023E000B181C281F901EE0FFF1F2E0F3F1FF901CE
:1023F000E554F54F228130E02C1B31094A1B5B0B61
:10240000249FC001259F900D349F900D11246A1BBD
:102410007B0B0E94F73A6C0F57C0EDE4F4E169C002
:1024200081E080934914608380914C148F5F809386
:102430004C1480914C14843008F580914B142091F9
:102440004C1490E002C0959587952A95E2F780FD9F
:1024500015C080914C148F5F80934C1480914C1464
:10246000843060F480914B1420914C1490E002C0B1
:10247000959587952A95E2F780FFEBCF80914C14D4
:10248000843038F460914C1481E00E94452C81E046
:1024900037C0E0914514F0914614309719F08DE45F
:1024A00094E1199580914914882351F1E0914314E6
:1024B000F0914414309729F08DE494E1199580E06F
:1024C0001FC080E01DC06FEF262F30E080914C14BC
:1024D000813039F048F0823051F0833009F49DCFDB
:1024E000A3CFEEE4F4E105C0EFE4F4E102C0E0E5DF
:1024F000F4E1808190E08217930709F091CF94CFA7
:10250000CF91089510924C1480914C14843008F5AA
:1025100080914B1420914C1490E002C095958795C2
:102520002A95E2F780FD15C080914C148F5F80934F
:102530004C1480914C14843060F480914B142091A1
:102540004C1490E002C0959587952A95E2F780FF9C
:10255000EBCF80914C14843068F4109249140E949F
:10256000412C60914C1481E00E94452C86EC91E155
:102570000E949A2C8091471490914814089580915C
:102580004214811109C081E08093421480B3807F9E
:1025900080BB81B3807F81BB089580914A148823DA
:1025A00031F080914A140E94823110924A140895A9
:1025B0000F931F93CF93C82F8B01809142148111E9
:1025C00005C086ED99E00E94D8323FC0E6DF109347
:1025D000461400934514C295CF70C0934B141092CB
:1025E0004C1480914C14843008F580914B14209148
:1025F0004C1490E002C0959587952A95E2F780FDEE
:1026000015C080914C148F5F80934C1480914C14B2
:10261000843060F480914B1420914C1490E002C0FF
:10262000959587952A95E2F780FFEBCF80914C1422
:10263000843058F40E94412C60914C1481E00E9437
:10264000452C86EC91E10E949A2CCF911F910F911D
:102650000895CF93DF93EB0190914214911105C03F
:102660008AE09AE00E94D83228C0982F907F29F4FF
:1026700081E49AE00E94D83220C082958F708093C6
:102680004B141092461410924514509344144093E6
:10269000431470934814609347147FDFBE0182E8AF
:1026A00092E10E94083180934A1480914A1481116A
:1026B00004C088E79AE00E94D832DF91CF91089554
:1026C000EF920F93CF938091511481112BC081E031
:1026D000809351148091521490915314009711F0EB
:1026E0000E94843461E08BE00E9453349093531431
:1026F00080935214C0E0E12C00E020E040E06C2F19
:1027000080915214909153140E948F34CF5FCB303C
:1027100091F747E065E270E0809152149091531474
:102720000E948634CF910F91EF900895EF920F930E
:1027300090915114911105C085EE9AE00E94D83213
:102740000DC08B3058F4E22E042F262F40E0682F66
:1027500080915214909153140E948F340F91EF90F6
:10276000089580915114811105C08DE09BE00C9477
:10277000D832089547E065E270E08091521490915C
:1027800053140E9486348FE19EE40197F1F700C054
:1027900000000895EF920F9390915114911105C08C
:1027A00080E39BE00E94D8320EC08B3058F4E22EBA
:1027B000042F262F40E0682F8091521490915314DB
:1027C0000E948F34CEDF0F91EF9008950F931F93E7
:1027D000CF93DF93D82FC0915114C11105C084E568
:1027E0009BE00E94D8323EC06034D9F5443059F5A0
:1027F0000E943104C82F8D2F0E943104182F8D2F75
:102800000E943104082F8D2F0E943104CB3058F0E4
:102810001F9283E08F93DF930E943F040F900F90ED
:102820000F90C1E01FC0282F402F612F8C2FB2DFE7
:102830001F9280E48F93DF930E943F040F900F90CC
:102840000F90C1E00FC0642F0E9430041F9281E0FE
:102850008F93DF930E943F040F900F900F90C1E081
:1028600001C0C0E08C2FDF91CF911F910F9108958F
:1028700081E00895AB01BC01DB01CA01689412F844
:10288000B695A795979587951694D1F701978F3FA1
:10289000910509F008F445C020E02F5FE22FF0E039
:1028A000EE0FFF1FEE0FFF1FE25AF34FDB01CA01CD
:1028B000008004C0B695A795979587950A94D2F79E
:1028C00001978F3F910509F040F78093B400809302
:1028D000B3002230A1F028F4222349F0213059F02E
:1028E0001DC02430A1F078F02530A9F017C082E097
:1028F0008093B10013C083E08093B1000FC084E0E7
:102900008093B1000BC085E08093B10007C086E0E2
:102910008093B10003C087E08093B1001092B200B1
:1029200008958093B4008093B300E1CFCF93DF93F9
:10293000E5E5F4E181858F5F81879081911105C084
:1029400090915D1489130BC002C0891308C0E1EB9C
:10295000F0E08081887F8083C2E3D0E076C09091F0
:102960005D14981708F06FC0A5E5B4E113968D913A
:102970009C911497019614969C938E931397FC0147
:10298000EE0FFF1FEE0FFF1F8E0F9F1F1196ED9191
:10299000FC911297E80FF91FC081D1812097B1F403
:1029A000E0915A14F0915B14309741F01995882307
:1029B00029F0109259141092581408C010925C1407
:1029C000E1EBF0E08081887F80833FC0A5E5B4E142
:1029D00013968D919C911497FC01EE0FFF1FEE0F43
:1029E000FF1F8E0F9F1F1196ED91FC911297E80F1C
:1029F000F91F608171816130710531F4E1EBF0E024
:102A00008081887F808303C080E090E033DFA5E58C
:102A1000B4E113968D919C911497FC01EE0FFF1F6A
:102A2000EE0FFF1F8E0F9F1F1196ED91FC911297D5
:102A3000E80FF91F828118968C93189719961C92AB
:102A4000C2E3D0E002C0C2E3D0E0CE01DF91CF917B
:102A500008951F920F920FB60F9211240BB60F928A
:102A60008F939F93AF93BF93EF93FF9380915F14E6
:102A7000853609F468C2E2E0F1E0908180E48927BC
:102A8000808380915F1490E08536910508F05BC2E9
:102A9000FC018827E458FF4F8F4F0C94483B8FE888
:102AA00091E00197F1F700C0000047C28BE891E088
:102AB0000197F1F700C0000040C287E891E001975C
:102AC000F1F700C0000039C283E891E00197F1F707
:102AD00000C0000032C28FE791E00197F1F700C01B
:102AE00000002BC28BE791E00197F1F700C00000D6
:102AF00024C287E791E00197F1F700C000001DC2F2
:102B000083E791E00197F1F700C0000016C28FE65D
:102B100091E00197F1F700C000000FC28BE691E051
:102B20000197F1F700C0000008C287E691E0019725
:102B3000F1F700C0000001C283E691E00197F1F7D0
:102B400000C00000FAC18FE591E00197F1F700C0E5
:102B50000000F3C18BE591E00197F1F700C00000A0
:102B6000ECC187E591E00197F1F700C00000E5C1F5
:102B700083E591E00197F1F700C00000DEC18FE42A
:102B800091E00197F1F700C00000D7C18BE491E01C
:102B90000197F1F700C00000D0C187E491E00197F0
:102BA000F1F700C00000C9C183E491E00197F1F79B
:102BB00000C00000C2C18FE391E00197F1F700C0AF
:102BC0000000BBC18BE391E00197F1F700C000006A
:102BD000B4C187E391E00197F1F700C00000ADC1F7
:102BE00083E391E00197F1F700C00000A6C18FE2F6
:102BF00091E00197F1F700C000009FC18BE291E0E6
:102C00000197F1F700C0000098C187E291E00197B9
:102C1000F1F700C0000091C183E291E00197F1F764
:102C200000C000008AC18FE191E00197F1F700C078
:102C3000000083C18BE191E00197F1F700C0000033
:102C40007CC187E191E00197F1F700C0000075C1F8
:102C500083E191E00197F1F700C000006EC18FE0C1
:102C600091E00197F1F700C0000067C18BE091E0AF
:102C70000197F1F700C0000060C187E091E0019783
:102C8000F1F700C0000059C183E091E00197F1F72E
:102C900000C0000052C18FEF90E00197F1F700C033
:102CA00000004BC18BEF90E00197F1F700C00000EE
:102CB00044C187EF90E00197F1F700C000003DC1EB
:102CC00083EF90E00197F1F700C0000036C18FEE6E
:102CD00090E00197F1F700C000002FC18BEE90E06B
:102CE0000197F1F700C0000028C187EE90E001973E
:102CF000F1F700C0000021C183EE90E00197F1F7E9
:102D000000C000001AC18FED90E00197F1F700C0FC
:102D1000000013C18BED90E00197F1F700C00000B7
:102D20000CC187ED90E00197F1F700C0000005C1EC
:102D300083ED90E00197F1F700C00000FEC08FEC3A
:102D400090E00197F1F700C00000F7C08BEC90E035
:102D50000197F1F700C00000F0C087EC90E0019708
:102D6000F1F700C00000E9C083EC90E00197F1F7B3
:102D700000C00000E2C08FEB90E00197F1F700C0C7
:102D80000000DBC09AEF9A95F1F700C0D6C085EF3E
:102D90008A95F1F70000D1C090EF9A95F1F7CDC078
:102DA0008AEE8A95F1F700C0C8C095EE9A95F1F7C2
:102DB0000000C3C080EE8A95F1F7BFC09AED9A95E6
:102DC000F1F700C0BAC085ED8A95F1F70000B5C0F3
:102DD00090ED9A95F1F7B1C08AEC8A95F1F700C0B1
:102DE000ACC095EC9A95F1F70000A7C080EC8A95ED
:102DF000F1F7A3C09AEB9A95F1F700C09EC085EB5E
:102E00008A95F1F7000099C090EB9A95F1F795C07B
:102E10008AEA8A95F1F700C090C095EA9A95F1F791
:102E200000008BC080EA8A95F1F787C09AE99A95ED
:102E3000F1F700C082C085E98A95F1F700007DC0F6
:102E400090E99A95F1F779C08AE88A95F1F700C080
:102E500074C095E89A95F1F700006FC080E88A95F4
:102E6000F1F76BC09AE79A95F1F700C066C085E765
:102E70008A95F1F7000061C090E79A95F1F75DC07F
:102E80008AE68A95F1F700C058C095E69A95F1F761
:102E9000000053C080E68A95F1F74FC09AE59A95F5
:102EA000F1F700C04AC085E58A95F1F7000045C0FA
:102EB00090E59A95F1F741C08AE48A95F1F700C050
:102EC0003CC095E49A95F1F7000037C080E48A95FC
:102ED000F1F733C09AE39A95F1F700C02EC085E36D
:102EE0008A95F1F7000029C090E39A95F1F725C083
:102EF0008AE28A95F1F700C020C095E29A95F1F731
:102F000000001BC080E28A95F1F717C09AE19A95FC
:102F1000F1F700C012C085E18A95F1F700000DC0FD
:102F200090E19A95F1F709C08AE08A95F1F700C01F
:102F300004C095E09A95F1F70000E2E0F1E090819D
:102F400080E489278083FF91EF91BF91AF919F919A
:102F50008F910F900BBE0F900FBE0F901F90189582
:102F600080915414811111C081E080935414E1E0E8
:102F7000F1E080818064808382E08093B0001092D1
:102F8000B10084E08093700078940895FC01208162
:102F900030E0322F22278181A901480F511DFB010A
:102FA000518340830895CF92DF92EF92FF926B019D
:102FB0007C0180915414811105C08EE79BE00E9432
:102FC000D83208C080915C1481110E940632C7017A
:102FD000B60150DCFF90EF90DF90CF900895809184
:102FE0005414811105C080EA9BE00C94D8320895F6
:102FF000E1EBF0E08081887F808380915C14811117
:103000000C942732089580915414811105C083ECEB
:103010009BE00C94D832089580915C14882321F0B1
:103020000E94823110925C14E1EBF0E08081887F95
:1030300080830895CF92DF92FF920F931F93CF93D7
:10304000DF93EC01F62E6A0180915414811105C0C2
:1030500085EE9BE00E94D83225C0D5DF688179815A
:1030600061157105F9F005E514E1F801D283C1831A
:1030700014821382D682C582F08280E090E0FADB6F
:103080008A81F8018087118662E370E086E994E125
:103090000E940831F8018783811104C087E09CE019
:1030A0000E94D832DF91CF911F910F91FF90DF9056
:1030B000CF900895CF92DF92EF92FF920F931F93DC
:1030C000CF93DF931F921F92CDB7DEB7182FF42E48
:1030D00000915414011105C086E39CE00E94D8328F
:1030E000F5C1613509F486C030F4693469F06035A2
:1030F00009F43FC0EAC1633509F4EBC008F4CDC060
:10310000643509F451C1E1C1442321F021E04217A3
:1031100099F021C080915F141F928F9381E08F936B
:1031200089E48F931F930E943F040F900F900F909C
:103130000F900F9001E0CAC10E94310480935F1488
:103140001F9289E48F931F930E943F040F900F906A
:103150000F9001E0BBC1642F0E9430041F9281E0F8
:103160008F931F930E943F040F900F900F9001E0E8
:10317000ADC132E0431330C00E943104282F30E04B
:10318000F22EEE24812F0E9431049701282B211565
:103190003105B1F040E050E060E074E284EF90E08F
:1031A0000E942C3BCA01B901FEDE1F9283E08F937F
:1031B0001F930E943F040F900F900F9001E086C173
:1031C0000EDF1F9280E58F931F930E943F040F90A4
:1031D0000F900F9001E07AC1642F0E9430041F927B
:1031E00081E08F931F930E943F040F900F900F90E8
:1031F00001E06CC143E0F41242C00E943104082F88
:10320000812F0E943104F82E812F0E9431040E304C
:1032100028F45AE05F1510F0823058F01F9283E0D6
:103220008F931F930E943F040F900F900F9001E027
:103230004DC1023039F0033041F0013049F420E84B
:103240003CE008C02FE83CE005C02FE032E002C0BF
:1032500026E73CE0813019F040E050E002C048E34E
:1032600054E16F2DC901E6DE1F9281E58F931F9314
:103270000E943F040F900F900F9001E027C16F2D27
:103280000E9430041F9281E08F931F930E943F049D
:103290000F900F900F9001E019C141110CC0B3DEE7
:1032A0001F9282E58F931F930E943F040F900F900F
:1032B0000F9001E00BC1642F0E9430041F9281E047
:1032C0008F931F930E943F040F900F900F9001E087
:1032D000FDC0442361F08DEC489F812D112486951B
:1032E0008695982F990F990F890F481779F06F2DB0
:1032F000812F0E9430041F9281E08F931F930E94C0
:103300003F040F900F900F9001E0E0C01F9283E503
:103310008F931F930E943F0419821A828DECF89EAE
:10332000812D1124869586950F900F900F90D1F1E5
:103330000F2EFFE0EF2EF2E0FF2EF02D815090E0F7
:1033400001966C01CC0CDD1CCC0CDD1C8C0D9D1D84
:10335000FC01E15FFD4F6F01A895812F0E943104B0
:103360008983812F0E9431048A83B701CE0101969F
:103370000DDE812F0E9431048983812F0E94310448
:103380008A83B7016E5F7F4FCE010196FFDD812FEB
:103390000E943104F7018483F5E0EF0EF11CCE1496
:1033A000DF04D1F601E092C0442361F08DEC489F28
:1033B000812D112486958695982F990F990F890F45
:1033C000481779F06F2D812F0E9430041F9281E001
:1033D0008F931F930E943F040F900F900F9001E076
:1033E00075C01F9284E58F931F930E943F0419823A
:1033F0001A828DECF89EC12C1124C694C6940F90AD
:103400000F900F9080910F0290911002892B91F0F4
:1034100020E02F5F822F90E0FC01EE0FFF1FEE0FE8
:10342000FF1FE80FF91FE15FFD4F40815181452BE0
:1034300081F702C080E090E0CC2009F444C07C0118
:10344000EE0CFF1CEE0CFF1C9701280F391FA90181
:10345000415F5D4F7A01CA94D12C5FEFC51AD50A3E
:103460008C0D9D1D6C01CC0CDD1CCC0CDD1C8C0D61
:103470009D1DFC01E15FFD4F6F01A895812F0E940A
:1034800031048983812F0E9431048A83B701CE01E0
:1034900001967CDD812F0E9431048983812F0E9457
:1034A00031048A83B7016E5F7F4FCE0101966EDDD6
:1034B000812F0E943104F7018483F5E0EF0EF11CA7
:1034C000EC14FD04D1F601E001C000E0802F0F9064
:1034D0000F90DF91CF911F910F91FF90EF90DF90B0
:1034E000CF90089580919914811126C0E8E2F1E00F
:1034F000808191819695879591838083AAE2B1E03E
:103500008D919C9111979695879511969C938E938A
:1035100080819181C29720F4109229011092280194
:1035200080912A0190912B01C29708F09EC01092C1
:103530002B0110922A0199C08091981488232CF0B5
:10354000209194143091951404C0209196143091D8
:10355000971410929514109294141092971410923C
:10356000961480919914880F990B821B930B9C01E0
:1035700012F42D5F3F4FF901F595E795F595E79525
:1035800080911107882379F180919214909193147E
:103590006091901470919114209190143091911435
:1035A000232B19F00E94E33A02C06AE070E0809198
:1035B000280190912901E69F9001E79F300DF69F29
:1035C000300D1124820F931F992314F480E090E0B2
:1035D000893E23E0920714F088EE93E0909329014E
:1035E0008093280106C088EE93E090932901809390
:1035F000280180911107882391F180919014909176
:1036000091148091921490919314809192149091BE
:10361000931420912A0130912B01409190145091E4
:1036200091146091921470919314E49FC001E59FEE
:10363000900DF49F900D11240E94E33A620F731FC6
:10364000772314F460E070E0693E83E0780714F0BB
:1036500068EE73E070932B0160932A0106C088EE38
:1036600093E090932B0180932A0184E690E00895E3
:103670001F9283E18F930E94930483E10E94F404DC
:103680000F900F9008951F9284E18F930E949304EE
:1036900084E10E94F4040F900F9008959CE4980F29
:1036A000923388F4682F90E09093100780930F076F
:1036B00080E090E00E941F2D60E081E090E00E9499
:1036C0001F2D81E0089580E00895CF93DF93E901F5
:1036D00016161706180619067CF4EBE0F1E02081B7
:1036E0002260208320812F7D208320812160208300
:1036F00020812B7F208315C0EBE0F1E02081206248
:10370000208320812D7F20832081246020832081BD
:103710002E7F208390958095709561957F4F8F4F78
:103720009F4F40939914A0910F07B09110079B01F0
:10373000AC010E946B3B27E330E040E050E00E9488
:103740002C3B20938C1430938D1440938E14509303
:103750008F14109288141092891410928A14109267
:103760008B14D0937B14C0937A14DF91CF9108957A
:10377000CF9380919A1481115BC081E080939A1459
:1037800080E090E00E94272DC82F81E090E00E9409
:10379000272D8C2B90E09093100780930F0780913A
:1037A0000F0790911007843B910538F080910F0727
:1037B00090911007863E910530F089ED90E090934E
:1037C000100780930F07EBE0F1E08081807C80831D
:1037D000EAE0F1E080818F638083109229011092EA
:1037E000280110922B0110922A0182EA8093200175
:1037F0008CE18093210188EE93E0909327018093E0
:103800002601EAE6F0E080818160808380818D7FFF
:103810008083EC9A8081846080838081877F80832D
:10382000ED9A64E670E082E79AE10E9408317894AC
:10383000CF91089585360CF084E68C390CF48CE930
:103840001816E4F427E68202212D112425952595EA
:1038500087FD2395022E000C330BA901465F5F4FB5
:1038600050939114409390144AE050E0BA01621BC7
:10387000730B70939314609392141BC027E682021B
:10388000212D11242595259587FD2395022E000CC9
:10389000330BA901465F5F4F5093911440939014EE
:1038A0004AE050E0BA01621B730B7093931460936B
:1038B000921480939814089510928C1410928D1481
:1038C00010928E1410928F1485360CF084E68C3989
:1038D0000CF48CE9909199149817E1F118167CF486
:1038E000EBE0F1E090819260908390819F7D9083E6
:1038F00090819460908390819E7F908328C08823DC
:1039000084F4EBE0F1E090819062908390819D7F60
:10391000908390819160908390819B7F908381952B
:1039200016C090911107992391F0EBE0F1E020810E
:1039300091E092279083208192E0922790832081CA
:1039400094E092279083208190E292279083809345
:103950009914C8CD0895CF92DF92EF92FF920F9302
:103960001F93CF93DF9310921107A895E8E0F1E041
:10397000808180618083749A808180628083759A5F
:10398000EAE6F0E0808181608083808182608083CC
:10399000EC9A80818B7F8083808188608083ED9A20
:1039A00078941092871410928614109285141092B5
:1039B0008414109283141092821410928114109225
:1039C000801410927F1410927E1410927D14109225
:1039D0007C14A89584E670DFA8952FEF83ED90E323
:1039E000215080409040E1F700C00000A89580E0A1
:1039F00063DF2FEF89E698E1215080409040E1F7A6
:103A000000C0000051E02FEF3FEF01C05F5F4FEFBC
:103A1000450F4230B1F028F4442349F0413061F0C1
:103A200028C04430C1F090F04530D1F022C08091E0
:103A3000861490918714C2C080918414909185144B
:103A4000BDC08091821490918314B8C0809180147D
:103A500090918114B3C080917E1490917F14AEC078
:103A600080917C1490917D1490936D1480936C14CC
:103A700014C0E42FE695F0E040FBEE24E0F8F12CD2
:103A8000EE0FFF1FEE0DFF1DEE0FFF1FEE59FB4E59
:103A900031832083563009F0B9CF109287141092E9
:103AA000861410928514109284141092831410922C
:103AB0008214109281141092801410927F1410922C
:103AC0007E1410927D1410927C14A8958CE9F4DE7B
:103AD0002FEF83ED90E3215080409040E1F700C04C
:103AE0000000A89591E04FEF5FEF01C09F5F8FEF5F
:103AF000890F8230B1F028F4882349F0813061F0D9
:103B000028C08430C1F090F08530D1F022C02091DF
:103B100086143091871464C02091841430918514E8
:103B20005FC020918214309183145AC02091801478
:103B30003091811455C020917E1430917F1450C073
:103B400080917C1490917D149093791480937814D3
:103B500014C0E82FE695F0E08170C82F20E0D22F46
:103B6000EE0FFF1FEC0FFD1FEE0FFF1FE259FB4E84
:103B700051834083963009F0B9CF80E09DDEA8954F
:103B80008FEF90E722E0815090402040E1F700C0A5
:103B9000000081E080931107EAE6F0E08081816017
:103BA000808380818D7F8083EC9A80818460808394
:103BB0008081877F8083ED9AA89523C0E42FE695C6
:103BC000F0E040FBCC24C0F8D12CEE0FFF1FEC0D31
:103BD000FD1DEE0FFF1FEE59FB4E9183808316CF24
:103BE000E82FE695F0E0082F017010E0EE0FFF1FC0
:103BF000E00FF11FEE0FFF1FE259FB4E31832083D0
:103C000075CFDF91CF911F910F91FF90EF90DF90D3
:103C1000CF9008950F931F93CF93DF938C01862F3E
:103C2000EA014ADE40910F07509110079801A4ED78
:103C3000B1E00E94563B9A0140E050E00E940A3BEE
:103C400020938C1430938D1440938E1450938F14C2
:103C5000109288141092891410928A1410928B1466
:103C6000D0937B14C0937A14DF91CF911F910F9161
:103C700008951F920F920FB60F9211240BB60F9258
:103C80002F933F934F935F936F937F938F939F9364
:103C9000AF93BF93EF93FF938091060185FF0AC016
:103CA0008091821490918314019690938314809351
:103CB000821409C080918614909187140196909384
:103CC00087148093861480917E1490917F140196BE
:103CD00090937F1480937E1480911107882309F4B8
:103CE00078C0209192143091931480919014909107
:103CF000911428173907E8F180918C1490918D1454
:103D0000A0918E14B0918F14892B8A2B8B2B89F163
:103D10008091881490918914A0918A14B0918B1489
:103D20000196A11DB11D8093881490938914A093CE
:103D30008A14B0938B144091881450918914609127
:103D40008A1470918B1480918C1490918D14A09191
:103D50008E14B0918F1484179507A607B70748F4FF
:103D6000E0917A14F0917B14309709F0199580E076
:103D7000A3DD8091961490919714019690939714D7
:103D80008093961480919914882319F1809161147D
:103D90008F5F80936114209192143091931490E07E
:103DA00082179307B0F010926114809128019091CE
:103DB00029010B9738F0E8E2F1E0808191810A97C0
:103DC00091838083EAE2F1E0808191810A96918378
:103DD0008083FF91EF91BF91AF919F918F917F91E0
:103DE0006F915F914F913F912F910F900BBE0F906C
:103DF0000FBE0F901F9018951F920F920FB60F9243
:103E000011240BB60F922F933F934F935F936F93B1
:103E10007F938F939F93AF93BF93EF93FF93809183
:103E20007C1490917D14019690937D1480937C1462
:103E30008091060184FF0AC08091801490918114C2
:103E40000196909381148093801409C0809184140A
:103E50009091851401969093851480938414809199
:103E60001107882309F478C020919214309193149B
:103E7000809190149091911428173907E8F580915A
:103E80008C1490918D14A0918E14B0918F14892B65
:103E90008A2B8B2B89F18091881490918914A091A1
:103EA0008A14B0918B140196A11DB11D80938814C2
:103EB00090938914A0938A14B0938B144091881422
:103EC0005091891460918A1470918B1480918C1494
:103ED00090918D14A0918E14B0918F148417950732
:103EE000A607B70748F4E0917A14F0917B14309755
:103EF00009F0199580E0E0DC80919414909195147C
:103F0000019690939514809394148091991488232A
:103F100019F1809160148F5F809360142091901448
:103F20003091911490E082179307B0F010926014D2
:103F300080912A0190912B010B9738F0EAE2F1E091
:103F4000808191810A9791838083E8E2F1E080810A
:103F500091810A9691838083FF91EF91BF91AF91F8
:103F60009F918F917F916F915F914F913F912F9191
:103F70000F900BBE0F900FBE0F901F901895CF9310
:103F8000C82F862F57DC8C2F97DCCF910895CF92C6
:103F9000DF92FF920F931F93CF93DF93CDB7DEB7DE
:103FA00068970FB6F894DEBF0FBECDBF082F1091F3
:103FB0009A14111105C08CE09DE00E94D8322CC2E9
:103FC000862F90E0FC017097E833F10508F021C2DC
:103FD0008827EF51FF4F8F4F0C94483B41111BC274
:103FE000E2E6F4E180819181A0E0B0E089839A83E8
:103FF000AB83BC8384819581A0E0B0E08B839C83FC
:10400000AD83BE8380859185A0E0B0E08D839E83E3
:10401000AF83B88720E030E083E0F901EE0FFF1FA7
:10402000EE0FFF1FEE59FB4E42815381E82FF0E067
:10403000EE0FFF1F61E070E06C0F7D1FE60FF71FB2
:1040400060E070E040835183628373838F5F2F5FF2
:104050003F4F863011F720E030E03AC0F901EE0F13
:10406000FF1FEE0FFF1FEE59FB4E46855785E82FC9
:10407000F0E0EE0FFF1F61E070E06C0F7D1FE60FB8
:10408000F71F60E070E040835183628373838F5F2A
:104090002F5F3F4F8C3011F71F9288E18F931F9253
:1040A00086E48F9382E08F930F930E946D038E01BD
:1040B0000F5F1F4F6E0179E1C70ED11C0F900F905B
:1040C0000F900F900F900F906894FF24F1F821C08B
:1040D000F901EE0FFF1FEE0FFF1FE259FB4E40816B
:1040E0005181E82FF0E0EE0FFF1F61E070E06C0FF0
:1040F0007D1FE60FF71F60E070E04083518362830D
:1041000073838F5F2F5F3F4F893011F720E030E0DE
:10411000A5CFF801819191918F019C0133273F93A5
:104120002F931F929F93FF921F920E946D030F90F7
:104130000F900F900F900F900F900C151D0549F7E1
:1041400011E06AC141110CC01F9287E48F930F9355
:104150000E943F0400DC0F900F900F9011E05CC1B3
:10416000413029F4802F0E94310411E055C1642FA1
:10417000802F0E9430041F9281E08F930F930E9442
:104180003F040F900F900F9011E046C1423041F56F
:10419000802F0E943104182F802F0E94310494E652
:1041A000910F993C90F48C3984F0853674F4682F23
:1041B000812FE5DE1F9280E18F930F930E943F04D1
:1041C0000F900F900F9011E027C11F9283E08F9303
:1041D0000F930E943F040F900F900F9011E01CC1AD
:1041E000642F802F0E9430041F9281E08F930F93E1
:1041F0000E943F040F900F900F9011E00DC14130CD
:10420000F1F4802F0E94310494E6980F993C60F4F9
:1042100053DB1F9281E18F930F930E943F040F9015
:104220000F900F9011E0F8C01F9283E08F930F93CF
:104230000E943F040F900F900F9011E0EDC0642F8B
:10424000802F0E9430041F9281E08F930F930E9471
:104250003F040F900F900F9011E0DEC04130F1F459
:10426000802F0E94310494E6980F993C60F4E2DAC2
:104270001F9282E18F930F930E943F040F900F9043
:104280000F9011E0C9C01F9283E08F930F930E949B
:104290003F040F900F900F9011E0BEC0642F802F4D
:1042A0000E9430041F9281E08F930F930E943F047D
:1042B0000F900F900F9011E0AFC0433041F5802F69
:1042C0000E943104182F802F0E943104802F0E94F9
:1042D000310494E6910F993C78F4482F612F110F27
:1042E000770B880B990B28E33BE1EFD963E1802F33
:1042F0000E947E0411E090C01F9283E08F930F9381
:104300000E943F040F900F900F9011E085C0642F22
:10431000802F0E9430041F9281E08F930F930E94A0
:104320003F040F900F900F9011E076C0433031F5AD
:10433000802F0E943104182F802F0E943104F82E04
:10434000802F0E94310494E6910F993C60F490E034
:1043500043E45BE1612F9F295DDC64E1802F0E94D3
:104360007E0411E059C01F9283E08F930F930E9447
:104370003F040F900F900F9011E04EC0642F802FDC
:104380000E9430041F9281E08F930F930E943F049C
:104390000F900F900F9011E03FC0423059F5802FE1
:1043A0000E943104182F802F0E943104212F30E009
:1043B000322F2227A901482BCA019C01245B310915
:1043C0002333310560F46AD91F9285E18F930F93EF
:1043D0000E943F040F900F900F9011E01DC01F929C
:1043E00083E08F930F930E943F040F900F900F90E4
:1043F00011E012C0642F802F0E9430041F9281E0D0
:104400008F930F930E943F040F900F900F9011E035
:1044100003C010E001C011E0812F68960FB6F89438
:10442000DEBF0FBECDBFDF91CF911F910F91FF90E7
:10443000DF90CF9008956F927F929F92BF92CF921C
:10444000DF92EF92FF920F931F93CF93FC0140E016
:1044500050E0B12C992493940F2EF6EACF2EF4E17C
:10446000DF2EF02D0F2EF7EAEF2EF4E1FF2EF02DC8
:1044700008EA14E10F2EF5EA6F2EF4E17F2EF02DFD
:104480008091A41490E0042E02C0959587950A941B
:10449000E2F780FF1EC020813181ADECBCEC0E94B0
:1044A000563B9C0136952795369527953695279549
:1044B000922F413031F040F1423041F1433019F058
:1044C00008C0D60124C0D30122C0963010F02C932E
:1044D000B92C4F5F5F4F32964430510589F6E09119
:1044E000A014F091A114309719F085EA94E1199580
:1044F000BB2089F0E0919E14F0919F14309759F001
:1045000085EA94E1199507C0D70101C0D8018C91C3
:104510009813DBCFDECFCF911F910F91FF90EF90DB
:10452000DF90CF90BF909F907F906F900895809183
:10453000A4142BE132E245E062E071E00E94DA0867
:1045400080919C1490919D1408958091A2148111E2
:1045500012C081E08093A214E1E0F1E080818062EA
:104560008083E7E0F1E08081807F8083E8E0F1E014
:104570008081807F808308958091A214811105C07D
:1045800084E39DE00C94D83208958091A31488238D
:1045900031F08091A3140E9482311092A3140895E7
:1045A0000F931F93CF93C82F8B018091A214811179
:1045B00005C08AE69DE00E94D83216C0DDDF109368
:1045C000A1140093A01410929F1410929E14C093F3
:1045D000A41481E080939B142BE132E245E062E079
:1045E00071E08C2F0E94DA08CF911F910F910895EE
:1045F000CF93DF93EB019091A214911105C08EE946
:104600009DE00E94D83226C0982F9F7029F485ED36
:104610009DE00E94D8321EC08093A4141092A11471
:104620001092A01450939F1440939E1470939D1465
:1046300060939C14A1DFBE0187E992E20E940831D9
:104640008093A3148091A314811104C08CE09EE098
:104650000E94D832DF91CF9108958091120788236C
:10466000E1F020E030E041E051E0249FC001259FCF
:10467000900D349F900D112487559B4EFC01E25004
:10468000FF4F108231961082319610822F5F3F4F7C
:104690002530310551F7109212070895CF93DF931B
:1046A000D82FC62FDADFC53008F04DC06C2F70E070
:1046B00021E031E0629FC001639F900D729F900DD9
:1046C000112487559B4EFC01E250FF4F208131960B
:1046D000808128130EC081E091E0689FF001699FFE
:1046E000F00D789FF00D1124E755FA4E808181116D
:1046F0002CC021E031E0629FC001639F900D729F4A
:10470000900D112487559B4EFC01F39520812F5F5E
:1047100020833297208131E0320F3083DC01A20FF9
:10472000B11DDC9380818E3F91F481E091E0689F20
:10473000F001699FF00D789FF00D1124E955FA4EB4
:10474000108281E005C080E003C080E001C081E00C
:10475000DF91CF910895CF93C82F7FDFC53058F4F4
:1047600081E091E0C89FF001C99FF00D1124E75549
:10477000FA4E808101C080E0CF9108950F931F937E
:10478000CF93DF938C01C62FD42F403219F04530E0
:10479000E0F501C0D0E08D2FDEDF8C17C0F14D2F8A
:1047A00050E081E091E0489FF001499FF00D589F53
:1047B000F00D1124E855FA4E2081CC2351F1F80177
:1047C000C1506C2F70E06F5F7F4F600F711F30E042
:1047D000A1E0B1E04A9FC0014B9F900D5A9F900D00
:1047E0001124AC0147555B4E2E3F11F4932F01C0AD
:1047F000922F21E0290FDA01A90FB11D8C9181932D
:10480000E617F70789F781E005C080E003C080E084
:1048100001C081E0DF91CF911F910F910895CF9357
:10482000DF93C82FD62F19DFD53008F042C06D2F87
:1048300070E081E091E0689FF001699FF00D789F42
:10484000F00D1124E755FA4E80818C17A0F1CC238E
:10485000A1F181E091E0689FF001699FF00D789FE0
:10486000F00D1124E755FA4E8081882341F190E044
:1048700021E031E0629FF001639FF00D729FF00D27
:104880001124E755FB4EDF01A150BF4FF3958C91EA
:104890008F5F8C938081815080838C918E3F09F44F
:1048A0001C929F5FC91769F080818111F0CF81E070
:1048B00009C080E007C080E005C081E003C081E05E
:1048C00001C081E0DF91CF910895CF93C82FC5DE5D
:1048D00021E031E0C29FC001C39F900D1124875594
:1048E0009B4EFC01F3951082319710823197108214
:1048F00081E0CF91089521E031E0482F429FC0012F
:10490000439F900D112487559B4EFC01E250FF4FB1
:10491000108231961082319610820895FC01909198
:10492000AE1A923069F018F4913031F00895943055
:1049300059F0983069F0089582818093401B089562
:1049400081818093411B089583818093421B089548
:1049500080818093431B08959091B21A943019F08E
:10496000953061F013C095E09093B21A80958093D2
:10497000AF1A65E081E089D781E008958095809342
:10498000B01A81E08093B11A80E0089580E0089524
:104990003091AE19832F90E08C30910508F056C00D
:1049A000FC018827E75EFE4F8F4F0C94483B2FEFAA
:1049B0004FEF6FEF80E00E94CA1348C02FEF4FEF18
:1049C0006FEF832F0E94CA138091AE1920E040E060
:1049D00060E081500E94CA1339C020E040E060E0EE
:1049E00083E00E94CA138091AE192FEF4FEF6FEF53
:1049F0008D5F0E94CA138091AE1920E040E060E014
:104A00008E5F0E94CA1322C020E040E060E08AE08E
:104A10000E94CA139091AE192FEF4FEF6FEF8EE007
:104A2000891B0E94CA139091AE1920E040E060E01B
:104A30008FE0891B0E94CA1309C020E040E060E0BB
:104A400084E00E94CA1380E090E008958091AE193E
:104A50008F5F8093AE1986E990E00895E2E0F1E07F
:104A60008081877F8083E1E0F1E0808188608083BE
:104A700008C7089584E08093B21A1092B11AE2E058
:104A8000F1E080818860808364E081E0FED68CEA7A
:104A900094E22AD78091B11A8823E1F3E2E0F1E0B1
:104AA0008081877F80830895CF93DF93C82F6333FE
:104AB000D1F5413071F0642F0E9430041F9281E0E3
:104AC0008F93CF930E943F040F900F900F9081E03F
:104AD00072C00E943104D82F823061F018F4813006
:104AE00031F010C0843049F0883051F00BC0109282
:104AF000401B08C01092411B05C01092421B02C00F
:104B00001092431BD093AE1A1F9283E38F93CF93DF
:104B10000E943F046EE874E28D2F42DD0F900F90EB
:104B20000F9081E048C0643309F044C04130A1F5E2
:104B30000E943104823061F018F4813031F011C0EC
:104B4000843049F0883051F00CC08091401B14C073
:104B50008091411B11C08091421B0EC08091431B6C
:104B60000BC01F9283E08F93CF930E943F040F905E
:104B70000F900F9081E01FC01F928F9381E08F9361
:104B800084E38F93CF930E943F040F900F900F9078
:104B90000F900F9081E00FC0642F0E9430041F928D
:104BA00081E08F93CF930E943F040F900F900F905E
:104BB00081E001C080E0DF91CF910895CF93683408
:104BC00059F5642FC82F41111AC054DFEFEAFAE1FA
:104BD000918180811F929F931F928F9382E08F9388
:104BE00088E48F93CF930E943F048DB79EB70796BA
:104BF0000FB6F8949EBF0FBE8DBF81E00EC00E941D
:104C000030041F9281E08F93CF930E943F040F9056
:104C10000F900F9081E001C080E0CF9108951F9325
:104C2000CF93DF936233A1F5642FC82F411123C0C6
:104C300080E10E94200AD82F80E20E94200A182FCB
:104C400080E40E94200A110F24E0829FC0011124F9
:104C5000212F282BD22B1F92DF9381E08F9382E3A9
:104C60008F93CF930E943F040F900F900F900F905F
:104C70000F9081E00EC00E9430041F9281E08F935C
:104C8000CF930E943F040F900F900F9081E001C0DE
:104C900080E0DF91CF911F910895AF92BF92DF9294
:104CA000EF92FF920F931F93CF93DF93CDB7DEB7B1
:104CB0001D85DE847E018FE0E80EF11CDD2079F198
:104CC00000E0113081F028F01230B9F01330E9F033
:104CD00026C0570192E0A90EB11CF70180810E9405
:104CE000BA32750119C05701F2E0AF0EB11CF701DD
:104CF00080810E945B3375010FC0F7018081F2E073
:104D0000EF0EF11C0E94D33307C0F701808192E0BF
:104D1000E90EF11C0E944B340F5FD012D2CFDF910D
:104D2000CF911F910F91FF90EF90DF90BF90AF90C8
:104D30000895FF920F931F93CF93DF93683109F08B
:104D40006CC0142FD82F411157C0AFEAB9E10D90B4
:104D50000020E9F71197AF5AB941A430B10549F0E5
:104D6000A155B64E85E0EFE4FEE001900D928A95E4
:104D7000E1F7EFEAF9E101900020E9F73197EF5A06
:104D8000F941FF93EF931F9288E18F9382E08F9315
:104D9000DF9383DF0F900F900F900F900F900F9085
:104DA000C0E00FEA19E1FF24F3940FC0EC2FF0E00C
:104DB000E155F64E80811F928F93FF92DF936DDF56
:104DC000CF5F0F900F900F900F90F801019000208F
:104DD000E9F73197EF5AF9412C2F30E02E173F07B2
:104DE00029F785E0EFE4FEE0AFEAB9E101900D922A
:104DF0008A95E1F781E012C088E10E94BA3280E032
:104E00000E94BA32C0E08D2F0E9431040E94D33339
:104E1000CF5F1C13F8CF81E001C080E0DF91CF911C
:104E20001F910F91FF900895EF92FF920F931F93A0
:104E3000CF93DF93C82F162FD42F673061F4642FE0
:104E40000E9430041F921F92CF930E943F040F9044
:104E50000F900F900EC1623209F049C04230F1F458
:104E60000E943104D82F8C2F0E9431042D2F30E066
:104E7000322F2227A901480F511DCA01E8D59F935F
:104E80008F9381E08F9382E28F93CF930E943F04B0
:104E90000F900F900F900F900F90EBC04330E9F4FC
:104EA0000E943104D82F8C2F0E943104182F8C2F90
:104EB0000E943104682F70E08D2F90E0982F882792
:104EC000810F911DBCD51F9282E28F93CF930E94D8
:104ED0003F040F900F900F90CCC01F9283E08F93F0
:104EE000CF930E943F040F900F900F90C2C0693182
:104EF00009F041C0413051F01F9283E08F93CF936E
:104F00000E943F040F900F900F90B3C00E94310495
:104F1000D82F813081F40F2EFCE2EF2EFF24F39482
:104F2000F02D08EE28EE40E855E260E070E082E007
:104F30000E94B90311C0811105C082E090E00E9477
:104F40001E040AC01F9283E08F93CF930E943F04F8
:104F50000F900F900F908DC01F92DF9381E08F9381
:104F600089E18F93CF930E943F040F900F900F9091
:104F70000F900F907EC0DDDE81117BC0183029F4C8
:104F800068EE8C2F0E94300474C01731E9F41F9230
:104F900087E18F93CF930E943F045FEF80E792E019
:104FA000515080409040E1F700C0000098E088E157
:104FB0000FB6F894A895809360000FBE90936000A0
:104FC0000F900F900F90FFCF4D2F612F8C2F6CDD26
:104FD00081114FC04D2F612F8C2FF0DD811149C001
:104FE0004D2F612F8C2F1BDE811143C04D2F612F60
:104FF0008C2F0E94E61381113CC04D2F612F8C2F06
:105000000E942B38811135C04D2F612F8C2F0E94AB
:105010005A1881112EC04D2F612F8C2F0E94C71F4F
:10502000811127C04D2F612F8C2F0E94F8358111DF
:1050300020C04D2F612F8C2F95D281111AC04D2F7A
:10504000612F8C2F0E940907811113C04D2F612FF2
:105050008C2F0E94821081110CC06D2F8C2F0E940A
:1050600030041F921F92CF930E943F040F900F9025
:105070000F90DF91CF911F910F91FF90EF900895C6
:10508000CF93DF931F921F92CDB7DEB719821A829A
:105090008091D6008983BE016F5F7F4F8FEA99E1CF
:1050A0000E94963C0F900F90DF91CF910895CF937F
:1050B000DF9300D01F92CDB7DEB7CFDA85E0EFE403
:1050C000FEE0AFEAB9E101900D928A95E1F760E860
:1050D0007AE186E090E0C2D468E289E190E076D798
:1050E00084E197E20E9428050F2EFCE2EF2EFF24B8
:1050F000F394F02D04E624E640E855E260E070E029
:1051000080E00E94B90324E640E855E260E070E0E8
:1051100082E00E94B90320E042E060E875E280E0AE
:1051200090E00E946333E2EDF0E08081886080834C
:10513000E1EDF0E0808180688083FAD60E94601300
:1051400020E040E060E080E00E94CA130E94AB369D
:105150000E94B0170E94790B37D0CE0101960E94B1
:1051600078350E94B81B0E9453060E94F40976DC31
:1051700066E970E088EC94E20E9408319FE088E1E3
:105180000FB6F894A895809360000FBE90936000CE
:10519000A895FECF1F926F931F927F931F928F93BC
:1051A0001F929F931F9281E08F9385E08F9386E3F8
:1051B0008F930E9493048DB79EB70C960FB6F89408
:1051C0009EBF0FBE8DBF08950F931F93CF93DF93A4
:1051D0008091D61A811166C081E08093D61A80E052
:1051E00092E09093D51A8093D41A67E082E290E01F
:1051F000BAD48091D41A9091D51A29D48093D31A15
:10520000C3EBDAE100E010E08091D41A9091D51A56
:105210000196800F911F1BD490E0A0E0B0E0B82F62
:10522000AA279927882788839983AA83BB8380919B
:10523000D41A9091D51A0296800F911F08D44881F4
:1052400059816A817B81682B488359836A837B8378
:105250008091D41A9091D51A0396800F911FF7D39D
:10526000488159816A817B81582B488359836A839D
:105270007B838091D41A9091D51A0496800F911F48
:10528000E6D3488159816A817B81482B49935993A0
:10529000699379930C5F1F4F0032110509F0B4CF69
:1052A000F3D501C080E0DF91CF911F910F91089558
:1052B0008091D61A811105C084E59EE00C94D83205
:1052C00008958091DF1A882331F08091DF1A0E94BF
:1052D00082311092DF1A08950F931F93CF938C01A0
:1052E000C091D61AC11105C089E89EE00E94D8324B
:1052F0000DC096D5811104C093D5C82F882331F0F5
:10530000C801CFD5C1E0811101C0C0E08C2FCF9181
:105310001F910F9108950F931F93CF93DF9300D0A8
:105320001F92CDB7DEB7CE010196D6DF8823F9F004
:1053300069817A818B819C810091D71A1091D81A4A
:105340002091D91A3091DA1A06171707280739075A
:10535000B1F06093D71A7093D81A8093D91A9093AA
:10536000DA1AE091DD1AF091DE1A199508C0109250
:10537000D71A1092D81A1092D91A1092DA1A80916C
:10538000DB1A9091DC1A0F900F900F900F90DF9125
:10539000CF911F910F9108958091D61A811105C068
:1053A0008DEA9EE00C94D83208951092D31A60E0F2
:1053B0008091D41A9091D51A42C308950F931F93E8
:1053C0008B019C019091D31A992311F14091B31A4A
:1053D0005091B41A6091B51A7091B61A0417150756
:1053E0002607370769F40AC0419151916191719183
:1053F000401751076207730731F40BC080E009C002
:10540000E7EBFAE180E08F5F8913EECF8FEF01C009
:105410008FEF1F910F910895CF92DF92EF92FF923D
:10542000CF936B017C018091D61A811106C08AED61
:105430009EE00E94D8328FEF6AC0C091D31AC83064
:1054400008F062C0C701B601B9DF88230CF05EC066
:105450002C2F30E0220F331F220F331FF901ED54A0
:10546000F54EC082D182E282F3826F2D77278827A2
:1054700099274091D41A5091D51A4F5F5F4FCA01B6
:10548000820F931FDCD2B701882799272091D31A66
:105490004091D41A5091D51A4E5F5F4FCA0134E043
:1054A000239F800D911D1124CAD299278F2D7E2D07
:1054B0006D2D2091D31A4091D41A5091D51A4D5F79
:1054C0005F4FCA0134E0239F800D911D1124B7D294
:1054D0002091D31A8091D41A9091D51A04966C2DEC
:1054E00034E0239F800D911D1124A9D26091D31A1D
:1054F0006F5F6093D31A8091D41A9091D51A9FD27E
:105500008091D31A815003C08FEF01C08FEFCF91EC
:10551000FF90EF90DF90CF9008959C019091D61A64
:10552000911105C084E09FE00C94D83208957093E7
:10553000DE1A6093DD1A3093DC1A2093DB1AB8DE92
:105540006091DB1A7091DC1A8BE899E261D6809346
:10555000DF1A8091DF1A811104C08AE39FE00C9466
:10556000D8320895CF92DF92EF92FF920F931F935C
:10557000CF93DF9300D01F92CDB7DEB7082F1091E5
:10558000D61A111105C08BE79FE00E94D8325EC188
:10559000673309F48EC030F4653359F0663309F48B
:1055A00041C053C1683309F4AFC0693309F40BC17A
:1055B0004CC1411129C0CE0101968EDE8823C9F06D
:1055C00039812A819B818C811F923F931F922F9357
:1055D0001F929F931F928F9384E08F9385E38F9305
:1055E0000F930E943F040FB6F894DEBF0FBECDBFED
:1055F00009C01F9285E38F930F930E943F040F9081
:105600000F900F9011E022C1642F0E9430041F926E
:1056100081E08F930F930E943F040F900F900F90A3
:1056200011E014C14230B9F50E943104E82E802FF8
:105630000E9431048E29E82EF12C3ADEE114F104A7
:1056400071F486E30E94F4041F9286E08F930F9317
:105650000E943F040F900F900F9011E0F7C025D5E6
:10566000BC01C7010E94E33A892B59F01F9283E0E5
:105670008F930F930E943F040F900F900F9011E0B3
:10568000E5C066E3802F0E947E046AEC78E2C701E1
:1056900044DF11E0DBC0642F0E9430041F9281E0E0
:1056A0008F930F930E943F040F900F900F9011E083
:1056B000CDC04130D9F40E943104863A59F01F928E
:1056C00083E08F930F930E943F040F900F900F90F1
:1056D00011E0BCC061DE1F9287E38F930F930E949D
:1056E0003F040F900F900F9011E0B0C0642F0E9404
:1056F00030041F9281E08F930F930E943F040F901C
:105700000F900F9011E0A2C0453009F04EC00E94EA
:105710003104182F802F0E943104D82E802F0E9430
:105720003104F82E802F0E943104E82E802F0E9431
:105730003104282F163A59F01F9283E08F930F936C
:105740000E943F040F900F900F9011E07FC08F2DAB
:1057500090E0A0E0B0E0DC0199278827BD29822BEA
:10576000BC01CD017E2958DE8823A4F0282F082E05
:10577000000C330B3F938F9381E08F9388E38F93DB
:105780000F930E943F040F900F900F900F900F9077
:1057900011E05CC01F9282E08F930F930E943F0440
:1057A0000F900F900F9011E051C0642F0E943004B1
:1057B0001F9281E08F930F930E943F040F900F90F0
:1057C0000F9011E043C0443091F50E943104C82E7F
:1057D000D12CE12CF12CFC2CEE24DD24CC24802FC8
:1057E0000E943104E82A802F0E943104182F802F54
:1057F0000E943104A7019601282BDA01C901BC01DE
:10580000CD01712BDBDD282F082E000C330B3F93CD
:105810008F9381E08F9389E38F930F930E943F04CE
:105820000F900F900F900F900F9011E00FC0642F0A
:105830000E9430041F9281E08F930F930E943F04D7
:105840000F900F900F9011E001C010E0812F0F908A
:105850000F900F900F90DF91CF911F910F91FF90BC
:10586000EF90DF90CF900895CF93C091E01AC111CF
:1058700004C087EA9FE09CD601C0C1E08C2FCF9185
:10588000089581E08093E01A0895CF93DF93C82FA5
:10589000D62FEADF882329F1ECE7F0E08081282F7A
:1058A0002F7330E4C39FC0011124822B8083D83032
:1058B00050F48081807ED82BD083EBE7F0E08081AC
:1058C000877F80830EC0D03160F4ECE7F0E0808108
:1058D000807ED850D82BD083EBE7F0E080818860C1
:1058E0008083DF91CF910895CF93DF93EC01BCDFEC
:1058F0008823E9F0ECE7F0E0808180628083EAE7CA
:10590000F0E08FE880831092E41A1092E31A10926C
:10591000E21A1092E11AD093E81AC093E71A109293
:10592000E61A1092E51A8081806480837894DF9172
:10593000CF910895CF93DF93EC0196DF8823E9F0B0
:10594000ECE7F0E080818F7D8083EAE7F0E08FE88C
:1059500080831092E41A1092E31A1092E21A1092C5
:10596000E11A1092E81A1092E71AD093E61AC0933F
:10597000E51A8081806480837894DF91CF910895C7
:105980001F920F920FB60F9211240BB60F922F9306
:105990003F934F935F936F937F938F939F93AF93B7
:1059A000BF93EF93FF93E091E71AF091E81A3097D5
:1059B00021F080917900199501C080E0E091E51A0D
:1059C000F091E61A309729F0809178009091790053
:1059D0001995E091E31AF091E41A309721F0809143
:1059E0007900199519C0E091E11AF091E21A309707
:1059F00031F0809178009091790019950DC088233D
:105A000031F0EAE7F0E080818064808305C0EAE756
:105A1000F0E080818F778083FF91EF91BF91AF910C
:105A20009F918F917F916F915F914F913F912F91B6
:105A30000F900BBE0F900FBE0F901F901895F99905
:105A4000FECF92BD81BD60BDFA9AF99A0895F99989
:105A5000FECF92BD81BDF89A80B508959B01AC013F
:105A600081E08093E91AECEBF0E080818B7F80830A
:105A70001092B90060E074E284EF90E00E940A3B6B
:105A8000DA01C9014097A109B109B695A795979583
:105A900087958093B8002FEF80E792E021508040F7
:105AA0009040E1F700C0000008951F93CF93DF936B
:105AB000162FE091451BF091461B2081C1E0D0E0FC
:105AC000AE010090441B02C0440F551F0A94E2F738
:105AD000942F909592239083880F8E7754D2812FA4
