:1000000024C1000043C1000041C1000078C50000C8
:100010003DC100000C94A51E0C94DC1D37C10000EE
:1000200035C100000C943E0A31C100000C940F0948
:100030002DC100002BC100000C94451527C1000004
:1000400025C100000C94DF2F21C100001FC100005A
:100050001DC100001BC1000019C100000C94EA0F73
:1000600015C1000011C2000011C100000FC1000045
:100070000DC100000C943B2C09C1000007C1000019
:100080000C947D0D03C1000001C10000FFC0000001
:100090007DC20000FBC00000F9C00000F7C00000F6
:1000A000F5C00000F3C000000C948508EFC000000C
:1000B000EDC00000EBC00000E9C00000E7C0000098
:1000C000E5C00000E3C00000E1C0000097C20000EE
:1000D000DDC00000DBC00000CCC20000D7C00000C3
:1000E000D5C00000A60DAE0DBD0DCC0D3F0E4E0EC1
:1000F0005D0ECF0EDE0EED0EB917B517B017AC17AB
:10010000A717A2179E179917941790178B17861782
:1001100082177D17781774176F176A17661761179C
:100120005C17581753174E174A17451740173C17B7
:10013000371732172E172917241720171B171617D2
:1001400012170D1708170417FF16FA16F616F116F0
:10015000EC16E816E316DE16D716D016C916C21628
:10016000BB16B416AD16A6169F16981691168A16CB
:1001700083167C1675166E1667166016591652167B
:100180004B1644163D1636162F16281621161A162B
:1001900013160C160516FE15F715F015E915E215E0
:1001A000DB15D415CD15C615BF15B815B115AA1593
:1001B000A3159C1595158E15871580157915721543
:1001C0006B1530206C209E20D0200C2146218521EB
:1001D00085218521852185218521852185218521EF
:1001E00085218521852185218521852185218521DF
:1001F00085218521852185218521852185218521CF
:1002000085218521852185218521852185218521BE
:1002100085218521852185218521852185218521AE
:100220008521852185218521852185218521991F8C
:100230000920522459245924592468246E246E24F8
:100240006E247F2485248524982411241FBECFEF9B
:10025000D1E2DEBFCDBF00E00CBF13E1A0E0B2E011
:10026000ECE3F8E700E00BBF02C007900D92AA3361
:10027000B107D9F72AE1AAE3B3E101C01D92A33E79
:10028000B207E1F70E94D2270C941C3CB9CE0F9222
:100290001F92CF93DF93D92FC82FA881B9812A81CC
:1002A0000B80209D23E0029ED72FC62F388191E03E
:1002B000442319F0990F4A95E9F7CA958881892B4B
:1002C0008883C3958D9178E0880F68F0392B9095DD
:1002D0003883000000003923909538830000000027
:1002E0007A9591F70FC0392B909538830000000064
:1002F00000000000000000000000392390953883C2
:100300007A9511F70A94F1F6DF91CF911F900F9033
:1003100008952F923F924F925F926F927F928F92A9
:100320009F92AF92BF92CF92DF92EF92FF920F9384
:100330001F93CF93DF9300D0CDB7DEB7412C662457
:1003400063940F2EF1E4CF2EF3E1DF2EF02D0F2E6C
:10035000F9E4EF2EF3E1FF2EF02D00E010E0542C35
:10036000702E8091511390E0002E02C095958795D4
:100370000A94E2F780FF08C0E0913C13F0913D132E
:10038000662D802F19955AC0802F0E942623282E73
:1003900081E0821508F052C0402F62E0CE01019644
:1003A0000E943923882309F449C04701F70180815D
:1003B0009181009711F00E94883B3A80A32CB12CC8
:1003C000F2E0AF0EB11CC5010E94F03AF401918336
:1003D0008083009751F4E0913C13F0913D1360E06D
:1003E000872D19958AEF90E039C0311004C0F601CD
:1003F0009183808306C09C012E5F3F4FF6013183BD
:100400002083222D30E02A153B05C4F062E0630D05
:10041000472D0E943923882389F08A81672D8E5FBA
:100420000E948A23872D0E942623E0913E13F0919B
:100430003F134A816981872D1995562C0F5F1F4FF5
:10044000F2E0CF0ED11C82E0E80EF11C0430110561
:1004500009F086CF511075CF89E190E00F900F9091
:100460000F90DF91CF911F910F91FF90EF90DF9050
:10047000CF90BF90AF909F908F907F906F905F9044
:100480004F903F902F9008951F920F920FB60F92AA
:1004900011240BB60F922F933F934F935F936F935B
:1004A0007F938F939F93AF93BF93CF93EF93FF93DC
:1004B000F89480913B1380FF4BC0C091C600C032BE
:1004C00009F048C081E080933A1360E080E20E9426
:1004D000C92281113DC080915113816080935113D5
:1004E00037C080913A13823058F180FF06C0C111A5
:1004F0000AC08F5F80933A1309C0CF3F21F48F5F0A
:1005000080933A1303C010923A1322C080913A1399
:100510008C30F1F480E090E00E94F62380E20E94AB
:1005200035328AE00E943532C5E08FEF0E943532C5
:1005300080E00E943532C150C1F710923A1308C0D2
:10054000CA3021F48F5F80933A1302C010923A139D
:10055000789408C060E08C2F0E94C922882309F497
:10056000BACFBFCFFF91EF91CF91BF91AF919F9144
:100570008F917F916F915F914F913F912F910F904C
:100580000BBE0F900FBE0F901F9018951F920F92E9
:100590000FB60F9211240BB60F922F933F934F93E8
:1005A0005F936F937F938F939F93AF93BF93EF93DB
:1005B000FF93F89480913B1381FF0CC08091CE0093
:1005C00061E00E94C922811105C0809151138260AF
:1005D000809351137894FF91EF91BF91AF919F91C8
:1005E0008F917F916F915F914F913F912F910F90DC
:1005F0000BBE0F900FBE0F901F9018951F920F9279
:100600000FB60F9211240BB60F922F933F934F9377
:100610005F936F937F938F939F93AF93BF93EF936A
:10062000FF93F89480913B1382FF0DC08091D60018
:1006300062E00E94C922811108C080915113846038
:100640008093511302C00E94BB277894FF91EF91D1
:10065000BF91AF919F918F917F916F915F914F91DA
:100660003F912F910F900BBE0F900FBE0F901F90D8
:1006700018951F920F920FB60F9211240BB60F927E
:100680002F933F934F935F936F937F938F939F939A
:10069000AF93BF93EF93FF93F8948091360163E09B
:1006A0000E94C922811105C08091511388608093F6
:1006B00051137894FF91EF91BF91AF919F918F91DA
:1006C0007F916F915F914F913F912F910F900BBE52
:1006D0000F900FBE0F901F901895AF92BF92DF92B0
:1006E000EF92FF920F931F93CF93DF93CDB7DEB7B7
:1006F0001D85DE847E018FE0E80EF11CDD2079F19E
:1007000000E0113081F028F01230B9F01330E9F038
:1007100026C0570192E0A90EB11CF70180810E940A
:100720003532750119C05701F2E0AF0EB11CF70167
:1007300080810E94D63275010FC0F7018081F2E0FE
:10074000EF0EF11C0E944E3307C0F701808192E04A
:10075000E90EF11C0E94C6330F5FD012D2CFDF9199
:10076000CF911F910F91FF90EF90DF90BF90AF90CE
:100770000895CF92DF92EF92FF92CF93C82F6A0134
:100780007B010E94A822C130B9F028F0C23029F1C3
:10079000C33079F14CC020E042E0C701B6010E94AD
:1007A000C431E2ECF0E0808188608083E1ECF0E02D
:1007B0008081806880832DC020E042E0C701B601BF
:1007C0000E946632EAECF0E0808188608083E9EC88
:1007D000F0E08081806880831CC020E042E0C70197
:1007E000B6010E94DE32E1EDF0E080818068808316
:1007F00010C020E042E0C701B6010E945633E2E398
:10080000F1E0808188608083E1E3F1E080818068AD
:10081000808320913B1381E090E002C0880F991FF4
:10082000CA95E2F7822B80933B1381E001C080E000
:10083000CF91FF90EF90DF90CF90089590913B1370
:1008400021E030E0082E02C0220F331F0A94E2F7A5
:100850002095292320933B1390E00C94F6230895D0
:100860000895E82FF0E0EE0FFF1FEF5BFC4EA08134
:10087000B181CD010196918380838C910895CF92AF
:10088000DF92EF92FF920F931F93CF93DF93CDB739
:10089000DEB7DC840E851F920F931F928D858F9398
:1008A00082E08F93DF9219DF0F900F900F900F90DF
:1008B0000F900F900023C9F07E018FE0E80EF11C2D
:1008C00010E0CC24C394F701818192E0E90EF11C81
:1008D0008F9380818F93CF92DF92FFDE1F5F0F9007
:1008E0000F900F900F900113EECFDF91CF911F91DA
:1008F0000F91FF90EF90DF90CF900895E82FF0E0F8
:10090000E056F54E60831F921F921F9295E09F93D1
:1009100092E09F938F93E1DE0F900F900F900F90D6
:100920000F900F900895CF92DF92EF92FF920F9366
:100930001F93CF93DF93CDB7DEB78C85ED84909175
:10094000A01A8917C1F09091A11A981769F0909197
:10095000A21A891761F09091A31A98130EC00F2E56
:10096000F3E0DF2EF02D0CC0DD24D39409C0689491
:10097000DD24D1F805C0D12C03C06894DD24D2F861
:100980000E2D10E01F92EF921F928F9382E08F93B3
:10099000DF92A3DE0F900F900F900F900F900F90AB
:1009A000012BC9F08E01025F1F4FEE20A1F0F12C48
:1009B000CC24C394F80181810E5F1F4F8F938081F7
:1009C0008F93CF92DF9289DEF3940F900F900F9068
:1009D0000F90EF10EFCFDF91CF911F910F91FF900C
:1009E000EF90DF90CF9008959091A01A8917C1F0F1
:1009F0009091A11A891761F09091A21A891761F05C
:100A00009091A31A981313C093E0E3E0F0E00BC0B9
:100A100091E0E1E0F0E007C092E0E2E0F0E003C046
:100A2000E0E0F0E090E0E056F54E108201C094E086
:100A30001F921F921F9286E08F9382E08F939F9365
:100A40004CDE0F900F900F900F900F900F90089525
:100A5000CF93DF93EC010E94A82280914013811173
:100A600008C06CE271E089E891E00E9483308093D5
:100A70004013209721F0D0933F13C0933E13DF9192
:100A8000CF91089510925C1310925813109259133D
:100A900010925A1310925B138091A41A81110E9434
:100AA000813188EC90E008951F926F931F927F939D
:100AB0001F928F931F929F9384E08F9387E58F936C
:100AC000809154138F93DBDE8DB79EB70B960FB6D4
:100AD000F8949EBF0FBE8DBF0895CF93DF93EC01B6
:100AE00080915513811104C086EE96E00E94533226
:100AF000D0935713C0935613DF91CF9108951F924F
:100B00000F920FB60F9211240BB60F920F931F93F3
:100B10002F933F934F935F936F937F938F939F9305
:100B2000AF93BF93EF93FF93E4E8F0E0808191816E
:100B30002091521330915313821B930B9C014081DF
:100B400051815093531340935213992334F42091BD
:100B5000880030918900280F391F80915C13811122
:100B600012C08091A41A0E94A231109258131092C0
:100B7000591310925A1310925B1380915C138F5F7C
:100B800080935C1376C0813051F42536310518F41A
:100B900010925C136EC082E080935C136AC0823254
:100BA00051F42536310518F410925C1362C083E2CB
:100BB00080935C135EC0833289F52536310558F188
:100BC0008091561390915713892B89F08091A41A24
:100BD0000E948131609158137091591380915A137A
:100BE00090915B13E0915613F0915713199564E0BF
:100BF00080915B130E94C92264E080915A130E9485
:100C0000C92264E0809159130E94C92264E0809156
:100C100058130E94C92210925C132BC09EEF980FAC
:100C2000903238F52536310508F540E050E060E0B7
:100C300070E89EEF980F04C0769567955795479595
:100C40009A95D2F7009158131091591320915A1385
:100C500030915B13402B512B622B732B4093581315
:100C60005093591360935A1370935B138F5F809363
:100C70005C138091A41A81110E945F31FF91EF9162
:100C8000BF91AF919F918F917F916F915F914F91A4
:100C90003F912F911F910F910F900BBE0F900FBEA0
:100CA0000F901F90189580915513811124C081E0F9
:100CB00080935513539A5B9852985A9AE9E6F0E05C
:100CC00080818062808380818F7E8083EA9A68EC55
:100CD00070E082E495E00E9483308093A41A811131
:100CE00004C08BE197E00E9453328091A41A8111D5
:100CF0000E94813178940895009789F020E030E0D7
:100D00005B9A45E44A95F1F700005B9845E44A9503
:100D1000F1F700002F5F3F4F8217930789F708957F
:100D20008F929F92AF92BF92CF92DF92EF92FF92FB
:100D30001F93CF93DF936B017C0180915513811139
:100D400005C086EE96E00E94533257C01FB7F89454
:100D500086E591E0D1DF8FE496E40197F1F700C0DA
:100D60000000C0E0D0E0812C912C54016894B7F8C9
:100D7000D501C4010C2E04C0B695A795979587950B
:100D80000A94D2F78C219D21AE21BF21892B8A2B79
:100D90008B2B51F085E190E0AFDF8FEB98E001976E
:100DA000F1F700C0000009C085E190E0A5DF87E60B
:100DB0009AE10197F1F700C000002196C032D105F9
:100DC000B9F685E190E098DF87E69AE10197F1F7BF
:100DD00000C0000085E190E08FDF87E69AE101978F
:100DE000F1F700C0000085E190E086DF87E69AE138
:100DF0000197F1F700C000001FBFDF91CF911F9155
:100E0000FF90EF90DF90CF90BF90AF909F908F902A
:100E100008958F929F92AF92BF92CF92DF92EF92FE
:100E2000FF920F931F93CF93DF93CDB7DEB7DA9581
:100E30000FB6F894DEBF0FBECDBFF82E109155133C
:100E4000111105C087E497E00E94533200C1653557
:100E500059F020F4633209F494C0F8C06635B1F15A
:100E6000673509F471C0F2C0443021F5FADC182F5F
:100E70008F2DF7DC882E912CA12CB12C54019924B4
:100E80008824B12A8F2DEDDC182F8F2DEADCA501E7
:100E90009401282BDA01C901BC01CD01712B40DF7F
:100EA0001F9285E58F93FF92EADC0F900F900F90D1
:100EB00011E0CDC0642FD4DC1F9281E08F93FF92AC
:100EC000DEDC0F900F900F9011E0C1C0443081F52F
:100ED000C8DC182F8F2DC5DC882E912CA12CB12CAD
:100EE000540199248824B12A8F2DBBDC182F8F2D13
:100EF000B8DC882AC501B401712BE0915613F0913A
:100F00005713309759F019951F9286E58F93FF92EA
:100F1000B6DC0F900F900F9011E099C01F9282E005
:100F20008F93FF92ACDC0F900F900F9011E08FC069
:100F3000642F96DC1F9281E08F93FF92A0DC0F90CC
:100F40000F900F9011E083C041110FC08093541394
:100F500084E595E0C2DD1F9287E58F93FF928FDCD9
:100F60000F900F900F9011E072C0642F79DC1F92E8
:100F700081E08F93FF9283DC0F900F900F9011E030
:100F800066C0411148C084E00E942623C82E81110A
:100F900010C01F921F921F9283E28F9382E08F9363
:100FA000FF929BDB0F900F900F900F900F900F9080
:100FB00030C044E0682FCE0101960E9439231F9271
:100FC000CF921F9283E28F9382E08F93FF9285DB13
:100FD0008E010F5F1F4FCA94D12C3FEFC31AD30A63
:100FE000C00ED11E0F900F900F900F900F900F908A
:100FF000EE24E394F80181918F011F928F93EF9279
:10100000FF926BDB0F900F900F900F900C151D054A
:1010100089F711E01CC0413069F484E00E94E023AC
:101020001F9283E28F93FF922ADC0F900F900F9014
:1010300011E00DC0642F14DC1F9281E08F93FF92AA
:101040001EDC0F900F900F9011E001C010E0812F77
:10105000D3950FB6F894DEBF0FBECDBFDF91CF9111
:101060001F910F91FF90EF90DF90CF90BF90AF90C6
:101070009F908F90089581E08093060280E090E039
:101080000895E091A81AF091A91A429181E090E0A8
:101090009C010090D71A02C0220F331F0A94E2F776
:1010A000242B2083E091A81AF091A91A3081AC0179
:1010B0000090D71A02C0440F551F0A94E2F7242F5C
:1010C00020952323208323E130E03093A90020934F
:1010D000A80022E0209372001092A5001092A400B4
:1010E0001092A0002AE02093A100E091A81AF091AC
:1010F000A91A20810090D71A02C0880F991F0A945C
:10110000E2F7822B8083789408951F920F920FB696
:101110000F9211240BB60F922F938F939F93EF93FF
:10112000FF93E091A81AF091A91A808190E00090B5
:10113000D71A02C0959587950A94E2F780FF25C0DB
:101140008BE08093A100E091A81AF091A91A208168
:1011500081E090E00090D71A02C0880F991F0A948E
:10116000E2F78095822380831092A5001092A4005C
:101170008FE790E09093A9008093A8001092BB1A8B
:101180001092BA1A1092BC1A09C08091BA1A9091A2
:10119000BB1A01969093BB1A8093BA1AFF91EF91F4
:1011A0009F918F912F910F900BBE0F900FBE0F90BC
:1011B0001F901895CF93C82F8093A71A3093A61A23
:1011C0002093A51A7093A91A6093A81A4093D71A6E
:1011D0001092BC1A64E670E08BE398E00E948330C2
:1011E000109206029091A71AE6E0F1E0808189232F
:1011F00021F0809106028823C9F381E080930602E2
:1012000040DFE8E6F0E0808184608083C0936D0079
:10121000CF9108959093BE1A8093BD1A08951F929E
:101220000F920FB60F9211240BB60F922F923F928E
:101230004F925F926F927F928F929F92AF92BF92E6
:10124000CF92DF92EF92FF920F931F932F933F93D2
:101250004F935F936F937F938F939F93AF93BF93BE
:10126000CF93DF93EF93FF93809106028111A0C08B
:10127000B09006010091A71AB022A090BC1AAB242E
:10128000B092BC1A212C312C3090BA1A0F2EFAEAE7
:10129000EF2EFAE1FF2EF02DCFEBDAE10F2EF7ED76
:1012A000CF2EFAE1DF2EF02D9924939411E0812CBA
:1012B00044244A94542C612C712C802F812309F4EE
:1012C00062C08A2D812309F45AC08B2D812361F0DD
:1012D00041E04883E4EAF0E080819181820D931D32
:1012E0009A838983982C4FC0F2E0F883E4EAF0E017
:1012F00020813181220D331D89819A812817390778
:10130000B0F0281B390B22953295307F3227207F91
:101310003227AFE9B6E40E94D13A929582958F7058
:1013200089279F708927F701918380832CC0B3019F
:10133000A201481B590B61097109DB01CA01820F27
:10134000931FA11DB11D880F991FAA1FBB1F880FD6
:10135000991FAA1FBB1FBC01CD01660F771F881FF5
:10136000991F660F771F881F991F2AE330E040E01E
:1013700050E00E94A73AF7013183208304C088819E
:10138000823009F0982C110FF2E0EF0EF11C239639
:10139000CC15DD0509F091CF992089F01092A100BC
:1013A000E091A51AF091A61A8AEA9AE1199507C068
:1013B000E091BD1AF091BE1A309709F01995FF918E
:1013C000EF91DF91CF91BF91AF919F918F917F91DD
:1013D0006F915F914F913F912F911F910F91FF90CE
:1013E000EF90DF90CF90BF90AF909F908F907F90C5
:1013F0006F905F904F903F902F900F900BBE0F908B
:101400000FBE0F901F901895E8E6F0E08081816094
:10141000808380E090E008950E94CD2F811105C067
:1014200081E797E00C945332089580915D13811108
:101430001EC081E080935D1384B18F7884B985B13B
:10144000806785B98FE39CE90197F1F700C0000040
:10145000EBE6F0E0808180678083E8E6F0E0808161
:1014600081608083789483B180778093641308953A
:1014700093B1982381E009F080E008951F920F92C4
:101480000FB60F9211240BB60F921F932F933F9319
:101490004F935F936F937F938F939F93AF93BF937C
:1014A000CF93DF93EF93FF93D3B11D2F1077C091AC
:1014B0006413C127C4FF0CC0E0916213F091631361
:1014C000309731F0D4FB882780F991E0892719956E
:1014D000C5FF0CC0E0916013F0916113309731F0BB
:1014E000D5FB882780F991E089271995C6FF0CC0A4
:1014F000E0915E13F0915F13309731F0D6FBDD275A
:10150000D0F981E08D271995C07759F0E8E6F0E031
:1015100080818E7F808364E670E084E09AE00E94A0
:10152000833010936413FF91EF91DF91CF91BF91BE
:10153000AF919F918F917F916F915F914F913F916B
:101540002F911F910F900BBE0F900FBE0F901F9009
:10155000189592B19F7C92B922B130E1839FC0016E
:101560001124822B82B9089592B1937F92B922B14E
:1015700034E0839FC0011124822B82B90895CF9358
:10158000DF93FC01DB01EA014C815D812A813B8113
:101590008881998160851F926F9367811F926F93F5
:1015A00066811F926F93BA0177277F936F931F9283
:1015B0005F9312964C911297642F042E000C770BB8
:1015C0007F934F9345811F924F9344811F924F9376
:1015D00043811F924F93A90155275F934F931F9209
:1015E0003F9311962C911197422F022E000C550B10
:1015F0005F932F9322811F922F9321811F922F930C
:1016000020811F922F939C0133273F932F931F928A
:101610009F938C91282F082E000C330B3F938F93B0
:1016200082E18F9383E68F937ED98DB79EB786969E
:101630000FB6F8949EBF0FBE8DBFDF91CF91089576
:101640001F928F9381E08F9381E68F936CD981E60F
:10165000CBD90F900F900F900F900895CF93DF93F9
:10166000FC01DB01EA014C815D812A813B8188819B
:10167000998160851F926F9367811F926F93668136
:101680001F926F93BA0177277F936F931F925F9397
:1016900012964C911297642F042E000C770B7F93B7
:1016A0004F9345811F924F9344811F924F934381E3
:1016B0001F924F93A90155275F934F931F923F931A
:1016C00011962C911197422F022E000C550B5F930F
:1016D0002F9322811F922F9321811F922F9320817C
:1016E0001F922F939C0133273F932F931F929F9319
:1016F0008C91282F082E000C330B3F938F9382E19F
:101700008F9382E68F930FD98DB79EB786960FB6CB
:10171000F8949EBF0FBE8DBF82E666D9DF91CF9150
:1017200008950F931F93CF93DF938091D21381116C
:10173000A8C081E08093D21380E091E09093881359
:10174000809387130E9A169881B1806381B981B115
:101750008F6081B9579880918713909188130E9468
:10176000A22C893008F486C01092891385C080911C
:1017700087139091881308968C0F9D1F0E94A22CAE
:10178000F8018083809187139091881309968C0FBC
:101790009D1F0E94A22CF801818380918713909154
:1017A00088130A968C0F9D1F0E94A22CF801828339
:1017B00080918713909188130B968C0F9D1F0E9428
:1017C000A22CF801838380918713909188130C9643
:1017D0008C0F9D1F0E94A22CF80184838091871397
:1017E000909188130D968C0F9D1F0E94A22CF801DA
:1017F000858380918713909188130E968C0F9D1F7F
:101800000E94A22CF80186838091871390918813FF
:101810000F968C0F9D1F0E94A22CF8018783809148
:1018200087139091881340968C0F9D1F0E94A22CC5
:10183000F80180872996075F1F4FC834D10509F04A
:1018400096CF82B18C7F82B982B1836082B91092C7
:10185000900088E08093910014BC81E080936E003A
:1018600082E0809371008AEF90E0909399008093DA
:10187000980007C0809389130AE813E1C0E0D0E024
:1018800076CFDF91CF911F910F9108958091D21360
:10189000811105C081E498E00C94533208951092B0
:1018A000891360E080918713909188130C949A2C8F
:1018B0000895CF92DF92EF92FF920F931F93CF93F1
:1018C000DF93EB01FC01A081B0E02881A21BB109EC
:1018D0002181E22FF0E029818F01021B1109FC0117
:1018E000428150E08A81481B51099D010E94CB3AF8
:1018F0006B017C019801D8010E94CB3AC60ED71E1D
:10190000E81EF91E9A01DA010E94CB3ADC01CB01F4
:101910008C0D9D1DAE1DBF1D8115F0E89F07A10513
:10192000B10514F08FEF9FE7DF91CF911F910F91D9
:10193000FF90EF90DF90CF9008953F924F925F928B
:101940006F927F928F929F92AF92BF92CF92DF92CF
:10195000EF92FF920F931F93CF93DF93B090891371
:10196000B11006C08FEFFB01808381838283B3C0F7
:10197000EA016B017C01082FAF2CBC018AE893E1DE
:1019800098DF99838883F1E0FB1510F50F2EF3E9BA
:101990008F2EF3E19F2EF02D11E0312C602F7A2D48
:1019A000C40187DF2C01612C712C4881598160E0D2
:1019B00070E044165506660677061CF49983888302
:1019C000312E1F5F89E0880E911CB112E7CF01C054
:1019D000312C2881398180910702909108022817C3
:1019E000390718F4F601308203C08FEFF6018083C7
:1019F0004701F3E08F0E911CB4018DE893E159DFAC
:101A00009B838A8381E08B15E8F406E913E1AA241D
:101A1000A394312CB401C8014CDF2C01612C712C32
:101A20004A815B8160E070E04416550666067706E1
:101A30001CF49B838A833A2CA394075F1F4FBA1030
:101A4000E9CF01C0312C2A813B818091090290911C
:101A50000A022817390718F4F601318203C08FEF04
:101A6000F6018183F6E0EF0EF11CB70180E993E106
:101A700020DF9D838C8381E08B15E8F409E913E175
:101A8000AA24A394912CB701C80113DF2C01612C67
:101A9000712C4C815D8160E070E04416550666064D
:101AA00077061CF49D838C839A2CA394075F1F4FA9
:101AB000BA10E9CF01C0912C2C813D8180910B029D
:101AC00090910C022817390718F4F601928203C08E
:101AD0008FEFF6018283DF91CF911F910F91FF90DD
:101AE000EF90DF90CF90BF90AF909F908F907F90BE
:101AF0006F905F904F903F9008951F920F920FB696
:101B00000F9211240BB60F922F933F934F935F9335
:101B10006F937F938F939F93AF93BF93CF93DF93F5
:101B2000EF93FF93E1E9F0E080818B7F808315BC28
:101B30008091861390E08A30910508F025C2FC015F
:101B40008827EE58FF4F8F4F0C94C33A80E001DD99
:101B500080E00ADD81E08093861316C280918313B2
:101B6000811102C086B501C08FEF80936E1383E0B0
:101B7000FBDC82E08093861307C28091831381117E
:101B800002C086B501C08FEF80936F1381E0ECDC5B
:101B900083E080938613F8C180918313811102C082
:101BA00086B501C08FEF80937013809184138111EB
:101BB0005CC0CEE6D3E18091891390E09C01220FB6
:101BC000331F220F331F220F331F820F931F2091C9
:101BD000871330918813285F3F4F6881820F931FCE
:101BE0000E949A2C8091891390E09C01220F331F50
:101BF000220F331F220F331F820F931F2091871351
:101C000030918813275F3F4F6981820F931F0E9495
:101C10009A2C8091891390E09C01220F331F220F90
:101C2000331F220F331F820F931F20918713309190
:101C30008813265F3F4F6A81820F931F0E949A2C60
:101C40008091891390E0FC01EE0FFF1FEE0FFF1F44
:101C5000EE0FFF1F8E0F9F1FFC01E657FC4E888181
:101C60009981AA8180839183A28381E072DC80E0E4
:101C70007BDC809186138F5F8093861385C1809172
:101C80008313811102C086B501C08FEF8093711359
:101C900083E06ADC85E08093861376C180918313AC
:101CA000811102C086B501C08FEF8093721381E06D
:101CB0005BDC86E08093861367C18091831381117A
:101CC00002C086B501C08FEF809373138091841397
:101CD00081115BC0CEE6D3E18091891390E09C0135
:101CE000220F331F220F331F220F331F820F931F28
:101CF0002091871330918813255F3F4F6B81820FAE
:101D0000931F0E949A2C8091891390E09C01220FCE
:101D1000331F220F331F220F331F820F931F209177
:101D2000871330918813245F3F4F6C81820F931F7C
:101D30000E949A2C80918713909188130D96209180
:101D4000891330E0A901440F551F440F551F440F5C
:101D5000551F240F351F6D81820F931F0E949A2CEF
:101D60008091891390E0FC01EE0FFF1FEE0FFF1F23
:101D7000EE0FFF1F8E0F9F1FFC01E657FC4E8B815D
:101D80009C81AD8183839483A58382E0E2DB80E044
:101D9000EBDB809186138F5F80938613F5C0809173
:101DA0008313811102C086B501C08FEF8093741335
:101DB00083E0DADB88E080938613E6C080918313AA
:101DC000811102C086B501C08FEF8093751381E049
:101DD000CBDB89E080938613D7C080918313811178
:101DE00002C086B501C08FEF809376138091841373
:101DF000811173C0CEE6D3E18091891390E09C01FC
:101E0000220F331F220F331F220F331F820F931F06
:101E10002091871330918813225F3F4F6E81820F8C
:101E2000931F0E949A2C8091891390E09C01220FAD
:101E3000331F220F331F220F331F820F931F209156
:101E4000871330918813215F3F4F6F81820F931F5B
:101E50000E949A2C8091891390E09C01220F331FDD
:101E6000220F331F220F331F820F931F20918713DE
:101E700030918813205F3F4F6885820F931F0E9427
:101E80009A2C60918913862F90E0FC01EE0FFF1FC2
:101E9000EE0FFF1FEE0FFF1F8E0F9F1FFC01E65777
:101EA000FC4E8E819F81A88586839783A0876F5F74
:101EB0006093891380918713909188130E949A2CC4
:101EC000E0917F13F0918013309709F456C0809110
:101ED0008913BE018150199550C045E653E16BE668
:101EE00073E18EE693E129DD80916B138F3F41F022
:101EF00090910D02891731F080930D02C1E003C06B
:101F0000C0E001C0C0E080916C138F3F39F0909128
:101F10000E02891719F080930E02C1E080916D13B3
:101F20008F3F69F090910F02891749F080930F025B
:101F3000E0917D13F0917E13309741F411C0E09150
:101F40007D13F0917E13309711F408C0C1E045E68F
:101F500053E16DE072E08EE693E11995CC2369F0D0
:101F6000E0917B13F0917C13309739F045E653E113
:101F70006DE072E08EE693E11995809186138F5F94
:101F800080938613169811C01092831310929500B7
:101F90001092940016BC8FEF85BB88BBE1E9F0E09E
:101FA00080818460808387E085BDFF91EF91DF9120
:101FB000CF91BF91AF919F918F917F916F915F91E1
:101FC0004F913F912F910F900BBE0F900FBE0F902E
:101FD0001F9018951F920F920FB60F9211248F9396
:101FE000809183138F5F809383138F910F900FBE27
:101FF0000F901F901895CF93C091D213C11105C0B7
:102000008BE698E00E94533221C02091891328303A
:10201000E0F49093801380937F1380E09ADA80E05D
:10202000A3DA1092841310928613169A10929500D8
:1020300010929400E1E9F0E080818460808316BC16
:1020400087E085BD7894C1E001C0C0E08C2FCF91BE
:102050000895CF93DF93EC018091D213811105C0D5
:1020600082E998E00E94533226C0C436D10510F4AC
:10207000C4E6D0E010927A1310927913709378131B
:1020800060937713D0938213C0938113809185134B
:1020900081110E94FD308FEF80930D02BE0180ED13
:1020A00091E10E94833080938513811104C087ECF5
:1020B00098E00E945332DF91CF9108958091D2131E
:1020C000811105C089E099E00C9453320895809104
:1020D0008513882321F00E94FD3010928513089506
:1020E0009C019091D213911105C08DE399E00C945D
:1020F0005332089530937E1320937D1370937C1395
:1021000060937B1380E025DA80E02EDA81E0809313
:10211000841310928613169A1092950010929400D0
:10212000E1E9F0E080818460808316BC87E085BDB2
:10213000789408950F931F93CF93DF93D82FC09176
:10214000D213C11105C08FE599E00E94533222C11C
:10215000623609F460C028F4603651F0613699F1B6
:1021600018C1633609F4CCC0643609F46EC011C1DD
:102170004130D9F40E943104863A59F01F9283E02D
:102180008F93DF930E943F040F900F900F90C1E058
:1021900001C17CDB1F9280E68F93DF930E943F0496
:1021A0000F900F900F90C1E0F5C0642F0E94300493
:1021B0001F9281E08F93DF930E943F040F900F9056
:1021C0000F90C1E0E7C04130C1F40E943104863A6B
:1021D00059F01F9283E08F93DF930E943F040F908A
:1021E0000F900F90C1E0D6C061E68D2F0E947E0453
:1021F00080E29BE000DFC1E0CDC0642F0E9430048C
:102200001F9281E08F93DF930E943F040F900F9005
:102210000F90C1E0BFC041110AC062E60E947E0477
:1022200060E070E08EE29BE05BDFC1E0B3C0642F52
:102230000E9430041F9281E08F93DF930E943F043D
:102240000F900F900F90C1E0A5C0413009F04AC037
:102250000E94310490918913891758F01F9283E0EE
:102260008F93DF930E943F040F900F900F90C1E077
:1022700091C090E0FC01EE0FFF1FEE0FFF1FEE0F6D
:10228000FF1F8E0F9F1FFC01E657FC4E80851F929B
:102290008F9387811F928F9386811F928F93858161
:1022A0001F928F9384811F928F9383811F928F93AC
:1022B00082811F928F9381811F928F9380811F92C1
:1022C0008F9389E08F9384E68F93DF930E943F047E
:1022D0008DB79EB745960FB6F8949EBF0FBE8DBFC3
:1022E000C1E058C0642F0E9430041F9281E08F9398
:1022F000DF930E943F040F900F900F90C1E04AC0FF
:102300004230C9F50E943104082F10E0102F002739
:102310008D2F0E943104082B0E94D02FBC01C801D0
:102320000E945E3A892B59F01F9283E08F93DF93CE
:102330000E943F040F900F900F90C1E02BC0BEDEB3
:102340000115110571F483E60E94F4041F9286E0E2
:102350008F93DF930E943F040F900F900F90C1E086
:1023600019C063E68D2F0E947E046FEB7AE0C801EE
:1023700070DEC1E00FC0642F0E9430041F9281E024
:102380008F93DF930E943F040F900F900F90C1E056
:1023900001C0C0E08C2FDF91CF911F910F91089564
:1023A00060917713709178138091791390917A13DB
:1023B00097DE80918113909182130895CF93AC01A1
:1023C0008935910598F091E09F5F292F30E0F90160
:1023D000EE0FFF1FE20FF31FE459F54F608171818B
:1023E0006417750788F3913049F404C068E570E01C
:1023F00021E030E04C33510508F47DC0F9013197FC
:10240000CF01880F991FE80FF91FE459F54FA081FC
:10241000B181C281F901EE0FFF1F2E0F3F1FF9019D
:10242000E459F54F228130E02C1B31094A1B5B0B2C
:10243000249FC001259F900D349F900D11246A1B8D
:102440007B0B0E94723A6C0F57C0EEEDF3E169C04E
:1024500081E08093DA1360838091DD138F5F809336
:10246000DD138091DD13843008F58091DC13209119
:10247000DD1390E002C0959587952A95E2F780FDDF
:1024800015C08091DD138F5F8093DD138091DD1384
:10249000843060F48091DC132091DD1390E002C061
:1024A000959587952A95E2F780FFEBCF8091DD1314
:1024B000843038F46091DD1381E00E94C02B81E00C
:1024C00037C0E091D613F091D713309719F08EED05
:1024D00093E119958091DA13882351F1E091D41397
:1024E000F091D513309729F08EED93E1199580E0A6
:1024F0001FC080E01DC06FEF262F30E08091DD13FC
:10250000813039F048F0823051F0833009F49DCFAA
:10251000A3CFEFEDF3E105C0E0EEF3E102C0E1EEA1
:10252000F3E1808190E08217930709F091CF94CF77
:10253000CF9108951092DD138091DD13843008F55A
:102540008091DC132091DD1390E002C09595879572
:102550002A95E2F780FD15C08091DD138F5F80938F
:10256000DD138091DD13843060F48091DC132091C1
:10257000DD1390E002C0959587952A95E2F780FFDC
:10258000EBCF8091DD13843068F41092DA130E944F
:10259000BC2B6091DD1381E00E94C02B8EED91E198
:1025A0000E94152C8091D8139091D9130895809191
:1025B000D313811109C081E08093D31380B3807F4E
:1025C00080BB81B3807F81BB08958091DB1388231A
:1025D00031F08091DB130E94FD301092DB130895DF
:1025E0000F931F93CF93C82F8B018091D313811129
:1025F00005C087E899E00E9453323FC0E6DF1093A0
:10260000D7130093D613C295CF70C093DC131092EA
:10261000DD138091DD13843008F58091DC13209167
:10262000DD1390E002C0959587952A95E2F780FD2D
:1026300015C08091DD138F5F8093DD138091DD13D2
:10264000843060F48091DC132091DD1390E002C0AF
:10265000959587952A95E2F780FFEBCF8091DD1362
:10266000843058F40E94BC2B6091DD1381E00E94FD
:10267000C02B8EED91E10E94152CCF911F910F91EF
:102680000895CF93DF93EB019091D313911105C07F
:102690008BEB99E00E94533228C0982F907F29F449
:1026A00082EF99E00E94533220C082958F70809310
:1026B000DC131092D7131092D6135093D513409376
:1026C000D4137093D9136093D8137FDFBE018AE9C6
:1026D00092E10E9483308093DB138091DB138111A0
:1026E00004C089E29AE00E945332DF91CF910895AD
:1026F000EF920F93CF938091E21381112BC081E071
:102700008093E2138091E3139091E413009711F00A
:102710000E94FF3361E08BE00E94CE339093E4137C
:102720008093E313C0E0E12C00E020E040E06C2F58
:102730008091E3139091E4130E940A34CF5FCB3071
:1027400091F747E065E270E08091E3139091E41324
:102750000E940134CF910F91EF900895EF920F9363
:102760009091E213911105C086E99AE00E945332DC
:102770000DC08B3058F4E22E042F262F40E0682F36
:102780008091E3139091E4130E940A340F91EF902B
:1027900008958091E213811105C08EEB9AE00C94AC
:1027A0005332089547E065E270E08091E313909121
:1027B000E4130E9401348FE19EE40197F1F700C019
:1027C00000000895EF920F939091E213911105C0CC
:1027D00081EE9AE00E9453320EC08B3058F4E22E04
:1027E000042F262F40E0682F8091E3139091E4138B
:1027F0000E940A34CEDF0F91EF9008950F931F933C
:10280000CF93DF93D82FC091E213C11105C085E0AB
:102810009BE00E9453323EC06034D9F5443059F5F4
:102820000E943104C82F8D2F0E943104182F8D2F44
:102830000E943104082F8D2F0E943104CB3058F0B4
:102840001F9283E08F93DF930E943F040F900F90BD
:102850000F90C1E01FC0282F402F612F8C2FB2DFB7
:102860001F9280E48F93DF930E943F040F900F909C
:102870000F90C1E00FC0642F0E9430041F9281E0CE
:102880008F93DF930E943F040F900F900F90C1E051
:1028900001C0C0E08C2FDF91CF911F910F9108955F
:1028A00081E00895AB01BC01DB01CA01689412F814
:1028B000B695A795979587951694D1F701978F3F71
:1028C000910509F008F445C020E02F5FE22FF0E009
:1028D000EE0FFF1FEE0FFF1FE15FF34FDB01CA0199
:1028E000008004C0B695A795979587950A94D2F76E
:1028F00001978F3F910509F040F78093B4008093D2
:10290000B3002230A1F028F4222349F0213059F0FD
:102910001DC02430A1F078F02530A9F017C082E066
:102920008093B10013C083E08093B1000FC084E0B6
:102930008093B1000BC085E08093B10007C086E0B2
:102940008093B10003C087E08093B1001092B20081
:1029500008958093B4008093B300E1CFE6EEF3E1F5
:1029600081858F5F81879081911105C09091EE13D1
:1029700089130BC002C0891308C0E1EBF0E080812D
:10298000887F808382E390E008959091EE139817FA
:1029900008F067C0E6EEF3E18381948101969483A9
:1029A00083839C01220F331F220F331F0180F2818A
:1029B000E02DE20FF31F20813181232B19F08C329F
:1029C0009140C1F4E091EB13F091EC13309741F09A
:1029D0001995882329F01092EA131092E9130AC07E
:1029E0001092ED13E1EBF0E08081887F808380E03E
:1029F00090E00895A6EEB3E11396ED91FC91149743
:102A0000EE0FFF1FEE0FFF1F11968D919C911297F5
:102A1000E80FF91F608171816130710531F4E1EBDC
:102A2000F0E08081887F808303C080E090E03ADF1F
:102A3000A6EEB3E11396ED91FC911497EE0FFF1FF4
:102A4000EE0FFF1F11968D919C911297E80FF91FC1
:102A5000828118968C93189719961C9282E390E0C5
:102A6000089582E390E00895FC01208130E0322F48
:102A700022278181A901480F511DFB015183408309
:102A80000895FB019083818308951F920F920FB6E2
:102A90000F9211240BB60F928F939F93AF93BF9316
:102AA000EF93FF938091F013853609F468C2E2E05A
:102AB000F1E0908180E4892780838091F01390E099
:102AC0008536910508F05BC2FC018827E458FF4F6A
:102AD0008F4F0C94C33A8FE891E00197F1F700C053
:102AE000000047C28BE891E00197F1F700C00000B9
:102AF00040C287E891E00197F1F700C0000039C2B9
:102B000083E891E00197F1F700C0000032C28FE73F
:102B100091E00197F1F700C000002BC28BE791E034
:102B20000197F1F700C0000024C287E791E0019708
:102B3000F1F700C000001DC283E791E00197F1F7B3
:102B400000C0000016C28FE691E00197F1F700C0C7
:102B500000000FC28BE691E00197F1F700C0000082
:102B600008C287E691E00197F1F700C0000001C2BA
:102B700083E691E00197F1F700C00000FAC18FE50C
:102B800091E00197F1F700C00000F3C18BE591E0FF
:102B90000197F1F700C00000ECC187E591E00197D3
:102BA000F1F700C00000E5C183E591E00197F1F77E
:102BB00000C00000DEC18FE491E00197F1F700C092
:102BC0000000D7C18BE491E00197F1F700C000004D
:102BD000D0C187E491E00197F1F700C00000C9C1BE
:102BE00083E491E00197F1F700C00000C2C18FE3D8
:102BF00091E00197F1F700C00000BBC18BE391E0C9
:102C00000197F1F700C00000B4C187E391E001979C
:102C1000F1F700C00000ADC183E391E00197F1F747
:102C200000C00000A6C18FE291E00197F1F700C05B
:102C300000009FC18BE291E00197F1F700C0000016
:102C400098C187E291E00197F1F700C0000091C1BF
:102C500083E291E00197F1F700C000008AC18FE1A3
:102C600091E00197F1F700C0000083C18BE191E092
:102C70000197F1F700C000007CC187E191E0019766
:102C8000F1F700C0000075C183E191E00197F1F711
:102C900000C000006EC18FE091E00197F1F700C025
:102CA000000067C18BE091E00197F1F700C00000E0
:102CB00060C187E091E00197F1F700C0000059C1C1
:102CC00083E091E00197F1F700C0000052C18FEF5F
:102CD00090E00197F1F700C000004BC18BEF90E04E
:102CE0000197F1F700C0000044C187EF90E0019721
:102CF000F1F700C000003DC183EF90E00197F1F7CC
:102D000000C0000036C18FEE90E00197F1F700C0DF
:102D100000002FC18BEE90E00197F1F700C000009A
:102D200028C187EE90E00197F1F700C0000021C1B3
:102D300083EE90E00197F1F700C000001AC18FED1B
:102D400090E00197F1F700C0000013C18BED90E017
:102D50000197F1F700C000000CC187ED90E00197EA
:102D6000F1F700C0000005C183ED90E00197F1F795
:102D700000C00000FEC08FEC90E00197F1F700C0AA
:102D80000000F7C08BEC90E00197F1F700C0000065
:102D9000F0C087EC90E00197F1F700C00000E9C0B7
:102DA00083EC90E00197F1F700C00000E2C08FEBE8
:102DB00090E00197F1F700C00000DBC09AEF9A9510
:102DC000F1F700C0D6C085EF8A95F1F70000D1C0B9
:102DD00090EF9A95F1F7CDC08AEE8A95F1F700C091
:102DE000C8C095EE9A95F1F70000C3C080EE8A95B1
:102DF000F1F7BFC09AED9A95F1F700C0BAC085ED22
:102E00008A95F1F70000B5C090ED9A95F1F7B1C041
:102E10008AEC8A95F1F700C0ACC095EC9A95F1F771
:102E20000000A7C080EC8A95F1F7A3C09AEB9A95B1
:102E3000F1F700C09EC085EB8A95F1F7000099C0BC
:102E400090EB9A95F1F795C08AEA8A95F1F700C060
:102E500090C095EA9A95F1F700008BC080EA8A95B8
:102E6000F1F787C09AE99A95F1F700C082C085E929
:102E70008A95F1F700007DC090E99A95F1F779C045
:102E80008AE88A95F1F700C074C095E89A95F1F741
:102E900000006FC080E88A95F1F76BC09AE79A95B9
:102EA000F1F700C066C085E78A95F1F7000061C0C0
:102EB00090E79A95F1F75DC08AE68A95F1F700C030
:102EC00058C095E69A95F1F7000053C080E68A95C0
:102ED000F1F74FC09AE59A95F1F700C04AC085E531
:102EE0008A95F1F7000045C090E59A95F1F741C049
:102EF0008AE48A95F1F700C03CC095E49A95F1F711
:102F0000000037C080E48A95F1F733C09AE39A95C0
:102F1000F1F700C02EC085E38A95F1F7000029C0C3
:102F200090E39A95F1F725C08AE28A95F1F700C0FF
:102F300020C095E29A95F1F700001BC080E28A95C7
:102F4000F1F717C09AE19A95F1F700C012C085E138
:102F50008A95F1F700000DC090E19A95F1F709C04C
:102F60008AE08A95F1F700C004C095E09A95F1F7E0
:102F70000000E2E0F1E0908180E489278083FF9106
:102F8000EF91BF91AF919F918F910F900BBE0F90DA
:102F90000FBE0F901F9018958091E513811111C0FD
:102FA00081E08093E513E1E0F1E08081806480833B
:102FB00082E08093B0001092B10084E080937000B2
:102FC00078940895CF92DF92EF92FF926B017C018B
:102FD0008091E513811105C08FE29BE00E9453327E
:102FE00008C08091ED1381110E948131C701B601A3
:102FF00059DCFF90EF90DF90CF9008958091E5131A
:10300000811105C081E59BE00C9453320895E1EBFA
:10301000F0E08081887F80838091ED1381110C9492
:10302000A23108958091E513811105C084E79BE0EA
:103030000C94533208958091ED13882321F00E945F
:10304000FD301092ED13E1EBF0E08081887F80830A
:103050000895CF92DF92FF920F931F93CF93DF9348
:10306000EC01F62E6A018091E513811105C086E915
:103070009BE00E94533225C0D5DF688179816115BC
:103080007105F9F006EE13E1F801D283C1831482D1
:103090001382D682C582F08280E090E003DC8A81D0
:1030A000F8018087118662E370E08EEA94E10E9465
:1030B0008330F8018783811104C088EB9BE00E9474
:1030C0005332DF91CF911F910F91FF90DF90CF90FE
:1030D0000895AF92BF92CF92DF92FF920F931F930A
:1030E000CF93DF931F921F92CDB7DEB7F82E042F38
:1030F0001091E513111105C087EE9BE00E94533239
:10310000C1C1613509F483C028F4693461F06035C8
:10311000F1F1B7C1633509F4E8C008F4CAC06435F9
:1031200009F433C1AEC1442319F0413099F021C0F4
:103130008091F0131F928F9381E08F9389E48F9396
:10314000FF920E943F040F900F900F900F900F90EE
:1031500011E098C10E9431048093F0131F9289E41A
:103160008F93FF920E943F040F900F900F9011E0F9
:1031700089C1642F0E9430041F9281E08F93FF92D7
:103180000E943F040F900F900F9011E07BC14230DE
:1031900081F50E943104282F30E0122F00278F2D57
:1031A0000E9431049801282B21153105B1F040E02F
:1031B00050E060E074E284EF90E00E94A73ACA0118
:1031C000B90100DF1F9283E08F93FF920E943F04BA
:1031D0000F900F900F9011E055C110DF1F9280E506
:1031E0008F93FF920E943F040F900F900F9011E079
:1031F00049C1642F0E9430041F9281E08F93FF9297
:103200000E943F040F900F900F9011E03BC143309C
:1032100009F041C00E943104182F8F2D0E94310403
:10322000082F8F2D0E943104143020F40B3010F43D
:10323000823058F01F9283E08F93FF920E943F04E8
:103240000F900F900F9011E01DC1123039F0133024
:1032500041F0113049F42FE23CE008C02BE33CE0A0
:1032600005C020E132E002C027E23CE0813019F0E5
:1032700040E050E002C040E554E1602FC901E9DEC2
:103280001F9281E58F93FF920E943F040F900F9051
:103290000F9011E0F7C0642F0E9430041F9281E06C
:1032A0008F93FF920E943F040F900F900F9011E0B8
:1032B000E9C041110CC0B6DE1F9282E58F93FF92E8
:1032C0000E943F040F900F900F9011E0DBC0642F1D
:1032D0000E9430041F9281E08F93FF920E943F046E
:1032E0000F900F900F9011E0CDC0442319F0842F60
:1032F000837079F0602F8F2D0E9430041F9281E03F
:103300008F93FF920E943F040F900F900F9011E057
:10331000B9C01F9283E58F93FF920E943F041982E8
:103320001A82C02EC694C6940F900F900F9059F138
:1033300000E112E0CA94D12CC601880F991F880FB2
:10334000991F9C012C5E3D4F6901A8958F2D0E940D
:10335000310489838F2D0E9431048A83B801CE0104
:10336000019682DB8F2D0E943104F80182838F2D1C
:103370000E943104F8018383158214820C5F1F4F71
:103380000C151D0511F711E07DC0442319F0842FA1
:10339000837079F0602F8F2D0E9430041F9281E09E
:1033A0008F93FF920E943F040F900F900F9011E0B7
:1033B00069C01F9284E58F93FF920E943F04198297
:1033C0001A82069506950F900F900F90809110022B
:1033D00090911102892B79F084E192E020E030E0B5
:1033E0002F5F3F4F0496FC0134970190F081E02D50
:1033F000EF2BB1F702C020E030E05901F1E0AF1A45
:10340000B10810E001151105D1F1C901880F991F0C
:10341000880F991FAC01445F5D4F6A01015011098B
:10342000020F131FA8958F2D0E94310489838F2DC1
:103430000E9431048A838F2D0E943104F601828319
:103440008F2D0E943104F6018383FCE2AF16F1E078
:10345000BF0688F4B601CE01019606DBF60115829F
:103460001482FFEFAF1ABF0A24E0C20ED11CA016CF
:10347000B106C1F604C01092C1061092C00611E058
:1034800001C010E0812F0F900F90DF91CF911F911D
:103490000F91FF90DF90CF90BF90AF9008959091E3
:1034A00006012091F31381E092959170982782276D
:1034B00081709817A9F08091060184FF11C0E4EF94
:1034C000F3E186A197A146A157A181709927840FA6
:1034D000951F97A386A382A193A1019693A382A38C
:1034E0008091060191E085FB882780F98927269540
:1034F000217092278917A9F08091060185FD11C0DE
:10350000E4EFF3E184A195A124A135A1817099276D
:10351000820F931F95A384A380A191A1019691A3EB
:1035200080A38091060185FF02C090E001C092E077
:10353000809106018295817021E08227892B8093FA
:10354000F313089580912F14811126C0E8E2F1E071
:10355000808191819695879591838083AAE2B1E0DD
:103560008D919C9111979695879511969C938E932A
:1035700080819181C29720F4109229011092280134
:1035800080912A0190912B01C29708F09EC0109261
:103590002B0110922A0199C080912E1488232CF0BF
:1035A00020912A1430912B1404C020912C143091B6
:1035B0002D1410922B1410922A1410922D14109284
:1035C0002C1480912F14880F990B821B930B9C0154
:1035D00012F42D5F3F4FF901F595E795F595E795C5
:1035E0008091C206882379F1809128149091291442
:1035F000609126147091271420912614309127147D
:10360000232B19F00E945E3A02C06AE070E08091BC
:10361000280190912901E69F9001E79F300DF69FC8
:10362000300D1124820F931F992314F480E090E051
:10363000893E23E0920714F088EE93E090932901ED
:103640008093280106C088EE93E09093290180932F
:1036500028018091C206882391F1809126149091CF
:103660002714809128149091291480912814909106
:10367000291420912A0130912B0140912614509158
:1036800027146091281470912914E49FC001E59FCC
:10369000900DF49F900D11240E945E3A620F731FEB
:1036A000772314F460E070E0693E83E0780714F05B
:1036B00068EE73E070932B0160932A0106C088EED8
:1036C00093E090932B0180932A0184E690E0089583
:1036D0001F9283E18F930E94930483E10E94F4047C
:1036E0000F900F9008951F9284E18F930E9493048E
:1036F00084E10E94F4040F900F9008959CE4980FC9
:10370000923388F4682F90E09093C1068093C006AE
:1037100080E090E00E949A2C60E081E090E00E94BE
:103720009A2C81E0089580E00895CF93DF93E9011A
:1037300016161706180619067CF4EBE0F1E0208156
:103740002260208320812F7D20832081216020839F
:1037500020812B7F208315C0EBE0F1E020812062E7
:10376000208320812D7F208320812460208320815D
:103770002E7F208390958095709561957F4F8F4F18
:103780009F4F40932F14A091C006B091C1069B019A
:10379000AC010E94E63A27E330E040E050E00E94AE
:1037A000A73A209322143093231440932414509367
:1037B000251410921E1410921F14109220141092AF
:1037C0002114D0931D14C0931C14DF91CF91089540
:1037D000CF938091301481115BC081E080933014CD
:1037E00080E090E00E94A22CC82F81E090E00E942F
:1037F000A22C8C2B90E09093C1068093C006809100
:10380000C0069091C106843B910538F08091C006B6
:103810009091C106863E910530F089ED90E090933D
:10382000C1068093C006EBE0F1E08081807C80835C
:10383000EAE0F1E080818F63808310922901109289
:10384000280110922B0110922A0182EA8093200114
:103850008CE18093210188EE93E09093270180937F
:103860002601EAE6F0E080818160808380818D7F9F
:103870008083EC9A8081846080838081877F8083CD
:10388000ED9A64E670E082EA9AE10E9483307894CF
:10389000CF91089585360CF084E68C390CF48CE9D0
:1038A0001816E4F427E68202212D1124259525958A
:1038B00087FD2395022E000C330BA901465F5F4F55
:1038C00050932714409326144AE050E0BA01621B3B
:1038D000730B70932914609328141BC027E682028F
:1038E000212D11242595259587FD2395022E000C69
:1038F000330BA901465F5F4F509327144093261462
:103900004AE050E0BA01621B730B70932914609374
:10391000281480932E1408951092221410922314C8
:10392000109224141092251485360CF084E68C39FC
:103930000CF48CE990912F149817E1F118167CF48F
:10394000EBE0F1E090819260908390819F7D908385
:1039500090819460908390819E7F908328C088237B
:1039600084F4EBE0F1E090819062908390819D7F00
:10397000908390819160908390819B7F90838195CB
:1039800016C09091C206992391F0EBE0F1E02081FE
:1039900091E092279083208192E09227908320816A
:1039A00094E092279083208190E2922790838093E5
:1039B0002F14C8CD0895CF92DF92EF92FF921F93FC
:1039C000CF93DF930F2EFDE6CF2ED12CF02DF601F5
:1039D00010811092C206A8958FE49AE10E940A090C
:1039E000E8E0F1E0808180618083749A8081806268
:1039F0008083759AEAE6F0E080818160808380812F
:103A000082608083EC9A80818B7F80838081886054
:103A10008083ED9A80E3F6018083E8E6F0E0808120
:103A200084608083789420E0822F869590E020FB4C
:103A3000EE24E0F8F12C880F991F8E0D9F1DFC01DC
:103A4000EE0FFF1FEC50FC4E11821082880F991F61
:103A5000FC01E85FFB4E118210822F5F2A3021F7B4
:103A6000A89584E659DFA895FFEF23ED30E3F150E8
:103A700020403040E1F700C00000A89580E04CDF16
:103A8000A8958FEF99E6E8E181509040E040E1F79A
:103A900000C0000020E0822F869590E0F22FF170A8
:103AA000CF2F30E0D32F880F991F8C0F9D1FDC0183
:103AB000AA0FBB1FA85FBB4E4D915C911197880F59
:103AC000991FFC01EC50FC4E5183408311961C92CF
:103AD0001E922F5F2A30F9F6A8958CE91DDF8FEF33
:103AE00093EDE0E381509040E040E1F700C000003A
:103AF000A89580E011DFA895FFEF20E732E0F150B4
:103B000020403040E1F700C0000081E08093C20611
:103B1000EAE6F0E080818160808380818D7F808310
:103B2000EC9A8081846080838081877F8083ED9A96
:103B3000E8E0F1E080818F7E8083749880818F7DC2
:103B40008083759810936D00A895DF91CF911F9198
:103B5000FF90EF90DF90CF9008950F931F93CF9336
:103B6000DF938C01862FEA01D7DE4091C006509189
:103B7000C1069801A4EDB1E00E94D13A9A0140E05B
:103B800050E00E94853A20932214309323144093EE
:103B900024145093251410921E1410921F14109286
:103BA000201410922114D0931D14C0931C14DF9183
:103BB000CF911F910F9108951F920F920FB60F9200
:103BC00011240BB60F922F933F934F935F936F93F4
:103BD0007F938F939F93AF93BF93EF93FF93E4EF04
:103BE000F3E184A195A124A135A141E0842781704E
:103BF0009927820F931F95A384A38091060185FFC7
:103C000006C0808D918D0196918F808F07C0E4EF63
:103C1000F3E1848995890196958B848BE4EFF3E138
:103C2000848D958D0196958F848F8091C20688230F
:103C300009F478C020912814309129148091261419
:103C40009091271428173907E8F180912214909158
:103C50002314A0912414B0912514892B8A2B8B2B2B
:103C600089F180911E1490911F14A0912014B0919D
:103C700021140196A11DB11D80931E1490931F1451
:103C8000A0932014B093211440911E1450911F143E
:103C9000609120147091211480912214909123142A
:103CA000A0912414B091251484179507A607B7078F
:103CB00048F4E0911C14F0911D14309709F0199507
:103CC00080E02ADE80912C1490912D14019690931F
:103CD0002D1480932C1480912F14882319F1809136
:103CE000F2138F5F8093F2132091281430912914DE
:103CF00090E082179307B0F01092F21380912801A0
:103D0000909129010B9738F0E8E2F1E080819181F0
:103D10000A9791838083EAE2F1E0808191810A969B
:103D200091838083FF91EF91BF91AF919F918F918C
:103D30007F916F915F914F913F912F910F900BBEAB
:103D40000F900FBE0F901F9018951F920F920FB6F5
:103D50000F9211240BB60F922F933F934F935F93C3
:103D60006F937F938F939F93AF93BF93EF93FF9343
:103D7000E4EFF3E186A197A126A137A141E08427D2
:103D800081709927820F931F97A386A3868D978DA5
:103D90000196978F868F8091060184FF06C0828DE1
:103DA000938D0196938F828F07C0E4EFF3E18689AC
:103DB00097890196978B868B8091C206882309F498
:103DC00078C0209128143091291480912614909164
:103DD000271428173907E8F58091221490912314AD
:103DE000A0912414B0912514892B8A2B8B2B89F157
:103DF00080911E1490911F14A0912014B091211451
:103E00000196A11DB11D80931E1490931F14A093C1
:103E10002014B093211440911E1450911F146091EE
:103E20002014709121148091221490912314A09158
:103E30002414B091251484179507A607B70748F4F2
:103E4000E0911C14F0911D14309709F0199580E051
:103E500063DD80912A1490912B14019690932B147A
:103E600080932A1480912F14882319F18091F113E3
:103E70008F5F8093F113209126143091271490E0E6
:103E800082179307B0F01092F11380912A0190915C
:103E90002B010B9738F0EAE2F1E0808191810A97DB
:103EA00091838083E8E2F1E0808191810A96918399
:103EB0008083FF91EF91BF91AF919F918F917F91FF
:103EC0006F915F914F913F912F910F900BBE0F908B
:103ED0000FBE0F901F901895CF93C82F862FDADC56
:103EE0008C2F1ADDCF910895BF92CF92DF92EF927F
:103EF000FF920F931F93CF93DF931F921F92CDB723
:103F0000DEB7D82EC0903014C11005C08FE99CE0F8
:103F10000E945332FEC1862F90E0FC017097E83377
:103F2000F10508F0F2C18827EF51FF4F8F4F0C9435
:103F3000C33A4111ECC11F928AE28F931F9286E42B
:103F40008F9382E08F93DF920E946D030F900F900A
:103F50000F900F900F900F90C12C6894BB24B1F874
:103F6000EC2DE695F0E0C0FAEE24E0F8F12CEE0F2F
:103F7000FF1FEE0DFF1DEE0FFF1FEC50FC4E80816A
:103F80009181BE016F5F7F4F0E9441158A811F9210
:103F90008F9389811F928F93BF92DF920E946D034E
:103FA000C3940F900F900F900F900F900F904AE0D6
:103FB000C412D6CF6894EE24E1F8EF2DE695F0E038
:103FC0000F2D017010E0EE0FFF1FE00FF11FEE0F3D
:103FD000FF1FE85FFB4E80819181BE016F5F7F4FC5
:103FE0000E9441158A811F928F9389811F928F931E
:103FF000EF92DF920E946D03F3940F900F900F9059
:104000000F900F900F905AE0F512D7CFCC24C394A5
:1040100080C141110DC01F9287E48F93DF920E94EF
:104020003F04C9DC0F900F900F90CC24C39471C152
:10403000413031F48D2D0E943104CC24C39469C1E8
:10404000642F8D2D0E9430041F9281E08F93DF92A8
:104050000E943F040F900F900F90CC24C39459C13D
:10406000423051F58D2D0E943104182F8D2D0E9464
:10407000310494E6910F993C98F48C398CF0853694
:104080007CF4682F812F28DF1F9280E18F93DF92CD
:104090000E943F040F900F900F90CC24C39439C11D
:1040A0001F9283E08F93DF920E943F040F900F9046
:1040B0000F90CC24C3942DC1642F8D2D0E94300409
:1040C0001F9281E08F93DF920E943F040F900F9028
:1040D0000F90CC24C3941DC1413001F58D2D0E9459
:1040E000310494E6980F993C68F416DC1F9281E144
:1040F0008F93DF920E943F040F900F900F90CC247B
:10410000C39407C11F9283E08F93DF920E943F0404
:104110000F900F900F90CC24C394FBC0642F8D2D73
:104120000E9430041F9281E08F93DF920E943F042F
:104130000F900F900F90CC24C394EBC0413001F549
:104140008D2D0E94310494E6980F993C68F4A2DB0F
:104150001F9282E18F93DF920E943F040F900F9095
:104160000F90CC24C394D5C01F9283E08F93DF922D
:104170000E943F040F900F900F90CC24C394C9C0AD
:10418000642F8D2D0E9430041F9281E08F93DF9267
:104190000E943F040F900F900F90CC24C394B9C09D
:1041A000433051F58D2D0E943104182F8D2D0E9422
:1041B00031048D2D0E94310494E6910F993C80F4D6
:1041C000482F612F110F770B880B990B28E63BE1E5
:1041D000ACDA63E18D2D0E947E04CC24C39499C097
:1041E0001F9283E08F93DF920E943F040F900F9005
:1041F0000F90CC24C3948DC0642F8D2D0E94300469
:104200001F9281E08F93DF920E943F040F900F90E6
:104210000F90CC24C3947DC0433041F58D2D0E9476
:104220003104182F8D2D0E943104082F8D2D0E94EE
:10423000310494E6910F993C68F490E043E75BE128
:10424000612F902B8ADC64E18D2D0E947E04CC24AA
:10425000C3945FC01F9283E08F93DF920E943F045C
:104260000F900F900F90CC24C39453C0642F8D2DCA
:104270000E9430041F9281E08F93DF920E943F04DE
:104280000F900F900F90CC24C39443C0423069F537
:104290008D2D0E943104182F8D2D0E943104212F65
:1042A00030E0322F2227A901482BCA019C01245B50
:1042B00031092333310568F421DA1F9285E18F93A8
:1042C000DF920E943F040F900F900F90CC24C39474
:1042D00020C01F9283E08F93DF920E943F040F90D3
:1042E0000F900F90CC24C39414C0642F8D2D0E9486
:1042F00030041F9281E08F93DF920E943F040F9061
:104300000F900F90CC24C39404C0C12C02C0CC24C5
:10431000C3948C2D0F900F90DF91CF911F910F912F
:10432000FF90EF90DF90CF90BF9008956F927F92B3
:104330009F92BF92CF92DF92EF92FF920F931F93C3
:10434000CF93FC0140E050E0B12C992493940F2EC0
:10435000FCE3CF2EF4E1DF2EF02D0F2EFDE3EF2E48
:10436000F4E1FF2EF02D0EE314E10F2EFBE36F2E90
:10437000F4E17F2EF02D80913A1490E0042E02C0DB
:10438000959587950A94E2F780FF1EC020813181C0
:10439000ADECBCEC0E94D13A9C0136952795369540
:1043A000279536952795922F413031F040F14230D4
:1043B00041F1433019F008C0D60124C0D30122C016
:1043C000963010F02C93B92C4F5F5F4F32964430EB
:1043D000510589F6E0913614F0913714309719F0B1
:1043E0008BE394E11995BB2089F0E0913414F091AE
:1043F0003514309759F08BE394E1199507C0D70134
:1044000001C0D8018C919813DBCFDECFCF911F91E3
:104410000F91FF90EF90DF90CF90BF909F907F9093
:104420006F90089580913A1426E931E245E062E008
:1044300071E00E94DA08809132149091331408954B
:1044400080913814811112C081E080933814E1E02A
:10445000F1E0808180628083E7E0F1E08081807F0D
:104460008083E8E0F1E08081807F808308958091FF
:104470003814811105C087EC9CE00C9453320895E8
:1044800080913914882331F0809139140E94FD30D5
:104490001092391408950F931F93CF93C82F8B0157
:1044A00080913814811105C08DEF9CE00E94533239
:1044B00016C0DDDF109337140093361410923514B4
:1044C00010923414C0933A1481E08093311426E999
:1044D00031E245E062E071E08C2F0E94DA08CF9172
:1044E0001F910F910895CF93DF93EB0190913814B2
:1044F000911105C081E39DE00E94533226C0982FA0
:104500009F7029F488E69DE00E9453321EC080937C
:104510003A14109237141092361450933514409375
:1045200034147093331460933214A1DFBE0182E11E
:1045300092E20E9483308093391480913914811162
:1045400004C08FE99DE00E945332DF91CF9108951E
:104550008091C3068823E1F020E030E041E051E0A3
:10456000249FC001259F900D349F900D1124815CE4
:104570009B4EFC01E250FF4F108231961082319623
:1045800010822F5F3F4F2530310551F71092C3063F
:104590000895CF93DF93D82FC62FDADFC53008F008
:1045A0004DC06C2F70E021E031E0629FC001639F3D
:1045B000900D729F900D1124815C9B4EFC01E25086
:1045C000FF4F20813196808128130EC081E091E059
:1045D000689FF001699FF00D789FF00D1124E15C58
:1045E000FA4E808181112CC021E031E0629FC00130
:1045F000639F900D729F900D1124815C9B4EFC0176
:10460000F39520812F5F20833297208131E0320F94
:104610003083DC01A20FB11DDC9380818E3F91F4C9
:1046200081E091E0689FF001699FF00D789FF00DA7
:104630001124E35CFA4E108281E005C080E003C0E3
:1046400080E001C081E0DF91CF910895CF93C82F22
:104650007FDFC53058F481E091E0C89FF001C99F29
:10466000F00D1124E15CFA4E808101C080E0CF9111
:1046700008950F931F93CF93DF938C01C62FD42FF0
:10468000403219F04530E0F501C0D0E08D2FDEDF7B
:104690008C17C0F14D2F50E081E091E0489FF00170
:1046A000499FF00D589FF00D1124E25CFA4E2081D5
:1046B000CC2351F1F801C1506C2F70E06F5F7F4F38
:1046C000600F711F30E0A1E0B1E04A9FC0014B9F35
:1046D000900D5A9F900D1124AC01415C5B4E2E3F12
:1046E00011F4932F01C0922F21E0290FDA01A90FB5
:1046F000B11D8C918193E617F70789F781E005C01A
:1047000080E003C080E001C081E0DF91CF911F9184
:104710000F910895CF93DF93C82FD62F19DFD5308F
:1047200008F042C06D2F70E081E091E0689FF001D9
:10473000699FF00D789FF00D1124E15CFA4E8081A5
:104740008C17A0F1CC23A1F181E091E0689FF001EA
:10475000699FF00D789FF00D1124E15CFA4E808185
:10476000882341F190E021E031E0629FF001639FF6
:10477000F00D729FF00D1124E15CFB4EDF01A150A2
:10478000BF4FF3958C918F5F8C9380818150808394
:104790008C918E3F09F41C929F5FC91769F080814C
:1047A0008111F0CF81E009C080E007C080E005C042
:1047B00081E003C081E001C081E0DF91CF910895E5
:1047C000CF93C82FC5DE21E031E0C29FC001C39F57
:1047D000900D1124815C9B4EFC01F3951082319762
:1047E00010823197108281E0CF91089521E031E06D
:1047F000482F429FC001439F900D1124815C9B4E26
:10480000FC01E250FF4F10823196108231961082E7
:104810000895FC019091441A923069F018F4913097
:1048200031F00895943059F0983069F008958281FC
:104830008093D81A089581818093D91A089583812D
:104840008093DA1A089580818093DB1A08959091FD
:10485000481A943019F0953061F013C095E09093A8
:10486000481A80958093451A65E081E089D781E0F8
:10487000089580958093461A81E08093471A80E0DE
:10488000089580E0089530914419832F90E08C3092
:10489000910508F056C0FC018827E75EFE4F8F4F58
:1048A0000C94C33A2FEF4FEF6FEF80E00E94E213BA
:1048B00048C02FEF4FEF6FEF832F0E94E2138091DC
:1048C000441920E040E060E081500E94E21339C0CA
:1048D00020E040E060E083E00E94E2138091441910
:1048E0002FEF4FEF6FEF8D5F0E94E213809144191D
:1048F00020E040E060E08E5F0E94E21322C020E0F2
:1049000040E060E08AE00E94E213909144192FEFAA
:104910004FEF6FEF8EE0891B0E94E21390914419D4
:1049200020E040E060E08FE0891B0E94E21309C0B4
:1049300020E040E060E084E00E94E21380E090E04C
:104940000895809144198F5F8093441986E990E01F
:104950000895E2E0F1E08081877F8083E1E0F1E08B
:1049600080818860808308C7089584E08093481A16
:104970001092471AE2E0F1E080818860808364E071
:1049800081E0FED687E294E22AD78091471A8823F5
:10499000E1F3E2E0F1E08081877F80830895CF93A7
:1049A000DF93C82F6333D1F5413071F0642F0E943B
:1049B00030041F9281E08F93CF930E943F040F90A9
:1049C0000F900F9081E072C00E943104D82F823086
:1049D00061F018F4813031F010C0843049F0883033
:1049E00051F00BC01092D81A08C01092D91A05C005
:1049F0001092DA1A02C01092DB1AD093441A1F9256
:104A000083E38F93CF930E943F0469E074E28D2F7C
:104A100042DD0F900F900F9081E048C0643309F0A1
:104A200044C04130A1F50E943104823061F018F495
:104A3000813031F011C0843049F0883051F00CC021
:104A40008091D81A14C08091D91A11C08091DA1AB5
:104A50000EC08091DB1A0BC01F9283E08F93CF931F
:104A60000E943F040F900F900F9081E01FC01F9293
:104A70008F9381E08F9384E38F93CF930E943F04C1
:104A80000F900F900F900F900F9081E00FC0642F48
:104A90000E9430041F9281E08F93CF930E943F04C5
:104AA0000F900F900F9081E001C080E0DF91CF91D7
:104AB0000895CF93683459F5642FC82F41111AC057
:104AC00054DFE5E4FAE1918180811F929F931F9268
:104AD0008F9382E08F9388E48F93CF930E943F045B
:104AE0008DB79EB707960FB6F8949EBF0FBE8DBFC9
:104AF00081E00EC00E9430041F9281E08F93CF931B
:104B00000E943F040F900F900F9081E001C080E061
:104B1000CF9108951F93CF93DF936233A1F5642F54
:104B2000C82F411123C080E10E94380AD82F80E2AB
:104B30000E94380A182F80E40E94380A110F24E0DE
:104B4000829FC0011124212F282BD22B1F92DF938B
:104B500081E08F9382E38F93CF930E943F040F9065
:104B60000F900F900F900F9081E00EC00E943004C4
:104B70001F9281E08F93CF930E943F040F900F907C
:104B80000F9081E001C080E0DF91CF911F910895E7
:104B9000AF92BF92DF92EF92FF920F931F93CF934A
:104BA000DF93CDB7DEB71D85DE847E018FE0E80E92
:104BB000F11CDD2079F100E0113081F028F0123095
:104BC000B9F01330E9F026C0570192E0A90EB11CEC
:104BD000F70180810E943532750119C05701F2E05A
:104BE000AF0EB11CF70180810E94D63275010FC053
:104BF000F7018081F2E0EF0EF11C0E944E3307C0F6
:104C0000F701808192E0E90EF11C0E94C6330F5F2C
:104C1000D012D2CFDF91CF911F910F91FF90EF90E3
:104C2000DF90BF90AF900895FF920F931F93CF93A3
:104C3000DF93683109F06CC0142FD82F411157C091
:104C4000A5E4B9E10D900020E9F71197A554B94109
:104C5000A430B10549F0AB5BB64E85E0E2EEFDE075
:104C600001900D928A95E1F7E5E4F9E101900020C9
:104C7000E9F73197E554F941FF93EF931F9288E1EB
:104C80008F9382E08F93DF9383DF0F900F900F90CD
:104C90000F900F900F90C0E005E419E1FF24F3940A
:104CA0000FC0EC2FF0E0EB5BF64E80811F928F93EC
:104CB000FF92DF936DDFCF5F0F900F900F900F90FB
:104CC000F80101900020E9F73197E554F9412C2FC4
:104CD00030E02E173F0729F785E0E2EEFDE0A5E47E
:104CE000B9E101900D928A95E1F781E012C088E167
:104CF0000E94353280E00E943532C0E08D2F0E9444
:104D000031040E944E33CF5F1C13F8CF81E001C005
:104D100080E0DF91CF911F910F91FF900895EF9266
:104D2000FF920F931F93CF93DF93C82F162FD42F8B
:104D3000673061F4642F0E9430041F921F92CF935A
:104D40000E943F040F900F900F900EC1623209F045
:104D500049C04230F1F40E943104D82F8C2F0E94B8
:104D600031042D2F30E0322F2227A901480F511D89
:104D7000CA01E8D59F938F9381E08F9382E28F934E
:104D8000CF930E943F040F900F900F900F900F90C1
:104D9000EBC04330E9F40E943104D82F8C2F0E94DD
:104DA0003104182F8C2F0E943104682F70E08D2F52
:104DB00090E0982F8827810F911DBCD51F9282E229
:104DC0008F93CF930E943F040F900F900F90CCC011
:104DD0001F9283E08F93CF930E943F040F900F9018
:104DE0000F90C2C0693109F041C0413051F01F92AB
:104DF00083E08F93CF930E943F040F900F900F900A
:104E0000B3C00E943104D82F813081F40F2EFCE210
:104E1000EF2EFF24F394F02D08EE28EE40E855E243
:104E200060E070E082E00E94B90311C0811105C00A
:104E300082E090E00E941E040AC01F9283E08F93DC
:104E4000CF930E943F040F900F900F908DC01F9240
:104E5000DF9381E08F9389E18F93CF930E943F048A
:104E60000F900F900F900F900F907EC0DDDE81119C
:104E70007BC0183029F468EE8C2F0E94300474C077
:104E80001731E9F41F9287E18F93CF930E943F047B
:104E90005FEF80E792E0515080409040E1F700C022
:104EA000000098E088E10FB6F894A8958093600020
:104EB0000FBE909360000F900F900F90FFCF4D2F7B
:104EC000612F8C2F6CDD81114FC04D2F612F8C2FE6
:104ED000F0DD811149C04D2F612F8C2F1BDE811118
:104EE00043C04D2F612F8C2F0E94FE1381113CC0B7
:104EF0004D2F612F8C2F0E94A637811135C04D2F69
:104F0000612F8C2F0E94691881112EC04D2F612FA7
:104F10008C2F0E94741F811127C04D2F612F8C2F61
:104F20000E947335811120C04D2F612F8C2F95D297
:104F300081111AC04D2F612F8C2F0E9409078111FA
:104F400013C04D2F612F8C2F0E949A1081110CC01D
:104F50006D2F8C2F0E9430041F921F92CF930E94BE
:104F60003F040F900F900F90DF91CF911F910F9101
:104F7000FF90EF900895CF93DF931F921F92CDB7CC
:104F8000DEB719821A828091D6008983BE016F5FD5
:104F90007F4F85E499E10E94113C0F900F90DF91C3
:104FA000CF910895CF93DF9300D01F92CDB7DEB796
:104FB000CFDA85E0E2EEFDE0A5E4B9E101900D92E3
:104FC0008A95E1F760E87AE186E090E0C2D468E291
:104FD00089E190E076D78FE896E20E9428050F2EAF
:104FE000FCE2EF2EFF24F394F02D04E624E640E8E3
:104FF00055E260E070E080E00E94B90324E640E8FA
:1050000055E260E070E082E00E94B90320E042E0F7
:1050100060E875E280E090E00E94DE32E2EDF0E0D0
:10502000808188608083E1EDF0E08081806880830A
:10503000FAD60E94781320E040E060E080E00E9411
:10504000E2130E9426360E94CC170E94910B37D0A3
:10505000CE0101960E94F3340E94E81B0E94530681
:105060000E940C0A76DC66E970E083E494E20E9418
:1050700083309FE088E10FB6F894A8958093600094
:105080000FBE90936000A895FECF1F926F931F9262
:105090007F931F928F931F929F931F9281E08F9314
:1050A00085E08F9386E38F930E9493048DB79EB71C
:1050B0000C960FB6F8949EBF0FBE8DBF08950F9348
:1050C0001F93CF93DF9380916C1A811166C081E0AA
:1050D00080936C1A80E092E090936B1A80936A1A26
:1050E00067E082E290E0BAD480916A1A90916B1ADC
:1050F00029D48093691AC9E4DAE100E010E08091D4
:105100006A1A90916B1A0196800F911F1BD490E040
:10511000A0E0B0E0B82FAA27992788278883998331
:10512000AA83BB8380916A1A90916B1A0296800FB2
:10513000911F08D4488159816A817B81682B4883FB
:1051400059836A837B8380916A1A90916B1A0396C4
:10515000800F911FF7D3488159816A817B81582B39
:10516000488359836A837B8380916A1A90916B1A72
:105170000496800F911FE6D3488159816A817B8113
:10518000482B49935993699379930C5F1F4F0032D1
:10519000110509F0B4CFF3D501C080E0DF91CF91C4
:1051A0001F910F91089580916C1A811105C087EEAF
:1051B0009DE00C94533208958091751A882331F044
:1051C0008091751A0E94FD301092751A08950F9300
:1051D0001F93CF938C01C0916C1AC11105C08CE153
:1051E0009EE00E9453320DC096D5811104C093D524
:1051F000C82F882331F0C801CFD5C1E0811101C08B
:10520000C0E08C2FCF911F910F9108950F931F93A2
:10521000CF93DF9300D01F92CDB7DEB7CE010196BA
:10522000D6DF8823F9F069817A818B819C81009196
:105230006D1A10916E1A20916F1A3091701A06171C
:10524000170728073907B1F060936D1A70936E1A2B
:1052500080936F1A9093701AE091731AF091741AF8
:10526000199508C010926D1A10926E1A10926F1A4A
:105270001092701A8091711A9091721A0F900F907B
:105280000F900F90DF91CF911F910F910895809112
:105290006C1A811105C080E49EE00C94533208958D
:1052A0001092691A60E080916A1A90916B1A42C359
:1052B00008950F931F938B019C019091691A992374
:1052C00011F14091491A50914A1A60914B1A70910C
:1052D0004C1A041715072607370769F40AC04191CD
:1052E000519161917191401751076207730731F431
:1052F0000BC080E009C0EDE4FAE180E08F5F891324
:10530000EECF8FEF01C08FEF1F910F910895CF92D5
:10531000DF92EF92FF92CF936B017C0180916C1A28
:10532000811106C08DE69EE00E9453328FEF6AC065
:10533000C091691AC83008F062C0C701B601B9DF70
:1053400088230CF05EC02C2F30E0220F331F220F79
:10535000331FF901E75BF54EC082D182E282F3820E
:105360006F2D77278827992740916A1A50916B1AD9
:105370004F5F5F4FCA01820F931FDCD2B7018827AE
:1053800099272091691A40916A1A50916B1A4E5FC1
:105390005F4FCA0134E0239F800D911D1124CAD2B2
:1053A00099278F2D7E2D6D2D2091691A40916A1AB3
:1053B00050916B1A4D5F5F4FCA0134E0239F800DFF
:1053C000911D1124B7D22091691A80916A1A909187
:1053D0006B1A04966C2D34E0239F800D911D1124CF
:1053E000A9D26091691A6F5F6093691A80916A1AF5
:1053F00090916B1A9FD28091691A815003C08FEFF0
:1054000001C08FEFCF91FF90EF90DF90CF90089584
:105410009C0190916C1A911105C087E99EE00C9453
:10542000533208957093741A6093731A3093721AFA
:105430002093711AB8DE6091711A7091721A86E029
:1054400099E261D68093751A8091751A811104C012
:105450008DEC9EE00C9453320895CF92DF92EF9240
:10546000FF920F931F93CF93DF9300D01F92CDB77E
:10547000DEB7082F10916C1A111105C08EE09FE065
:105480000E9453325EC1673309F48EC030F4653335
:1054900059F0663309F441C053C1683309F4AFC011
:1054A000693309F40BC14CC1411129C0CE010196E9
:1054B0008EDE8823C9F039812A819B818C811F92DD
:1054C0003F931F922F931F929F931F928F9384E07D
:1054D0008F9385E38F930F930E943F040FB6F89448
:1054E000DEBF0FBECDBF09C01F9285E38F930F9320
:1054F0000E943F040F900F900F9011E022C1642F83
:105500000E9430041F9281E08F930F930E943F040A
:105510000F900F900F9011E014C14230B9F50E9426
:105520003104E82E802F0E9431048E29E82EF12CC0
:105530003ADEE114F10471F486E30E94F4041F9250
:1055400086E08F930F930E943F040F900F900F906F
:1055500011E0F7C025D5BC01C7010E945E3A892B36
:1055600059F01F9283E08F930F930E943F040F9096
:105570000F900F9011E0E5C066E3802F0E947E043B
:1055800065E478E2C70144DF11E0DBC0642F0E94CC
:1055900030041F9281E08F930F930E943F040F907D
:1055A0000F900F9011E0CDC04130D9F40E9431042A
:1055B000863A59F01F9283E08F930F930E943F0425
:1055C0000F900F900F9011E0BCC061DE1F9287E337
:1055D0008F930F930E943F040F900F900F9011E054
:1055E000B0C0642F0E9430041F9281E08F930F930C
:1055F0000E943F040F900F900F9011E0A2C0453021
:1056000009F04EC00E943104182F802F0E943104EF
:10561000D82E802F0E943104F82E802F0E94310452
:10562000E82E802F0E943104282F163A59F01F923D
:1056300083E08F930F930E943F040F900F900F9081
:1056400011E07FC08F2D90E0A0E0B0E0DC01992751
:105650008827BD29822BBC01CD017E2958DE8823F5
:10566000A4F0282F082E000C330B3F938F9381E07A
:105670008F9388E38F930F930E943F040F900F90B6
:105680000F900F900F9011E05CC01F9282E08F93FB
:105690000F930E943F040F900F900F9011E051C0A4
:1056A000642F0E9430041F9281E08F930F930E9419
:1056B0003F040F900F900F9011E043C0443091F5DC
:1056C0000E943104C82ED12CE12CF12CFC2CEE24AC
:1056D000DD24CC24802F0E943104E82A802F0E94F0
:1056E0003104182F802F0E943104A7019601282B26
:1056F000DA01C901BC01CD01712BDBDD282F082E99
:10570000000C330B3F938F9381E08F9389E38F934A
:105710000F930E943F040F900F900F900F900F90E7
:1057200011E00FC0642F0E9430041F9281E08F931C
:105730000F930E943F040F900F900F9011E001C053
:1057400010E0812F0F900F900F900F90DF91CF916D
:105750001F910F91FF90EF90DF90CF900895CF931E
:10576000C091761AC11104C08AE39FE09CD601C0A3
:10577000C1E08C2FCF91089581E08093761A08952F
:10578000CF93DF93C82FD62FEADF882329F1ECE7E8
:10579000F0E08081282F2F7330E4C39FC0011124D3
:1057A000822B8083D83050F48081807ED82BD083A8
:1057B000EBE7F0E08081877F80830EC0D03160F41A
:1057C000ECE7F0E08081807ED850D82BD083EBE7E7
:1057D000F0E0808188608083DF91CF910895CF933E
:1057E000DF93EC01BCDF8823E9F0ECE7F0E0808197
:1057F00080628083EAE7F0E08FE8808310927A1A73
:105800001092791A1092781A1092771AD0937E1A01
:10581000C0937D1A10927C1A10927B1A808180644A
:1058200080837894DF91CF910895CF93DF93EC013B
:1058300096DF8823E9F0ECE7F0E080818F7D8083BC
:10584000EAE7F0E08FE8808310927A1A1092791AD2
:105850001092781A1092771A10927E1A10927D1A6E
:10586000D0937C1AC0937B1A808180648083789463
:10587000DF91CF9108951F920F920FB60F921124CE
:105880000BB60F922F933F934F935F936F937F933A
:105890008F939F93AF93BF93EF93FF93E0917D1A04
:1058A000F0917E1A309721F080917900199501C00E
:1058B00080E0E0917B1AF0917C1A309729F080917A
:1058C0007800909179001995E091791AF0917A1AFF
:1058D000309721F080917900199519C0E091771ADD
:1058E000F091781A309731F080917800909179009A
:1058F00019950DC0882331F0EAE7F0E080818064DB
:10590000808305C0EAE7F0E080818F778083FF9194
:10591000EF91BF91AF919F918F917F916F915F9127
:105920004F913F912F910F900BBE0F900FBE0F9094
:105930001F901895F999FECF92BD81BD60BDFA9A6E
:10594000F99A0895F999FECF92BD81BDF89A80B574
:1059500008959B01AC0181E080937F1AECEBF0E0AD
:1059600080818B7F80831092B90060E074E284EFC5
:1059700090E00E94853ADA01C9014097A109B10976
:10598000B695A795979587958093B8002FEF80E7F8
:1059900092E0215080409040E1F700C0000008955F
:1059A0001F93CF93DF93162FE091DD1AF091DE1A4B
:1059B0002081C1E0D0E0AE010090DC1A02C0440FAB
:1059C000551F0A94E2F7942F909592239083880FA5
:1059D0008E7754D2812F52D2E091DD1AF091DE1AE7
:1059E00080810090DC1A02C0CC0FDD1F0A94E2F720
:1059F000C82BC083DF91CF911F910895CF93DF9380
:105A0000E091DD1AF091DE1A2081C1E0D0E0AE0114
:105A10000090DC1A02C0440F551F0A94E2F7942F3D
:105A2000909592239083880F8E77806827D280E0AC
:105A300025D2E091DD1AF091DE1A90810090DC1AF7
:105A400002C0CC0FDD1F0A94E2F7C92BC083DF919F
:105A5000CF9108956FE081E0A3CF08959093DE1A6F
:105A60008093DD1A6093DC1AFC01708121E030E044
:105A7000A90102C0440F551F6A95E2F7472B4083E6
:105A8000E091DD1AF091DE1A82910090DC1A02C0DA
:105A9000220F331F0A94E2F7282B2083E6D18111CD
:105AA00001C0C1D1D7DF6DE88AE27ADF6EE38BE215
:105AB00077DF6EE18CE274DF60E08DE271DF60E43D
:105AC00085E16EDF6DE381E16BDF68E786E268DF29
:105AD0006FE782E065DF84E191DF982F937021F416
