:1000000024C1000043C1000041C1000078C50000C8
:100010003DC100000C940D1F0C944A1E37C1000016
:1000200035C100000C94260A31C100000C9403096C
:100030002DC100002BC100000C941C1527C100002D
:1000400025C100000C94753021C100001FC10000C3
:100050001DC100001BC1000019C100000C94D20F8B
:1000600015C1000011C2000011C100000FC1000045
:100070000DC100000C94D12C09C1000007C1000083
:100080000C94650D03C1000001C10000FFC0000019
:100090007DC20000FBC00000F9C00000F7C00000F6
:1000A000F5C00000F3C000000C948508EFC000000C
:1000B000EDC00000EBC00000E9C00000E7C0000098
:1000C000E5C00000E3C00000E1C0000097C20000EE
:1000D000DDC00000DBC00000CCC20000D7C00000C3
:1000E000D5C000008E0D960DA50DB40D270E360E51
:1000F000450EB70EC60ED50E90178C1787178317AF
:100100007E177917751770176B17671762175D17CA
:10011000591754174F174B17461741173D173817E4
:1001200033172F172A17251721171C1717171317FF
:100130000E17091705170017FB16F716F216ED161E
:10014000E916E416DF16DB16D616D116CD16C8163C
:10015000C316BF16BA16B516AE16A716A016991670
:1001600092168B1684167D1676166F166816611613
:100170005A1653164C1645163E16371630162916C3
:1001800022161B1614160D160616FF15F815F11576
:10019000EA15E315DC15D515CE15C715C015B9152B
:1001A000B215AB15A4159D1596158F1588158115DB
:1001B0007A1573156C1565155E155715501549158B
:1001C0004215D72010213F216E21A721DE211A22BE
:1001D0001A221A221A221A221A221A221A221A223F
:1001E0001A221A221A221A221A221A221A221A222F
:1001F0001A221A221A221A221A221A221A221A221F
:100200001A221A221A221A221A221A221A221A220E
:100210001A221A221A221A221A221A221A221A22FE
:100220001A221A221A221A221A221A221A22FF1F0C
:10023000B320E824EF24EF24EF24FE240425042532
:10024000042515251B251B252E2511241FBECFEFA8
:10025000D1E2DEBFCDBF00E00CBF13E1A0E0B2E011
:10026000EEE1FFE700E00BBF02C007900D92A8345B
:10027000B107D9F72AE1A8E4B3E101C01D92AB3E72
:10028000B207E1F70E9468280C948D3FB9CE0F9217
:100290001F92CF93DF93D92FC82FA881B9812A81CC
:1002A0000B80209D23E0029ED72FC62F388191E03E
:1002B000442319F0990F4A95E9F7CA958881892B4B
:1002C0008883C3958D9178E0880F68F0392B9095DD
:1002D0003883000000003923909538830000000027
:1002E0007A9591F70FC0392B909538830000000064
:1002F00000000000000000000000392390953883C2
:100300007A9511F70A94F1F6DF91CF911F900F9033
:1003100008952F923F924F925F926F927F928F92A9
:100320009F92AF92BF92CF92DF92EF92FF920F9384
:100330001F93CF93DF9300D0CDB7DEB7412C662457
:1003400063940F2EFFE4CF2EF3E1DF2EF02D0F2E5E
:10035000F7E5EF2EF3E1FF2EF02D00E010E0542C36
:10036000702E80915F1390E0002E02C095958795C6
:100370000A94E2F780FF08C0E0914A13F0914B1312
:10038000662D802F19955AC0802F0E94BC23282EDD
:1003900081E0821508F052C0402F62E0CE01019644
:1003A0000E94CF23882309F449C04701F7018081C7
:1003B0009181009711F00E941E3C3A80A32CB12C31
:1003C000F2E0AF0EB11CC5010E94863BF40191839F
:1003D0008083009751F4E0914A13F0914B1360E051
:1003E000872D19958AEF90E039C0311004C0F601CD
:1003F0009183808306C09C012E5F3F4FF6013183BD
:100400002083222D30E02A153B05C4F062E0630D05
:10041000472D0E94CF23882389F08A81672D8E5F24
:100420000E942024872D0E94BC23E0914C13F09160
:100430004D134A816981872D1995562C0F5F1F4FE7
:10044000F2E0CF0ED11C82E0E80EF11C0430110561
:1004500009F086CF511075CF89E190E00F900F9091
:100460000F90DF91CF911F910F91FF90EF90DF9050
:10047000CF90BF90AF909F908F907F906F905F9044
:100480004F903F902F9008951F920F920FB60F92AA
:1004900011240BB60F922F933F934F935F936F935B
:1004A0007F938F939F93AF93BF93CF93EF93FF93DC
:1004B000F8948091491380FF4BC0C091C600C032B0
:1004C00009F048C081E08093481360E080E20E9418
:1004D0005F2381113DC080915F13816080935F1322
:1004E00037C080914813823058F180FF06C0C11197
:1004F0000AC08F5F8093481309C0CF3F21F48F5FFC
:100500008093481303C01092481322C0809148136F
:100510008C30F1F480E090E00E948C2480E20E9414
:10052000CB328AE00E94CB32C5E08FEF0E94CB3203
:1005300080E00E94CB32C150C1F71092481308C02E
:10054000CA3021F48F5F8093481302C01092481381
:10055000789408C060E08C2F0E945F23882309F400
:10056000BACFBFCFFF91EF91CF91BF91AF919F9144
:100570008F917F916F915F914F913F912F910F904C
:100580000BBE0F900FBE0F901F9018951F920F92E9
:100590000FB60F9211240BB60F922F933F934F93E8
:1005A0005F936F937F938F939F93AF93BF93EF93DB
:1005B000FF93F8948091491381FF0CC08091CE0085
:1005C00061E00E945F23811105C080915F1382600A
:1005D00080935F137894FF91EF91BF91AF919F91BA
:1005E0008F917F916F915F914F913F912F910F90DC
:1005F0000BBE0F900FBE0F901F9018951F920F9279
:100600000FB60F9211240BB60F922F933F934F9377
:100610005F936F937F938F939F93AF93BF93EF936A
:10062000FF93F8948091491382FF0DC08091D6000A
:1006300062E00E945F23811108C080915F13846093
:1006400080935F1302C00E9451287894FF91EF912C
:10065000BF91AF919F918F917F916F915F914F91DA
:100660003F912F910F900BBE0F900FBE0F901F90D8
:1006700018951F920F920FB60F9211240BB60F927E
:100680002F933F934F935F936F937F938F939F939A
:10069000AF93BF93EF93FF93F8948091360163E09B
:1006A0000E945F23811105C080915F138860809351
:1006B0005F137894FF91EF91BF91AF919F918F91CC
:1006C0007F916F915F914F913F912F910F900BBE52
:1006D0000F900FBE0F901F901895AF92BF92DF92B0
:1006E000EF92FF920F931F93CF93DF93CDB7DEB7B7
:1006F0001D85DE847E018FE0E80EF11CDD2079F19E
:1007000000E0113081F028F01230B9F01330E9F038
:1007100026C0570192E0A90EB11CF70180810E940A
:10072000CB32750119C05701F2E0AF0EB11CF701D1
:1007300080810E946C3375010FC0F7018081F2E067
:10074000EF0EF11C0E94E43307C0F701808192E0B4
:10075000E90EF11C0E945C340F5FD012D2CFDF9102
:10076000CF911F910F91FF90EF90DF90BF90AF90CE
:100770000895CF92DF92EF92FF92CF93C82F6A0134
:100780007B010E943E23C130B9F028F0C23029F12C
:10079000C33079F14CC020E042E0C701B6010E94AD
:1007A0005A32E2ECF0E0808188608083E1ECF0E096
:1007B0008081806880832DC020E042E0C701B601BF
:1007C0000E94FC32EAECF0E0808188608083E9ECF2
:1007D000F0E08081806880831CC020E042E0C70197
:1007E000B6010E947433E1EDF0E08081806880837F
:1007F00010C020E042E0C701B6010E94EC33E2E302
:10080000F1E0808188608083E1E3F1E080818068AD
:1008100080832091491381E090E002C0880F991FE6
:10082000CA95E2F7822B8093491381E001C080E0F2
:10083000CF91FF90EF90DF90CF9008959091491362
:1008400021E030E0082E02C0220F331F0A94E2F7A5
:10085000209529232093491390E00C948C2408952B
:100860000895E82FF0E0EE0FFF1FE15BFC4EA08142
:10087000B181CD010196918380838C910895CF92AF
:10088000DF92EF92FF920F931F93CF93DF93CDB739
:10089000DEB7DC840E851F920F931F928D858F9398
:1008A00082E08F93DF9219DF0F900F900F900F90DF
:1008B0000F900F900023C9F07E018FE0E80EF11C2D
:1008C00010E0CC24C394F701818192E0E90EF11C81
:1008D0008F9380818F93CF92DF92FFDE1F5F0F9007
:1008E0000F900F900F900113EECFDF91CF911F91DA
:1008F0000F91FF90EF90DF90CF900895E82FF0E0F8
:10090000E655F54E60831F921F921F9295E09F93CC
:1009100092E09F938F93E1DE0F900F900F900F90D6
:100920000F900F900895CF92DF92EF92FF920F9366
:100930001F93CF93DF93CDB7DEB78C85ED84909175
:10094000AA1A8917C1F09091AB1A981769F0909183
:10095000AC1A891761F09091AD1A98130EC00F2E42
:10096000F3E0DF2EF02D0CC0DD24D39409C0689491
:10097000DD24D1F805C0D12C03C06894DD24D2F861
:100980000E2D10E01F92EF921F928F9382E08F93B3
:10099000DF92A3DE0F900F900F900F900F900F90AB
:1009A000012BC9F08E01025F1F4FEE20A1F0F12C48
:1009B000CC24C394F80181810E5F1F4F8F938081F7
:1009C0008F93CF92DF9289DEF3940F900F900F9068
:1009D0000F90EF10EFCFDF91CF911F910F91FF900C
:1009E000EF90DF90CF9008959091AA1A8917C1F0E7
:1009F0009091AB1A891761F09091AC1A891761F048
:100A00009091AD1A981313C093E0E3E0F0E00BC0AF
:100A100091E0E1E0F0E007C092E0E2E0F0E003C046
:100A2000E0E0F0E090E0E655F54E108201C094E081
:100A30001F921F921F9286E08F9382E08F939F9365
:100A40004CDE0F900F900F900F900F900F90089525
:100A5000CF93DF93EC010E943E2380914E138111CE
:100A600008C06CE271E089E891E00E94193180933E
:100A70004E13209721F0D0934D13C0934C13DF9168
:100A8000CF91089510926A13109266131092671313
:100A900010926813109269138091AE1A81110E940E
:100AA000173288EC90E008951F926F931F927F9306
:100AB0001F928F931F929F9384E08F9387E58F936C
:100AC000809162138F93DBDE8DB79EB70B960FB6C6
:100AD000F8949EBF0FBE8DBF0895CF93DF93EC01B6
:100AE00080916313811104C085EE96E00E94E93283
:100AF000D0936513C0936413DF91CF9108951F9233
:100B00000F920FB60F9211240BB60F920F931F93F3
:100B10002F933F934F935F936F937F938F939F9305
:100B2000AF93BF93EF93FF93E4E8F0E0808191816E
:100B30002091601330916113821B930B9C014081C3
:100B400051815093611340936013992334F42091A1
:100B5000880030918900280F391F80916A13811114
:100B600012C08091AE1A0E94383210926613109211
:100B70006713109268131092691380916A138F5F44
:100B800080936A1376C0813051F42536310518F40C
:100B900010926A136EC082E080936A136AC0823238
:100BA00051F42536310518F410926A1362C083E2BD
:100BB00080936A135EC0833289F52536310558F17A
:100BC0008091641390916513892B89F08091AE1AFE
:100BD0000E941732609166137091671380916813B9
:100BE00090916913E0916413F0916513199564E095
:100BF000809169130E945F2364E0809168130E94D2
:100C00005F2364E0809167130E945F2364E080911A
:100C100066130E945F2310926A132BC09EEF980FF9
:100C2000903238F52536310508F540E050E060E0B7
:100C300070E89EEF980F04C0769567955795479595
:100C40009A95D2F70091661310916713209168135B
:100C500030916913402B512B622B732B40936613F9
:100C60005093671360936813709369138F5F809339
:100C70006A138091AE1A81110E94F531FF91EF91B4
:100C8000BF91AF919F918F917F916F915F914F91A4
:100C90003F912F911F910F910F900BBE0F900FBEA0
:100CA0000F901F90189580916313811124C081E0EB
:100CB00080936313539A5B9852985A9AE9E6F0E04E
:100CC00080818062808380818F7E8083EA9A68EC55
:100CD00070E082E495E00E9419318093AE1A811190
:100CE00004C08AE197E00E94E9328091AE1A811136
:100CF0000E94173278940895009789F020E030E040
:100D00005B9A45E44A95F1F700005B9845E44A9503
:100D1000F1F700002F5F3F4F8217930789F708957F
:100D20008F929F92AF92BF92CF92DF92EF92FF92FB
:100D30001F93CF93DF936B017C018091631381112B
:100D400005C085EE96E00E94E93257C01FB7F894BF
:100D500086E591E0D1DF8FE496E40197F1F700C0DA
:100D60000000C0E0D0E0812C912C54016894B7F8C9
:100D7000D501C4010C2E04C0B695A795979587950B
:100D80000A94D2F78C219D21AE21BF21892B8A2B79
:100D90008B2B51F085E190E0AFDF8FEB98E001976E
:100DA000F1F700C0000009C085E190E0A5DF87E60B
:100DB0009AE10197F1F700C000002196C032D105F9
:100DC000B9F685E190E098DF87E69AE10197F1F7BF
:100DD00000C0000085E190E08FDF87E69AE101978F
:100DE000F1F700C0000085E190E086DF87E69AE138
:100DF0000197F1F700C000001FBFDF91CF911F9155
:100E0000FF90EF90DF90CF90BF90AF909F908F902A
:100E100008958F929F92AF92BF92CF92DF92EF92FE
:100E2000FF920F931F93CF93DF93CDB7DEB7DA9581
:100E30000FB6F894DEBF0FBECDBFF82E109163132E
:100E4000111105C086E497E00E94E93200C16535C2
:100E500059F020F4633209F494C0F8C06635B1F15A
:100E6000673509F471C0F2C0443021F5FADC182F5F
:100E70008F2DF7DC882E912CA12CB12C54019924B4
:100E80008824B12A8F2DEDDC182F8F2DEADCA501E7
:100E90009401282BDA01C901BC01CD01712B40DF7F
:100EA0001F9285E58F93FF92EADC0F900F900F90D1
:100EB00011E0CDC0642FD4DC1F9281E08F93FF92AC
:100EC000DEDC0F900F900F9011E0C1C0443081F52F
:100ED000C8DC182F8F2DC5DC882E912CA12CB12CAD
:100EE000540199248824B12A8F2DBBDC182F8F2D13
:100EF000B8DC882AC501B401712BE0916413F0912C
:100F00006513309759F019951F9286E58F93FF92DC
:100F1000B6DC0F900F900F9011E099C01F9282E005
:100F20008F93FF92ACDC0F900F900F9011E08FC069
:100F3000642F96DC1F9281E08F93FF92A0DC0F90CC
:100F40000F900F9011E083C041110FC08093621386
:100F500084E595E0C2DD1F9287E58F93FF928FDCD9
:100F60000F900F900F9011E072C0642F79DC1F92E8
:100F700081E08F93FF9283DC0F900F900F9011E030
:100F800066C0411148C084E00E94BC23C82E811174
:100F900010C01F921F921F9283E28F9382E08F9363
:100FA000FF929BDB0F900F900F900F900F900F9080
:100FB00030C044E0682FCE0101960E94CF231F92DB
:100FC000CF921F9283E28F9382E08F93FF9285DB13
:100FD0008E010F5F1F4FCA94D12C3FEFC31AD30A63
:100FE000C00ED11E0F900F900F900F900F900F908A
:100FF000EE24E394F80181918F011F928F93EF9279
:10100000FF926BDB0F900F900F900F900C151D054A
:1010100089F711E01CC0413069F484E00E94762415
:101020001F9283E28F93FF922ADC0F900F900F9014
:1010300011E00DC0642F14DC1F9281E08F93FF92AA
:101040001EDC0F900F900F9011E001C010E0812F77
:10105000D3950FB6F894DEBF0FBECDBFDF91CF9111
:101060001F910F91FF90EF90DF90CF90BF90AF90C6
:101070009F908F90089581E080936B1380E090E0C3
:101080000895E091B21AF091B31A429181E090E094
:101090009C010090DF1A02C0220F331F0A94E2F76E
:1010A000242B2083E091B21AF091B31A3081AC0165
:1010B0000090DF1A02C0440F551F0A94E2F7242F54
:1010C00020952323208323E130E03093A90020934F
:1010D000A80022E0209372001092A5001092A400B4
:1010E0001092A0002AE02093A100E091B21AF091A2
:1010F000B31A20810090DF1A02C0880F991F0A944A
:10110000E2F7822B8083789408951F920F920FB696
:101110000F9211240BB60F922F938F939F93EF93FF
:10112000FF93E091B21AF091B31A808190E00090A1
:10113000DF1A02C0959587950A94E2F780FF25C0D3
:101140008BE08093A100E091B21AF091B31A208154
:1011500081E090E00090DF1A02C0880F991F0A9486
:10116000E2F78095822380831092A5001092A4005C
:101170008FE790E09093A9008093A8001092C51A81
:101180001092C41A1092C61A09C08091C41A909184
:10119000C51A01969093C51A8093C41AFF91EF91D6
:1011A0009F918F912F910F900BBE0F900FBE0F90BC
:1011B0001F901895CF93C82F8093B11A3093B01A0F
:1011C0002093AF1A7093B31A6093B21A4093DF1A48
:1011D0001092C61A64E670E08BE398E00E94193121
:1011E00010926B139091B11AE6E0F1E080818923AF
:1011F000E9F747DFE8E6F0E0808184608083C09310
:101200006D00CF9108951F920F920FB60F92112487
:101210000BB60F922F923F924F925F926F927F92F6
:101220008F929F92AF92BF92CF92DF92EF92FF92F6
:101230000F931F932F933F934F935F936F937F93DE
:101240008F939F93AF93BF93CF93DF93EF93FF93CE
:10125000B09006010091B11AB022A090C61AAB243A
:10126000B092C61A212C312C3090C41A0F2EF4EBF8
:10127000EF2EFAE1FF2EF02DC7ECDAE10F2EFFED95
:10128000CF2EFAE1DF2EF02D9924939411E0812CDA
:1012900044244A94542C612C712C802F812309F40E
:1012A00062C08A2D812309F45AC08B2D812361F0FD
:1012B00041E04883E4EAF0E080819181820D931D52
:1012C0009A838983982C4FC0F2E0F883E4EAF0E037
:1012D00020813181220D331D89819A812817390798
:1012E000B0F0281B390B22953295307F3227207FB2
:1012F0003227AFE9B6E40E94673B929582958F70E2
:1013000089279F708927F701918380832CC0B301BF
:10131000A201481B590B61097109DB01CA01820F47
:10132000931FA11DB11D880F991FAA1FBB1F880FF6
:10133000991FAA1FBB1FBC01CD01660F771F881F15
:10134000991F660F771F881F991F2AE330E040E03E
:1013500050E00E943D3BF7013183208304C0888127
:10136000823009F0982C110FF2E0EF0EF11C239659
:10137000CC15DD0509F091CF992049F01092A1001C
:10138000E091AF1AF091B01A84EB9AE11995FF91B0
:10139000EF91DF91CF91BF91AF919F918F917F910D
:1013A0006F915F914F913F912F911F910F91FF90FE
:1013B000EF90DF90CF90BF90AF909F908F907F90F5
:1013C0006F905F904F903F902F900F900BBE0F90BB
:1013D0000FBE0F901F901895E8E6F0E080818160C5
:1013E000808380E090E008950E946330811105C001
:1013F00080E797E00C94E932089580916C13811195
:101400001EC081E080936C1384B18F7884B985B15C
:10141000806785B98FE39CE90197F1F700C0000070
:10142000EBE6F0E0808180678083E8E6F0E0808191
:1014300081608083789483B180778093731308955B
:1014400093B1982381E009F080E008951F920F92F4
:101450000FB60F9211240BB60F921F932F933F9349
:101460004F935F936F937F938F939F93AF93BF93AC
:10147000CF93DF93EF93FF93D3B11D2F1077C091DC
:101480007313C127C4FF0CC0E0917113F091721364
:10149000309731F0D4FB882780F991E0892719959E
:1014A000C5FF0CC0E0916F13F0917013309731F0CD
:1014B000D5FB882780F991E089271995C6FF0CC0D4
:1014C000E0916D13F0916E13309731F0D6FBDD276C
:1014D000D0F981E08D271995C07759F0E8E6F0E062
:1014E00080818E7F808364E670E08CEE99E00E94BC
:1014F000193110937313FF91EF91DF91CF91BF9149
:10150000AF919F918F917F916F915F914F913F919B
:101510002F911F910F900BBE0F900FBE0F901F9039
:10152000189592B19F7C92B922B130E1839FC0019E
:101530001124822B82B9089592B1937F92B922B17E
:1015400034E0839FC0011124822B82B90895CF9388
:10155000DF93FC01DB01EA014C815D812A813B8143
:101560008881998160851F926F9367811F926F9325
:1015700066811F926F93BA0177277F936F931F92B3
:101580005F9312964C911297642F042E000C770BE8
:101590007F934F9345811F924F9344811F924F93A6
:1015A00043811F924F93A90155275F934F931F9239
:1015B0003F9311962C911197422F022E000C550B40
:1015C0005F932F9322811F922F9321811F922F933C
:1015D00020811F922F939C0133273F932F931F92BB
:1015E0009F938C91282F082E000C330B3F938F93E1
:1015F00082E18F9383E68F9396D98DB79EB78696B7
:101600000FB6F8949EBF0FBE8DBFDF91CF910895A6
:101610001F928F9381E08F9381E68F9384D981E627
:10162000E3D90F900F900F900F900895CF93DF9311
:10163000FC01DB01EA014C815D812A813B818881CB
:10164000998160851F926F9367811F926F93668166
:101650001F926F93BA0177277F936F931F925F93C7
:1016600012964C911297642F042E000C770B7F93E7
:101670004F9345811F924F9344811F924F93438113
:101680001F924F93A90155275F934F931F923F934A
:1016900011962C911197422F022E000C550B5F933F
:1016A0002F9322811F922F9321811F922F932081AC
:1016B0001F922F939C0133273F932F931F929F9349
:1016C0008C91282F082E000C330B3F938F9382E1CF
:1016D0008F9382E68F9327D98DB79EB786960FB6E4
:1016E000F8949EBF0FBE8DBF82E67ED9DF91CF9169
:1016F00008950F931F93CF93DF938091E11381118E
:10170000A8C081E08093E11380E091E0909397136B
:10171000809396130E9A169881B1806381B981B136
:101720008F6081B9579880919613909197130E947A
:10173000382D893008F486C01092981385C08091A6
:1017400096139091971308968C0F9D1F0E94382D29
:10175000F8018083809196139091971309968C0FCE
:101760009D1F0E94382DF8018183809196139091DE
:1017700097130A968C0F9D1F0E94382DF8018283C3
:1017800080919613909197130B968C0F9D1F0E943A
:10179000382DF801838380919613909197130C96BE
:1017A0008C0F9D1F0E94382DF80184838091961321
:1017B000909197130D968C0F9D1F0E94382DF80164
:1017C000858380919613909197130E968C0F9D1F91
:1017D0000E94382DF801868380919613909197137B
:1017E0000F968C0F9D1F0E94382DF80187838091E2
:1017F00096139091971340968C0F9D1F0E94382D41
:10180000F80180872996075F1F4FC834D10509F07A
:1018100096CF82B18C7F82B982B1836082B91092F7
:10182000900088E08093910014BC81E080936E006A
:1018300082E0809371008AEF90E09093990080930A
:10184000980007C08093981309E913E1C0E0D0E045
:1018500076CFDF91CF911F910F9108958091E11381
:10186000811105C080E498E00C94E932089510924B
:10187000981360E080919613909197130C94302DFB
:101880000895CF92DF92EF92FF920F931F93CF9321
:10189000DF93EB01FC01A081B0E02881A21BB1091C
:1018A0002181E22FF0E029818F01021B1109FC0147
:1018B000428150E08A81481B51099D010E94613B91
:1018C0006B017C019801D8010E94613BC60ED71EB6
:1018D000E81EF91E9A01DA010E94613BDC01CB018E
:1018E0008C0D9D1DAE1DBF1D8115F0E89F07A10544
:1018F000B10514F08FEF9FE7DF91CF911F910F910A
:10190000FF90EF90DF90CF9008953F924F925F92BB
:101910006F927F928F929F92AF92BF92CF92DF92FF
:10192000EF92FF920F931F93CF93DF93B090981392
:10193000B11006C08FEFFB01808381838283B3C027
:10194000EA016B017C01082FAF2CBC0189E993E10E
:1019500098DF99838883F1E0FB1510F50F2EF2EAEA
:101960008F2EF3E19F2EF02D11E0312C602F7A2D78
:10197000C40187DF2C01612C712C4881598160E002
:1019800070E044165506660677061CF49983888332
:10199000312E1F5F89E0880E911CB112E7CF01C084
:1019A000312C2881398180910602909107022817F5
:1019B000390718F4F601308203C08FEFF6018083F7
:1019C0004701F3E08F0E911CB4018CE993E159DFDC
:1019D0009B838A8381E08B15E8F405EA13E1AA244E
:1019E000A394312CB401C8014CDF2C01612C712C63
:1019F0004A815B8160E070E0441655066606770612
:101A00001CF49B838A833A2CA394075F1F4FBA1060
:101A1000E9CF01C0312C2A813B818091080290914D
:101A200009022817390718F4F601318203C08FEF35
:101A3000F6018183F6E0EF0EF11CB7018FE993E127
:101A400020DF9D838C8381E08B15E8F408EA13E1A5
:101A5000AA24A394912CB701C80113DF2C01612C97
:101A6000712C4C815D8160E070E04416550666067D
:101A700077061CF49D838C839A2CA394075F1F4FD9
:101A8000BA10E9CF01C0912C2C813D8180910A02CE
:101A900090910B022817390718F4F601928203C0BF
:101AA0008FEFF6018283DF91CF911F910F91FF900D
:101AB000EF90DF90CF90BF90AF909F908F907F90EE
:101AC0006F905F904F903F9008951F920F920FB6C6
:101AD0000F9211240BB60F922F933F934F935F9366
:101AE0006F937F938F939F93AF93BF93CF93DF9326
:101AF000EF93FF93E1E9F0E080818B7F808315BC59
:101B00008091951390E08A30910508F025C2FC0180
:101B10008827EE58FF4F8F4F0C94593B80E001DD32
:101B200080E00ADD81E08093951316C280919213C4
:101B3000811102C086B501C08FEF80937D1383E0D1
:101B4000FBDC82E08093951307C280919213811190
:101B500002C086B501C08FEF80937E1381E0ECDC7C
:101B600083E080939513F8C180919213811102C094
:101B700086B501C08FEF80937F13809193138111FD
:101B80005CC0CDE7D3E18091981390E09C01220FD7
:101B9000331F220F331F220F331F820F931F2091F9
:101BA000961330919713285F3F4F6881820F931FE0
:101BB0000E94302D8091981390E09C01220F331FDA
:101BC000220F331F220F331F820F931F2091961372
:101BD00030919713275F3F4F6981820F931F0E94B7
:101BE000302D8091981390E09C01220F331F220F1B
:101BF000331F220F331F820F931F209196133091B2
:101C00009713265F3F4F6A81820F931F0E94302DEA
:101C10008091981390E0FC01EE0FFF1FEE0FFF1F65
:101C2000EE0FFF1F8E0F9F1FFC01E756FC4E8881B1
:101C30009981AA8180839183A28381E072DC80E014
:101C40007BDC809195138F5F8093951385C1809184
:101C50009213811102C086B501C08FEF809380136B
:101C600083E06ADC85E08093951376C180919213BE
:101C7000811102C086B501C08FEF8093811381E08E
:101C80005BDC86E08093951367C18091921381118C
:101C900002C086B501C08FEF8093821380919313A9
:101CA00081115BC0CDE7D3E18091981390E09C0156
:101CB000220F331F220F331F220F331F820F931F58
:101CC0002091961330919713255F3F4F6B81820FC0
:101CD000931F0E94302D8091981390E09C01220F59
:101CE000331F220F331F220F331F820F931F2091A8
:101CF000961330919713245F3F4F6C81820F931F8F
:101D00000E94302D80919613909197130D962091FB
:101D1000981330E0A901440F551F440F551F440F7D
:101D2000551F240F351F6D81820F931F0E94302D88
:101D30008091981390E0FC01EE0FFF1FEE0FFF1F44
:101D4000EE0FFF1F8E0F9F1FFC01E756FC4E8B818D
:101D50009C81AD8183839483A58382E0E2DB80E074
:101D6000EBDB809195138F5F80939513F5C0809185
:101D70009213811102C086B501C08FEF8093831347
:101D800083E0DADB88E080939513E6C080919213BC
:101D9000811102C086B501C08FEF8093841381E06A
:101DA000CBDB89E080939513D7C08091921381118A
:101DB00002C086B501C08FEF809385138091931385
:101DC000811173C0CDE7D3E18091981390E09C011D
:101DD000220F331F220F331F220F331F820F931F37
:101DE0002091961330919713225F3F4F6E81820F9F
:101DF000931F0E94302D8091981390E09C01220F38
:101E0000331F220F331F220F331F820F931F209186
:101E1000961330919713215F3F4F6F81820F931F6D
:101E20000E94302D8091981390E09C01220F331F67
:101E3000220F331F220F331F820F931F20919613FF
:101E400030919713205F3F4F6885820F931F0E9448
:101E5000302D60919813862F90E0FC01EE0FFF1F4C
:101E6000EE0FFF1FEE0FFF1F8E0F9F1FFC01E756A7
:101E7000FC4E8E819F81A88586839783A0876F5FA4
:101E80006093981380919613909197130E94302D30
:101E9000E0918E13F0918F13309709F456C0809122
:101EA0009813BE018150199550C044E753E16AE789
:101EB00073E18DE793E129DD80917A138F3F41F043
:101EC00090910C02891731F080930C02C1E003C09D
:101ED000C0E001C0C0E080917B138F3F39F090914A
:101EE0000D02891719F080930D02C1E080917C13D7
:101EF0008F3F69F090910E02891749F080930E028E
:101F0000E0918C13F0918D13309741F411C0E09162
:101F10008C13F0918D13309711F408C0C1E044E7A1
:101F200053E16CE072E08DE793E11995CC2369F001
:101F3000E0918A13F0918B13309739F044E753E125
:101F40006CE072E08DE793E11995809195138F5FB6
:101F500080939513169811C01092921310929500C9
:101F60001092940016BC8FEF85BB88BBE1E9F0E0CE
:101F700080818460808387E085BDFF91EF91DF9150
:101F8000CF91BF91AF919F918F917F916F915F9111
:101F90004F913F912F910F900BBE0F900FBE0F905E
:101FA0001F9018951F920F920FB60F9211248F93C6
:101FB000809192138F5F809392138F910F900FBE39
:101FC0000F901F901895CF93C091E113C11105C0D8
:101FD0008AE698E00E94E93221C0209198132830C7
:101FE000E0F490938F1380938E1380E09ADA80E070
:101FF000A3DA1092931310929513169A10929500EB
:1020000010929400E1E9F0E080818460808316BC46
:1020100087E085BD7894C1E001C0C0E08C2FCF91EE
:102020000895CF93DF93EC018091E113811105C0F6
:1020300081E998E00E94E93226C0C436D10510F447
:10204000C4E6D0E01092891310928813709387131E
:1020500060938613D0939113C0939013809194133F
:1020600081110E9493318FEF80930C02BE0188EBA7
:1020700091E10E94193180939413811104C086EC80
:1020800098E00E94E932DF91CF9108958091E113A9
:10209000811105C088E099E00C94E932089580919F
:1020A0009413882321F00E94933110929413089581
:1020B0009C019091E113911105C08CE399E00C947F
:1020C000E932089530938D1320938C1370938B1302
:1020D00060938A1380E025DA80E02EDA81E0809335
:1020E000931310929513169A1092950010929400E3
:1020F000E1E9F0E080818460808316BC87E085BDE3
:10210000789408950F931F93CF93DF93D82FC091A6
:10211000E113C11105C08EE599E00E94E93222C1A8
:10212000623609F460C028F4603651F0613699F1E6
:1021300018C1633609F4CCC0643609F46EC011C10D
:102140004130D9F40E943104863A59F01F9283E05D
:102150008F93DF930E943F040F900F900F90C1E088
:1021600001C17CDB1F9280E68F93DF930E943F04C6
:102170000F900F900F90C1E0F5C0642F0E943004C3
:102180001F9281E08F93DF930E943F040F900F9086
:102190000F90C1E0E7C04130C1F40E943104863A9B
:1021A00059F01F9283E08F93DF930E943F040F90BA
:1021B0000F900F90C1E0D6C061E68D2F0E947E0483
:1021C00088E09BE000DFC1E0CDC0642F0E943004B6
:1021D0001F9281E08F93DF930E943F040F900F9036
:1021E0000F90C1E0BFC041110AC062E60E947E04A8
:1021F00060E070E086E19BE05BDFC1E0B3C0642F8C
:102200000E9430041F9281E08F93DF930E943F046D
:102210000F900F900F90C1E0A5C0413009F04AC067
:102220000E94310490919813891758F01F9283E00F
:102230008F93DF930E943F040F900F900F90C1E0A7
:1022400091C090E0FC01EE0FFF1FEE0FFF1FEE0F9D
:10225000FF1F8E0F9F1FFC01E756FC4E80851F92CB
:102260008F9387811F928F9386811F928F93858191
:102270001F928F9384811F928F9383811F928F93DC
:1022800082811F928F9381811F928F9380811F92F1
:102290008F9389E08F9384E68F93DF930E943F04AE
:1022A0008DB79EB745960FB6F8949EBF0FBE8DBFF3
:1022B000C1E058C0642F0E9430041F9281E08F93C8
:1022C000DF930E943F040F900F900F90C1E04AC02F
:1022D0004230C9F50E943104082F10E0102F00276A
:1022E0008D2F0E943104082B0E946630BC01C8016A
:1022F0000E94F43A892B59F01F9283E08F93DF9369
:102300000E943F040F900F900F90C1E02BC0BEDEE3
:102310000115110571F483E60E94F4041F9286E012
:102320008F93DF930E943F040F900F900F90C1E0B6
:1023300019C063E68D2F0E947E0467EA7AE0C80127
:1023400070DEC1E00FC0642F0E9430041F9281E054
:102350008F93DF930E943F040F900F900F90C1E086
:1023600001C0C0E08C2FDF91CF911F910F91089594
:1023700060918613709187138091881390918913CF
:1023800097DE80919013909191130895CF93AC01B3
:102390008935910598F091E09F5F292F30E0F90190
:1023A000EE0FFF1FE20FF31FE559F54F60817181BA
:1023B0006417750788F3913049F404C068E570E04C
:1023C00021E030E04C33510508F47DC0F90131972C
:1023D000CF01880F991FE80FF91FE559F54FA0812C
:1023E000B181C281F901EE0FFF1F2E0F3F1FF901CE
:1023F000E559F54F228130E02C1B31094A1B5B0B5C
:10240000249FC001259F900D349F900D11246A1BBD
:102410007B0B0E94083B6C0F57C0EDEEF3E169C0E7
:1024200081E08093E91360838091EC138F5F809348
:10243000EC138091EC13843008F58091EB1320911C
:10244000EC1390E002C0959587952A95E2F780FD00
:1024500015C08091EC138F5F8093EC138091EC1387
:10246000843060F48091EB132091EC1390E002C073
:10247000959587952A95E2F780FFEBCF8091EC1335
:10248000843038F46091EC1381E00E94562C81E096
:1024900037C0E091E513F091E613309719F08DEE17
:1024A00093E119958091E913882351F1E091E313A9
:1024B000F091E413309729F08DEE93E1199580E0C7
:1024C0001FC080E01DC06FEF262F30E08091EC131D
:1024D000813039F048F0823051F0833009F49DCFDB
:1024E000A3CFEEEEF3E105C0EFEEF3E102C0E0EFC3
:1024F000F3E1808190E08217930709F091CF94CFA8
:10250000CF9108951092EC138091EC13843008F56C
:102510008091EB132091EC1390E002C09595879584
:102520002A95E2F780FD15C08091EC138F5F8093B0
:10253000EC138091EC13843060F48091EB132091C4
:10254000EC1390E002C0959587952A95E2F780FFFD
:10255000EBCF8091EC13843068F41092E9130E9461
:10256000522C6091EC1381E00E94562C86EC91E194
:102570000E94AB2C8091E7139091E813089580910D
:10258000E213811109C081E08093E21380B3807F60
:1025900080BB81B3807F81BB08958091EA1388233B
:1025A00031F08091EA130E9493311092EA1308955A
:1025B0000F931F93CF93C82F8B018091E21381114A
:1025C00005C086E899E00E94E9323FC0E6DF10933B
:1025D000E6130093E513C295CF70C093EB131092EE
:1025E000EC138091EC13843008F58091EB1320916B
:1025F000EC1390E002C0959587952A95E2F780FD4F
:1026000015C08091EC138F5F8093EC138091EC13D5
:10261000843060F48091EB132091EC1390E002C0C1
:10262000959587952A95E2F780FFEBCF8091EC1383
:10263000843058F40E94522C6091EC1381E00E9487
:10264000562C86EC91E10E94AB2CCF911F910F91FB
:102650000895CF93DF93EB019091E213911105C0A0
:102660008AEB99E00E94E93228C0982F907F29F4E4
:1026700081EF99E00E94E93220C082958F708093AB
:10268000EB131092E6131092E5135093E41340936A
:10269000E3137093E8136093E7137FDFBE0182E8D2
:1026A00092E10E9419318093EA138091EA1381111B
:1026B00004C088E29AE00E94E932DF91CF91089548
:1026C000EF920F93CF938091F11381112BC081E092
:1026D0008093F1138091F2139091F313009711F00E
:1026E0000E94953461E08BE00E9464349093F31370
:1026F0008093F213C0E0E12C00E020E040E06C2F7A
:102700008091F2139091F3130E94A034CF5FCB30ED
:1027100091F747E065E270E08091F2139091F31336
:102720000E949734CF910F91EF900895EF920F93FD
:102730009091F113911105C085E99AE00E94E93268
:102740000DC08B3058F4E22E042F262F40E0682F66
:102750008091F2139091F3130E94A0340F91EF90A7
:1027600008958091F113811105C08DEB9AE00C94CE
:10277000E932089547E065E270E08091F2139091AC
:10278000F3130E9497348FE19EE40197F1F700C0A4
:1027900000000895EF920F939091F113911105C0ED
:1027A00080EE9AE00E94E9320EC08B3058F4E22E9F
:1027B000042F262F40E0682F8091F2139091F3139D
:1027C0000E94A034CEDF0F91EF9008950F931F93D6
:1027D000CF93DF93D82FC091F113C11105C084E0CE
:1027E0009BE00E94E9323EC06034D9F5443059F58F
:1027F0000E943104C82F8D2F0E943104182F8D2F75
:102800000E943104082F8D2F0E943104CB3058F0E4
:102810001F9283E08F93DF930E943F040F900F90ED
:102820000F90C1E01FC0282F402F612F8C2FB2DFE7
:102830001F9280E48F93DF930E943F040F900F90CC
:102840000F90C1E00FC0642F0E9430041F9281E0FE
:102850008F93DF930E943F040F900F900F90C1E081
:1028600001C0C0E08C2FDF91CF911F910F9108958F
:1028700081E00895AB01BC01DB01CA01689412F844
:10288000B695A795979587951694D1F701978F3FA1
:10289000910509F008F445C020E02F5FE22FF0E039
:1028A000EE0FFF1FEE0FFF1FE45EF34FDB01CA01C7
:1028B000008004C0B695A795979587950A94D2F79E
:1028C00001978F3F910509F040F78093B400809302
:1028D000B3002230A1F028F4222349F0213059F02E
:1028E0001DC02430A1F078F02530A9F017C082E097
:1028F0008093B10013C083E08093B1000FC084E0E7
:102900008093B1000BC085E08093B10007C086E0E2
:102910008093B10003C087E08093B1001092B200B1
:1029200008958093B4008093B300E1CFE5EFF3E125
:1029300081858F5F81879081911105C09091FD13F2
:1029400089130BC002C0891308C0E1EBF0E080815D
:10295000887F808382E390E008959091FD1398171B
:1029600008F067C0E5EFF3E18381948101969483D9
:1029700083839C01220F331F220F331F0180F281BA
:10298000E02DE20FF31F20813181232B19F08C32CF
:102990009140C1F4E091FA13F091FB13309741F0AC
:1029A0001995882329F01092F9131092F8130AC090
:1029B0001092FC13E1EBF0E08081887F808380E05F
:1029C00090E00895A5EFB3E11396ED91FC91149773
:1029D000EE0FFF1FEE0FFF1F11968D919C91129726
:1029E000E80FF91F608171816130710531F4E1EB0D
:1029F000F0E08081887F808303C080E090E03ADF50
:102A0000A5EFB3E11396ED91FC911497EE0FFF1F24
:102A1000EE0FFF1F11968D919C911297E80FF91FF1
:102A2000828118968C93189719961C9282E390E0F5
:102A3000089582E390E008951F920F920FB60F92CF
:102A400011240BB60F928F939F93AF93BF93EF9385
:102A5000FF938091FF13853609F468C2E2E0F1E04C
:102A6000908180E4892780838091FF1390E08536F0
:102A7000910508F05BC2FC018827E458FF4F8F4F97
:102A80000C94593B8FE891E00197F1F700C00000EA
:102A900047C28BE891E00197F1F700C0000040C207
:102AA00087E891E00197F1F700C0000039C283E8A0
:102AB00091E00197F1F700C0000032C28FE791E08A
:102AC0000197F1F700C000002BC28BE791E001975E
:102AD000F1F700C0000024C287E791E00197F1F709
:102AE00000C000001DC283E791E00197F1F700C02C
:102AF000000016C28FE691E00197F1F700C00000D8
:102B00000FC28BE691E00197F1F700C0000008C208
:102B100087E691E00197F1F700C0000001C283E66B
:102B200091E00197F1F700C00000FAC18FE591E054
:102B30000197F1F700C00000F3C18BE591E0019728
:102B4000F1F700C00000ECC187E591E00197F1F7D3
:102B500000C00000E5C183E591E00197F1F700C0F6
:102B60000000DEC18FE491E00197F1F700C00000A2
:102B7000D7C18BE491E00197F1F700C00000D0C10C
:102B800087E491E00197F1F700C00000C9C183E438
:102B900091E00197F1F700C00000C2C18FE391E01E
:102BA0000197F1F700C00000BBC18BE391E00197F2
:102BB000F1F700C00000B4C187E391E00197F1F79D
:102BC00000C00000ADC183E391E00197F1F700C0C0
:102BD0000000A6C18FE291E00197F1F700C000006C
:102BE0009FC18BE291E00197F1F700C0000098C10E
:102BF00087E291E00197F1F700C0000091C183E204
:102C000091E00197F1F700C000008AC18FE191E0E7
:102C10000197F1F700C0000083C18BE191E00197BB
:102C2000F1F700C000007CC187E191E00197F1F766
:102C300000C0000075C183E191E00197F1F700C089
:102C400000006EC18FE091E00197F1F700C0000035
:102C500067C18BE091E00197F1F700C0000060C10F
:102C600087E091E00197F1F700C0000059C183E0CF
:102C700091E00197F1F700C0000052C18FEF90E0A2
:102C80000197F1F700C000004BC18BEF90E0019776
:102C9000F1F700C0000044C187EF90E00197F1F721
:102CA00000C000003DC183EF90E00197F1F700C044
:102CB000000036C18FEE90E00197F1F700C00000F0
:102CC0002FC18BEE90E00197F1F700C0000028C102
:102CD00087EE90E00197F1F700C0000021C183EE7C
:102CE00090E00197F1F700C000001AC18FED90E06D
:102CF0000197F1F700C0000013C18BED90E0019740
:102D0000F1F700C000000CC187ED90E00197F1F7EA
:102D100000C0000005C183ED90E00197F1F700C00D
:102D20000000FEC08FEC90E00197F1F700C00000BA
:102D3000F7C08BEC90E00197F1F700C00000F0C005
:102D400087EC90E00197F1F700C00000E9C083EC48
:102D500090E00197F1F700C00000E2C08FEB90E037
:102D60000197F1F700C00000DBC09AEF9A95F1F7E8
:102D700000C0D6C085EF8A95F1F70000D1C090EF72
:102D80009A95F1F7CDC08AEE8A95F1F700C0C8C0D8
:102D900095EE9A95F1F70000C3C080EE8A95F1F7A1
:102DA000BFC09AED9A95F1F700C0BAC085ED8A953B
:102DB000F1F70000B5C090ED9A95F1F7B1C08AEC3B
:102DC0008A95F1F700C0ACC095EC9A95F1F7000038
:102DD000A7C080EC8A95F1F7A3C09AEB9A95F1F71A
:102DE00000C09EC085EB8A95F1F7000099C090EB7A
:102DF0009A95F1F795C08AEA8A95F1F700C090C0DC
:102E000095EA9A95F1F700008BC080EA8A95F1F770
:102E100087C09AE99A95F1F700C082C085E98A9542
:102E2000F1F700007DC090E99A95F1F779C08AE842
:102E30008A95F1F700C074C095E89A95F1F7000003
:102E40006FC080E88A95F1F76BC09AE79A95F1F721
:102E500000C066C085E78A95F1F7000061C090E781
:102E60009A95F1F75DC08AE68A95F1F700C058C0DF
:102E700095E69A95F1F7000053C080E68A95F1F740
:102E80004FC09AE59A95F1F700C04AC085E58A954A
:102E9000F1F7000045C090E59A95F1F741C08AE44A
:102EA0008A95F1F700C03CC095E49A95F1F70000CF
:102EB00037C080E48A95F1F733C09AE39A95F1F729
:102EC00000C02EC085E38A95F1F7000029C090E389
:102ED0009A95F1F725C08AE28A95F1F700C020C0E3
:102EE00095E29A95F1F700001BC080E28A95F1F710
:102EF00017C09AE19A95F1F700C012C085E18A9552
:102F0000F1F700000DC090E19A95F1F709C08AE051
:102F10008A95F1F700C004C095E09A95F1F700009A
:102F2000E2E0F1E0908180E489278083FF91EF91D6
:102F3000BF91AF919F918F910F900BBE0F900FBEDD
:102F40000F901F9018958091F413811111C081E0AA
:102F50008093F413E1E0F1E080818064808382E07B
:102F60008093B0001092B10084E080937000789458
:102F70000895FC01208130E0322F22278181A901B0
:102F8000480F511DFB01518340830895CF92DF927A
:102F9000EF92FF926B017C018091F413811105C0C7
:102FA0008EE29BE00E94E93208C08091FC138111FF
:102FB0000E941732C701B6015DDCFF90EF90DF90F1
:102FC000CF9008958091F413811105C080E59BE0B6
:102FD0000C94E9320895E1EBF0E08081887F8083F2
:102FE0008091FC1381110C94383208958091F41370
:102FF000811105C083E79BE00C94E932089580912C
:10300000FC13882321F00E9493311092FC13E1EB12
:10301000F0E08081887F80830895CF92DF92FF92D5
:103020000F931F93CF93DF93EC01F62E6A018091EB
:10303000F413811105C085E99BE00E94E93225C0A7
:10304000D5DF6881798161157105F9F005EF13E12C
:10305000F801D283C18314821382D682C582F082A2
:1030600080E090E007DC8A81F8018087118662E3C6
:1030700070E086E994E10E941931F801878381119B
:1030800004C087EB9BE00E94E932DF91CF911F9152
:103090000F91FF90DF90CF9008958F929F92AF9203
:1030A000BF92CF92DF92FF920F931F93CF93DF9344
:1030B000CDB7DEB7C150D1400FB6F894DEBF0FBE1A
:1030C000CDBFF82E042F1091F413111105C086EE18
:1030D0009BE00E94E93203C2613509F483C028F401
:1030E000693461F06035F1F1F9C1633509F4E8C084
:1030F00008F4CAC0643509F471C1F0C1442319F061
:10310000413099F021C08091FF131F928F9381E08D
:103110008F9389E48F93FF920E943F040F900F904A
:103120000F900F900F9011E0DAC10E94310480934C
:10313000FF131F9289E48F93FF920E943F040F9028
:103140000F900F9011E0CBC1642F0E9430041F92AA
:1031500081E08F93FF920E943F040F900F900F9099
:1031600011E0BDC1423081F50E943104282F30E0CA
:10317000122F00278F2D0E9431049801282B211532
:103180003105B1F040E050E060E074E284EF90E09F
:103190000E943D3BCA01B901F9DE1F9283E08F9383
:1031A000FF920E943F040F900F900F9011E097C183
:1031B00009DF1F9280E58F93FF920E943F040F90DA
:1031C0000F900F9011E08BC1642F0E9430041F926A
:1031D00081E08F93FF920E943F040F900F900F9019
:1031E00011E07DC1433009F041C00E943104182F25
:1031F0008F2D0E943104082F8F2D0E9431041E3024
:1032000020F40B3010F4823058F01F9283E08F933B
:10321000FF920E943F040F900F900F9011E05FC14A
:10322000123039F0133041F0113049F42CE33CE016
:1032300008C028E43CE005C02FE032E002C024E3EF
:103240003CE0813019F040E050E002C048E354E136
:10325000602FC901E2DE1F9281E58F93FF920E94E9
:103260003F040F900F900F9011E039C1642F0E941E
:1032700030041F9281E08F93FF920E943F040F90D1
:103280000F900F9011E02BC141110CC0AFDE1F92C7
:1032900082E58F93FF920E943F040F900F900F9052
:1032A00011E01DC1642F0E9430041F9281E08F93B2
:1032B000FF920E943F040F900F900F9011E00FC1FA
:1032C000442319F0842F837079F0602F8F2D0E9492
:1032D00030041F9281E08F93FF920E943F040F9071
:1032E0000F900F9011E0FBC01F9283E58F93FF9228
:1032F0000E943F04C050DF4F1882C050D140CF5FC2
:10330000DE4F1882C150D140A02EA694A6941A82F6
:103310001982FE0133968DEFDF011D928A95E9F740
:103320000F900F900F90AA2009F456C00FE012E002
:10333000AA94B12CC501880F991F880F991FFC0111
:10334000ED5EFD4F5F010F2EFEE0CF2EFCE0DF2E85
:10335000F02D9E012F5F3F4F4901A8958F2D0E94B0
:103360003104C050DF4F8883C050D1408F2D0E9460
:103370003104CF5FDE4F8883C150D140B801CE0108
:103380009395F7DD8F2D0E943104D80112968C930E
:103390008F2D0E943104F80183831F928F938281C5
:1033A0001F928F9381818F9380818F93DF92CF9231
:1033B0009F928F920E94B23CD80115961C921E9249
:1033C00014970C5F1F4F0FB6F894DEBF0FBECDBF32
:1033D0000A151B0509F0C1CF11E081C0442319F083
:1033E000842F837079F0602F8F2D0E9430041F92FC
:1033F00081E08F93FF920E943F040F900F900F90F7
:1034000011E06DC01F9284E58F93FF920E943F04EC
:1034100019821A82069506950F900F900F90809151
:103420000F0290911002892B79F083E192E020E065
:1034300030E02F5F3F4F0496FC0134970190F081FC
:10344000E02DEF2BB1F702C020E030E05901F1E0B0
:10345000AF1AB10810E00115110509F43DC0C9010A
:10346000880F991F880F991FAC01455F5D4F6A0156
:1034700001501109020F131FA8958F2D0E943104CE
:1034800089838F2D0E9431048A838F2D0E943104FD
:10349000D60112968C938F2D0E943104F6018383FE
:1034A000FCE2AF16F1E0BF0698F4B601CE0101963A
:1034B00060DDD60115961C921E921497BFEFAB1AD1
:1034C000BB0AE4E0CE0ED11CA016B106A9F604C0DA
:1034D0001092C0061092BF0611E001C010E0812FCB
:1034E000CF5FDE4F0FB6F894DEBF0FBECDBFDF91CA
:1034F000CF911F910F91FF90DF90CF90BF90AF9031
:103500009F908F90089580913914811126C0E8E230
:10351000F1E0808191819695879591838083AAE2DD
:10352000B1E08D919C9111979695879511969C93FA
:103530008E9380819181C29720F41092290110927C
:10354000280180912A0190912B01C29708F09EC01A
:1035500010922B0110922A0199C08091381488236F
:103560002CF0209134143091351404C0209136147D
:10357000309137141092351410923414109237147D
:103580001092361480913914880F990B821B930B7B
:103590009C0112F42D5F3F4FF901F595E795F595E4
:1035A000E7958091C106882379F18091321490913A
:1035B0003314609130147091311420913014309193
:1035C0003114232B19F00E94F43A02C06AE070E033
:1035D0008091280190912901E69F9001E79F300D8D
:1035E000F69F300D1124820F931F992314F480E06D
:1035F00090E0893E23E0920714F088EE93E09093E8
:1036000029018093280106C088EE93E09093290158
:10361000809328018091C106882391F18091301414
:10362000909131148091321490913314809132141E
:103630009091331420912A0130912B014091301444
:10364000509131146091321470913314E49FC00191
:10365000E59F900DF49F900D11240E94F43A620FA3
:10366000731F772314F460E070E0693E83E078070D
:1036700014F068EE73E070932B0160932A0106C08A
:1036800088EE93E090932B0180932A0184E690E0EA
:1036900008951F9283E18F930E94930483E10E9417
:1036A000F4040F900F9008951F9284E18F930E946D
:1036B000930484E10E94F4040F900F9008959CE419
:1036C000980F923388F4682F90E09093C00680930F
:1036D000BF0680E090E00E94302D60E081E090E045
:1036E0000E94302D81E0089580E00895CF93DF930C
:1036F000E90116161706180619067CF4EBE0F1E04E
:1037000020812260208320812F7D208320812160E1
:10371000208320812B7F208315C0EBE0F1E0208106
:103720002062208320812D7F2083208124602083BC
:1037300020812E7F208390958095709561957F4F95
:103740008F4F9F4F40933914A091BF06B091C00690
:103750009B01AC010E947C3B27E330E040E050E05D
:103760000E943D3B20932C1430932D1440932E1433
:1037700050932F14109228141092291410922A1486
:1037800010922B14D0931B14C0931A14DF91CF9175
:103790000895CF9380913A1481115BC081E08093AA
:1037A0003A1480E090E00E94382DC82F81E090E02C
:1037B0000E94382D8C2B90E09093C0068093BF061A
:1037C0008091BF069091C006843B910538F08091AE
:1037D000BF069091C006863E910530F089ED90E0DD
:1037E0009093C0068093BF06EBE0F1E08081807C7F
:1037F0008083EAE0F1E080818F6380831092290169
:103800001092280110922B0110922A0182EA8093D3
:1038100020018CE18093210188EE93E090932701B1
:1038200080932601EAE6F0E08081816080838081D8
:103830008D7F8083EC9A8081846080838081877F04
:103840008083ED9A64E670E083E89AE10E94193182
:103850007894CF91089585360CF084E68C390CF479
:103860008CE91816E4F427E68202212D112425950F
:10387000259587FD2395022E000C330BA901465F89
:103880005F4F50933114409330144AE050E0BA0136
:10389000621B730B70933314609332141BC027E6C2
:1038A0008202212D11242595259587FD2395022E31
:1038B000000C330BA901465F5F4F509331144093C6
:1038C00030144AE050E0BA01621B730B709333145A
:1038D0006093321480933814089510922C1410922F
:1038E0002D1410922E1410922F1485360CF084E6AD
:1038F0008C390CF48CE9909139149817E1F1181671
:103900007CF4EBE0F1E090819260908390819F7D68
:10391000908390819460908390819E7F908328C053
:10392000882384F4EBE0F1E09081906290839081B1
:103930009D7F908390819160908390819B7F908305
:10394000819516C09091C106992391F0EBE0F1E0CA
:10395000208191E092279083208192E092279083AA
:10396000208194E092279083208190E29227908397
:1039700080933914C8CD0895CF92DF92EF92FF92D1
:103980000F931F93CF93DF931092C106A895E8E0A1
:10399000F1E0808180618083749A8081806280837D
:1039A000759AEAE6F0E080818160808380818260A0
:1039B0008083EC9A80818B7F808380818860808384
:1039C000ED9A7894109227141092261410922514D0
:1039D0001092241410922314109222141092211485
:1039E0001092201410921F1410921E1410921D1485
:1039F00010921C14A89584E670DFA8952FEF83ED34
:103A000090E3215080409040E1F700C00000A8956D
:103A100080E063DF2FEF89E698E1215080409040FD
:103A2000E1F700C0000051E02FEF3FEF01C05F5F02
:103A30004FEF450F4230B1F028F4442349F04130B4
:103A400061F028C04430C1F090F04530D1F022C080
:103A50008091261490912714C2C0809124149091D3
:103A60002514BDC08091221490912314B8C0809178
:103A7000201490912114B3C080911E1490911F14B2
:103A8000AEC080911C1490911D1490930D148093DE
:103A90000C1414C0E42FE695F0E040FBEE24E0F8AF
:103AA000F12CEE0FFF1FEE0DFF1DEE0FFF1FEE5F5F
:103AB000FB4E31832083563009F0B9CF1092271482
:103AC000109226141092251410922414109223148C
:103AD00010922214109221141092201410921F148C
:103AE00010921E1410921D1410921C14A8958CE9AB
:103AF000F4DE2FEF83ED90E3215080409040E1F71A
:103B000000C00000A89591E04FEF5FEF01C09F5FFC
:103B10008FEF890F8230B1F028F4882349F081308B
:103B200061F028C08430C1F090F08530D1F022C01F
:103B3000209126143091271464C0209124143091D0
:103B400025145FC020912214309123145AC0209173
:103B500020143091211455C020911E1430911F144F
:103B600050C080911C1490911D149093191480934F
:103B7000181414C0E82FE695F0E08170C82F20E0FB
:103B8000D22FEE0FFF1FEC0FFD1FEE0FFF1FE25FA6
:103B9000FB4E51834083963009F0B9CF80E09DDE23
:103BA000A8958FEF90E722E0815090402040E1F708
:103BB00000C0000081E08093C106EAE6F0E0808169
:103BC0008160808380818D7F8083EC9A8081846096
:103BD00080838081877F8083ED9AA89523C0E42F1E
:103BE000E695F0E040FBCC24C0F8D12CEE0FFF1F8F
:103BF000EC0DFD1DEE0FFF1FEE5FFB4E91838083EA
:103C000016CFE82FE695F0E0082F017010E0EE0FD8
:103C1000FF1FE00FF11FEE0FFF1FE25FFB4E31832E
:103C2000208375CFDF91CF911F910F91FF90EF907F
:103C3000DF90CF9008950F931F93CF93DF938C0164
:103C4000862FEA014ADE4091BF065091C0069801D6
:103C5000A4EDB1E00E94673B9A0140E050E00E9471
:103C60001B3B20932C1430932D1440932E1450930F
:103C70002F14109228141092291410922A141092C2
:103C80002B14D0931B14C0931A14DF91CF911F9162
:103C90000F9108951F920F920FB60F9211240BB639
:103CA0000F922F933F934F935F936F937F938F93D5
:103CB0009F93AF93BF93EF93FF938091060185FF8E
:103CC0000AC080912214909123140196909323149A
:103CD0008093221409C08091261490912714019694
:103CE000909327148093261480911E1490911F1492
:103CF000019690931F1480931E148091C10688230F
:103D000009F478C02091321430913314809130142A
:103D10009091311428173907E8F180912C14909173
:103D20002D14A0912E14B0912F14892B8A2B8B2B3C
:103D300089F18091281490912914A0912A14B091AE
:103D40002B140196A11DB11D809328149093291462
:103D5000A0932A14B0932B14409128145091291445
:103D600060912A1470912B1480912C1490912D1431
:103D7000A0912E14B0912F1484179507A607B707AA
:103D800048F4E0911A14F0911B14309709F019953A
:103D900080E0A3DD809136149091371401969093C2
:103DA00037148093361480913914882319F1809147
:103DB00001148F5F809301142091321430913314D9
:103DC00090E082179307B0F01092011480912801BF
:103DD000909129010B9738F0E8E2F1E08081918120
:103DE0000A9791838083EAE2F1E0808191810A96CB
:103DF00091838083FF91EF91BF91AF919F918F91BC
:103E00007F916F915F914F913F912F910F900BBEDA
:103E10000F900FBE0F901F9018951F920F920FB624
:103E20000F9211240BB60F922F933F934F935F93F2
:103E30006F937F938F939F93AF93BF93EF93FF9372
:103E400080911C1490911D14019690931D148093E1
:103E50001C148091060184FF0AC080912014909167
:103E600021140196909321148093201409C080910D
:103E70002414909125140196909325148093241472
:103E80008091C106882309F478C0209132143091C2
:103E90003314809130149091311428173907E8F5C4
:103EA00080912C1490912D14A0912E14B0912F1468
:103EB000892B8A2B8B2B89F18091281490912914BE
:103EC000A0912A14B0912B140196A11DB11D8093CD
:103ED000281490932914A0932A14B0932B14409182
:103EE00028145091291460912A1470912B148091F8
:103EF0002C1490912D14A0912E14B0912F1484178E
:103F00009507A607B70748F4E0911A14F0911B141F
:103F1000309709F0199580E0E0DC8091341490919D
:103F2000351401969093351480933414809139148C
:103F3000882319F1809100148F5F809300142091E1
:103F400030143091311490E082179307B0F0109242
:103F5000001480912A0190912B010B9738F0EAE22E
:103F6000F1E0808191810A9791838083E8E2F1E01A
:103F7000808191810A9691838083FF91EF91BF9117
:103F8000AF919F918F917F916F915F914F913F91F1
:103F90002F910F900BBE0F900FBE0F901F90189592
:103FA000CF93C82F862F57DC8C2F97DCCF910895A5
:103FB000CF92DF92FF920F931F93CF93DF93CDB7F2
:103FC000DEB768970FB6F894DEBF0FBECDBF082FDF
:103FD00010913A14111105C08CEA9CE00E94E9325C
:103FE0002CC2862F90E0FC017097E833F10508F0B1
:103FF00021C28827EF51FF4F8F4F0C94593B41113D
:104000001BC2E2E0F4E180819181A0E0B0E089830D
:104010009A83AB83BC8384819581A0E0B0E08B83DD
:104020009C83AD83BE8380859185A0E0B0E08D83C5
:104030009E83AF83B88720E030E083E0F901EE0F84
:10404000FF1FEE0FFF1FEE5FFB4E42815381E82FF3
:10405000F0E0EE0FFF1F61E070E06C0F7D1FE60FD8
:10406000F71F60E070E040835183628373838F5F4A
:104070002F5F3F4F863011F720E030E03AC0F90162
:10408000EE0FFF1FEE0FFF1FEE5FFB4E46855785BD
:10409000E82FF0E0EE0FFF1F61E070E06C0F7D1F76
:1040A000E60FF71F60E070E0408351836283738303
:1040B0008F5F2F5F3F4F8C3011F71F9288E18F93F6
:1040C0001F9286E48F9382E08F930F930E946D037B
:1040D0008E010F5F1F4F6E0179E1C70ED11C0F904B
:1040E0000F900F900F900F900F906894FF24F1F8AD
:1040F00021C0F901EE0FFF1FEE0FFF1FE25FFB4E25
:1041000040815181E82FF0E0EE0FFF1F61E070E089
:104110006C0F7D1FE60FF71F60E070E04083518356
:10412000628373838F5F2F5F3F4F893011F720E0E9
:1041300030E0A5CFF801819191918F019C01332747
:104140003F932F931F929F93FF921F920E946D03A4
:104150000F900F900F900F900F900F900C151D0562
:1041600049F711E06AC141110CC01F9287E48F9397
:104170000F930E943F0400DC0F900F900F9011E00E
:104180005CC1413029F4802F0E94310411E055C1F7
:10419000642F802F0E9430041F9281E08F930F9331
:1041A0000E943F040F900F900F9011E046C14230E3
:1041B00041F5802F0E943104182F802F0E94310476
:1041C00094E6910F993C90F48C3984F0853674F420
:1041D000682F812FE5DE1F9280E18F930F930E945D
:1041E0003F040F900F900F9011E027C11F9283E0C2
:1041F0008F930F930E943F040F900F900F9011E048
:104200001CC1642F802F0E9430041F9281E08F9385
:104210000F930E943F040F900F900F9011E00DC17B
:104220004130F1F4802F0E94310494E6980F993CBC
:1042300060F453DB1F9281E18F930F930E943F0440
:104240000F900F900F9011E0F8C01F9283E08F93B2
:104250000F930E943F040F900F900F9011E0EDC05C
:10426000642F802F0E9430041F9281E08F930F9360
:104270000E943F040F900F900F9011E0DEC041307C
:10428000F1F4802F0E94310494E6980F993C60F479
:10429000E2DA1F9282E18F930F930E943F040F9006
:1042A0000F900F9011E0C9C01F9283E08F930F937E
:1042B0000E943F040F900F900F9011E0BEC0642F3A
:1042C000802F0E9430041F9281E08F930F930E94F1
:1042D0003F040F900F900F9011E0AFC0433041F5B5
:1042E000802F0E943104182F802F0E943104802FCC
:1042F0000E94310494E6910F993C78F4482F612F85
:10430000110F770B880B990B29E43BE1EFD963E19F
:10431000802F0E947E0411E090C01F9283E08F9353
:104320000F930E943F040F900F900F9011E085C0F3
:10433000642F802F0E9430041F9281E08F930F938F
:104340000E943F040F900F900F9011E076C0433011
:1043500031F5802F0E943104182F802F0E943104E4
:10436000F82E802F0E94310494E6910F993C60F45E
:1043700090E044E55BE1612F9F295DDC64E1802FE3
:104380000E947E0411E059C01F9283E08F930F9327
:104390000E943F040F900F900F9011E04EC0642FC9
:1043A000802F0E9430041F9281E08F930F930E9410
:1043B0003F040F900F900F9011E03FC0423059F52D
:1043C000802F0E943104182F802F0E943104212F4A
:1043D00030E0322F2227A901482BCA019C01245B1F
:1043E00031092333310560F46AD91F9285E18F9337
:1043F0000F930E943F040F900F900F9011E01DC08B
:104400001F9283E08F930F930E943F040F900F90B1
:104410000F9011E012C0642F802F0E9430041F9271
:1044200081E08F930F930E943F040F900F900F90A5
:1044300011E003C010E001C011E0812F68960FB6B3
:10444000F894DEBF0FBECDBFDF91CF911F910F91CA
:10445000FF90DF90CF9008956F927F929F92BF92CE
:10446000CF92DF92EF92FF920F931F93CF93FC01B5
:1044700040E050E0B12C992493940F2EF6E4CF2E17
:10448000F4E1DF2EF02D0F2EF7E4EF2EF4E1FF2EF6
:10449000F02D08E414E10F2EF5E46F2EF4E17F2EE9
:1044A000F02D8091441490E0042E02C095958795DC
:1044B0000A94E2F780FF1EC020813181ADECBCEC94
:1044C0000E94673B9C013695279536952795369532
:1044D0002795922F413031F040F1423041F1433085
:1044E00019F008C0D60124C0D30122C0963010F0C4
:1044F0002C93B92C4F5F5F4F32964430510589F6AB
:10450000E0914014F0914114309719F085E494E162
:104510001995BB2089F0E0913E14F0913F1430973B
:1045200059F085E494E1199507C0D70101C0D8017D
:104530008C919813DBCFDECFCF911F910F91FF901D
:10454000EF90DF90CF90BF909F907F906F900895F5
:10455000809144142CE232E245E062E071E00E9476
:10456000DA0880913C1490913D1408958091421492
:10457000811112C081E080934214E1E0F1E080817A
:1045800080628083E7E0F1E08081807F8083E8E0E3
:10459000F1E08081807F80830895809142148111B1
:1045A00005C084ED9CE00C94E93208958091431499
:1045B000882331F0809143140E9493311092431468
:1045C00008950F931F93CF93C82F8B0180914214AE
:1045D000811105C08AE09DE00E94E93216C0DDDF4E
:1045E000109341140093401410923F1410923E1403
:1045F000C093441481E080933B142CE232E245E006
:1046000062E071E08C2F0E94DA08CF911F910F9128
:104610000895CF93DF93EB0190914214911105C05F
:104620008EE39DE00E94E93226C0982F9F7029F406
:1046300085E79DE00E94E9321EC0809344141092E9
:1046400041141092401450933F1440933E147093C1
:104650003D1460933C14A1DFBE0188EA92E20E94FF
:1046600019318093431480914314811104C08CEA62
:104670009DE00E94E932DF91CF9108958091C206BA
:104680008823E1F020E030E041E051E0249FC001C8
:10469000259F900D349F900D1124875B9B4EFC014C
:1046A000E250FF4F108231961082319610822F5FB8
:1046B0003F4F2530310551F71092C2060895CF9330
:1046C000DF93D82FC62FDADFC53008F04DC06C2F2E
:1046D00070E021E031E0629FC001639F900D729F06
:1046E000900D1124875B9B4EFC01E250FF4F20810F
:1046F0003196808128130EC081E091E0689FF0011F
:10470000699FF00D789FF00D1124E75BFA4E8081D0
:1047100081112CC021E031E0629FC001639F900DA8
:10472000729F900D1124875B9B4EFC01F3952081B5
:104730002F5F20833297208131E0320F3083DC01FC
:10474000A20FB11DDC9380818E3F91F481E091E056
:10475000689FF001699FF00D789FF00D1124E95BCF
:10476000FA4E108281E005C080E003C080E001C005
:1047700081E0DF91CF910895CF93C82F7FDFC530BF
:1047800058F481E091E0C89FF001C99FF00D112419
:10479000E75BFA4E808101C080E0CF9108950F93CE
:1047A0001F93CF93DF938C01C62FD42F403219F083
:1047B0004530E0F501C0D0E08D2FDEDF8C17C0F171
:1047C0004D2F50E081E091E0489FF001499FF00DAE
:1047D000589FF00D1124E85BFA4E2081CC2351F153
:1047E000F801C1506C2F70E06F5F7F4F600F711F39
:1047F00030E0A1E0B1E04A9FC0014B9F900D5A9F6D
:10480000900D1124AC01475B5B4E2E3F11F4932FAA
:1048100001C0922F21E0290FDA01A90FB11D8C915F
:104820008193E617F70789F781E005C080E003C0B0
:1048300080E001C081E0DF91CF911F910F91089539
:10484000CF93DF93C82FD62F19DFD53008F042C0A1
:104850006D2F70E081E091E0689FF001699FF00D9D
:10486000789FF00D1124E75BFA4E80818C17A0F140
:10487000CC23A1F181E091E0689FF001699FF00DE8
:10488000789FF00D1124E75BFA4E8081882341F177
:1048900090E021E031E0629FF001639FF00D729F94
:1048A000F00D1124E75BFB4EDF01A150BF4FF395E4
:1048B0008C918F5F8C938081815080838C918E3F0F
:1048C00009F41C929F5FC91769F080818111F0CFB4
:1048D00081E009C080E007C080E005C081E003C03E
:1048E00081E001C081E0DF91CF910895CF93C82F7F
:1048F000C5DE21E031E0C29FC001C39F900D1124AD
:10490000875B9B4EFC01F3951082319710823197A3
:10491000108281E0CF91089521E031E0482F429F3D
:10492000C001439F900D1124875B9B4EFC01E25018
:10493000FF4F108231961082319610820895FC014B
:1049400090914E1A923069F018F4913031F0089538
:10495000943059F0983069F0089582818093E01A7C
:10496000089581818093E11A089583818093E21AEA
:10497000089580818093E31A08959091521A94309B
:1049800019F0953061F013C095E09093521A80951C
:1049900080934F1A65E081E089D781E00895809582
:1049A0008093501A81E08093511A80E0089580E04E
:1049B000089530914E19832F90E08C30910508F0C6
:1049C00056C0FC018827E75EFE4F8F4F0C94593B81
:1049D0002FEF4FEF6FEF80E00E94CA1348C02FEF18
:1049E0004FEF6FEF832F0E94CA1380914E1920E082
:1049F00040E060E081500E94CA1339C020E040E0EE
:104A000060E083E00E94CA1380914E192FEF4FEFB0
:104A10006FEF8D5F0E94CA1380914E1920E040E035
:104A200060E08E5F0E94CA1322C020E040E060E098
:104A30008AE00E94CA1390914E192FEF4FEF6FEF4B
:104A40008EE0891B0E94CA1390914E1920E040E02D
:104A500060E08FE0891B0E94CA1309C020E040E09B
:104A600060E084E00E94CA1380E090E008958091A5
:104A70004E198F5F80934E1986E990E00895E2E029
:104A8000F1E08081877F8083E1E0F1E080818860D0
:104A9000808308C7089584E08093521A1092511AB7
:104AA000E2E0F1E080818860808364E081E0FED60E
:104AB0008DEB94E22AD78091511A8823E1F3E2E04A
:104AC000F1E08081877F80830895CF93DF93C82FA3
:104AD0006333D1F5413071F0642F0E9430041F928E
:104AE00081E08F93CF930E943F040F900F900F901F
:104AF00081E072C00E943104D82F823061F018F436
:104B0000813031F010C0843049F0883051F00BC052
:104B10001092E01A08C01092E11A05C01092E21A31
:104B200002C01092E31AD0934E1A1F9283E38F9320
:104B3000CF930E943F046FE974E28D2F42DD0F9006
:104B40000F900F9081E048C0643309F044C04130B9
:104B5000A1F50E943104823061F018F4813031F007
:104B600011C0843049F0883051F00CC08091E01AB7
:104B700014C08091E11A11C08091E21A0EC0809198
:104B8000E31A0BC01F9283E08F93CF930E943F04E0
:104B90000F900F900F9081E01FC01F928F9381E0C4
:104BA0008F9384E38F93CF930E943F040F900F90D5
:104BB0000F900F900F9081E00FC0642F0E9430047F
:104BC0001F9281E08F93CF930E943F040F900F902C
:104BD0000F9081E001C080E0DF91CF910895CF93E5
:104BE000683459F5642FC82F41111AC054DFEFE41F
:104BF000FAE1918180811F929F931F928F9382E0AF
:104C00008F9388E48F93CF930E943F048DB79EB714
:104C100007960FB6F8949EBF0FBE8DBF81E00EC001
:104C20000E9430041F9281E08F93CF930E943F0433
:104C30000F900F900F9081E001C080E0CF91089518
:104C40001F93CF93DF936233A1F5642FC82F4111D7
:104C500023C080E10E94200AD82F80E20E94200A0F
:104C6000182F80E40E94200A110F24E0829FC001C7
:104C70001124212F282BD22B1F92DF9381E08F93B9
:104C800082E38F93CF930E943F040F900F900F9079
:104C90000F900F9081E00EC00E9430041F9281E0BF
:104CA0008F93CF930E943F040F900F900F9081E05D
:104CB00001C080E0DF91CF911F910895AF92BF9224
:104CC000DF92EF92FF920F931F93CF93DF93CDB7B5
:104CD000DEB71D85DE847E018FE0E80EF11CDD204D
:104CE00079F100E0113081F028F01230B9F0133082
:104CF000E9F026C0570192E0A90EB11CF7018081AE
:104D00000E94CB32750119C05701F2E0AF0EB11C01
:104D1000F70180810E946C3375010FC0F70180811B
:104D2000F2E0EF0EF11C0E94E43307C0F70180812E
:104D300092E0E90EF11C0E945C340F5FD012D2CFDA
:104D4000DF91CF911F910F91FF90EF90DF90BF9077
:104D5000AF900895FF920F931F93CF93DF93683125
:104D600009F06CC0142FD82F411157C0AFE4B9E13E
:104D70000D900020E9F71197AF54B941A430B10567
:104D800049F0A15BB64E85E0EFEEFDE001900D929B
:104D90008A95E1F7EFE4F9E101900020E9F7319716
:104DA000EF54F941FF93EF931F9288E18F9382E0D4
:104DB0008F93DF9383DF0F900F900F900F900F90E2
:104DC0000F90C0E00FE419E1FF24F3940FC0EC2F23
:104DD000F0E0E15BF64E80811F928F93FF92DF93AC
:104DE0006DDFCF5F0F900F900F900F90F801019043
:104DF0000020E9F73197EF54F9412C2F30E02E17BE
:104E00003F0729F785E0EFEEFDE0AFE4B9E101905F
:104E10000D928A95E1F781E012C088E10E94CB32C1
:104E200080E00E94CB32C0E08D2F0E9431040E94AE
:104E3000E433CF5F1C13F8CF81E001C080E0DF9145
:104E4000CF911F910F91FF900895EF92FF920F93D2
:104E50001F93CF93DF93C82F162FD42F673061F4A1
:104E6000642F0E9430041F921F92CF930E943F0430
:104E70000F900F900F900EC1623209F049C042307E
:104E8000F1F40E943104D82F8C2F0E9431042D2F71
:104E900030E0322F2227A901480F511DCA01E8D561
:104EA0009F938F9381E08F9382E28F93CF930E94A1
:104EB0003F040F900F900F900F900F90EBC0433076
:104EC000E9F40E943104D82F8C2F0E943104182F4E
:104ED0008C2F0E943104682F70E08D2F90E0982F66
:104EE0008827810F911DBCD51F9282E28F93CF93AB
:104EF0000E943F040F900F900F90CCC01F9283E050
:104F00008F93CF930E943F040F900F900F90C2C0D9
:104F1000693109F041C0413051F01F9283E08F9315
:104F2000CF930E943F040F900F900F90B3C00E9448
:104F30003104D82F813081F40F2EFCE2EF2EFF24B4
:104F4000F394F02D08EE28EE40E855E260E070E0C2
:104F500082E00E94B90311C0811105C082E090E097
:104F60000E941E040AC01F9283E08F93CF930E9479
:104F70003F040F900F900F908DC01F92DF9381E040
:104F80008F9389E18F93CF930E943F040F900F90EE
:104F90000F900F900F907EC0DDDE81117BC0183026
:104FA00029F468EE8C2F0E94300474C01731E9F4A4
:104FB0001F9287E18F93CF930E943F045FEF80E7BA
:104FC00092E0515080409040E1F700C0000098E02E
:104FD00088E10FB6F894A895809360000FBE909377
:104FE00060000F900F900F90FFCF4D2F612F8C2FEF
:104FF0006CDD81114FC04D2F612F8C2FF0DD8111A1
:1050000049C04D2F612F8C2F1BDE811143C04D2FC6
:10501000612F8C2F0E94E61381113CC04D2F612F10
:105020008C2F0E943C38811135C04D2F612F8C2F61
:105030000E944D1881112EC04D2F612F8C2F0E9480
:10504000D81F811127C04D2F612F8C2F0E94093648
:10505000811120C04D2F612F8C2F95D281111AC044
:105060004D2F612F8C2F0E940907811113C04D2FE6
:10507000612F8C2F0E94821081110CC06D2F8C2FFC
:105080000E9430041F921F92CF930E943F040F9002
:105090000F900F90DF91CF911F910F91FF90EF90A4
:1050A0000895CF93DF931F921F92CDB7DEB7198279
:1050B0001A828091D6008983BE016F5F7F4F8FE493
:1050C00099E10E94A73C0F900F90DF91CF91089536
:1050D000CF93DF9300D01F92CDB7DEB7CFDA85E054
:1050E000EFEEFDE0AFE4B9E101900D928A95E1F7B2
:1050F00060E87AE186E090E0C2D468E289E190E07D
:1051000076D785E297E20E9428050F2EFCE2EF2E6B
:10511000FF24F394F02D04E624E640E855E260E035
:1051200070E080E00E94B90324E640E855E260E0C8
:1051300070E082E00E94B90320E042E060E875E29E
:1051400080E090E00E947433E2EDF0E080818860BE
:105150008083E1EDF0E0808180688083FAD60E9450
:10516000601320E040E060E080E00E94CA130E94EB
:10517000BC360E94A3170E94790B37D0CE0101964E
:105180000E9489350E94C91B0E9453060E94F4099F
:1051900076DC66E970E089ED94E20E9419319FE0C7
:1051A00088E10FB6F894A895809360000FBE9093A5
:1051B0006000A895FECF1F926F931F927F931F925E
:1051C0008F931F929F931F9281E08F9385E08F931F
:1051D00086E38F930E9493048DB79EB70C960FB60B
:1051E000F8949EBF0FBE8DBF08950F931F93CF936A
:1051F000DF938091761A811166C081E08093761AE0
:1052000080E092E09093751A8093741A67E082E2CE
:1052100090E0BAD48091741A9091751A29D4809331
:10522000731AC3E5DAE100E010E08091741A9091FE
:10523000751A0196800F911F1BD490E0A0E0B0E09A
:10524000B82FAA279927882788839983AA83BB83A5
:105250008091741A9091751A0296800F911F08D44C
:10526000488159816A817B81682B488359836A838D
:105270007B838091741A9091751A0396800F911F09
:10528000F7D3488159816A817B81582B48835983A0
:105290006A837B838091741A9091751A0496800FAB
:1052A000911FE6D3488159816A817B81482B4993BC
:1052B0005993699379930C5F1F4F0032110509F0E0
:1052C000B4CFF3D501C080E0DF91CF911F910F9152
:1052D00008958091761A811105C084EF9DE00C94A9
:1052E000E932089580917F1A882331F080917F1AE6
:1052F0000E94933110927F1A08950F931F93CF93BA
:105300008C01C091761AC11105C089E29EE00E940D
:10531000E9320DC096D5811104C093D5C82F8823DA
:1053200031F0C801CFD5C1E0811101C0C0E08C2FA0
:10533000CF911F910F9108950F931F93CF93DF93F8
:1053400000D01F92CDB7DEB7CE010196D6DF8823FD
:10535000F9F069817A818B819C810091771A109193
:10536000781A2091791A30917A1A061717072807A8
:105370003907B1F06093771A7093781A8093791A8D
:1053800090937A1AE0917D1AF0917E1A199508C0CF
:105390001092771A1092781A1092791A10927A1A3B
:1053A00080917B1A90917C1A0F900F900F900F9024
:1053B000DF91CF911F910F9108958091761A8111FD
:1053C00005C08DE49EE00C94E93208951092731AA2
:1053D00060E08091741A9091751A42C308950F93FA
:1053E0001F938B019C019091731A992311F14091A5
:1053F000531A5091541A6091551A7091561A041705
:1054000015072607370769F40AC041915191619148
:105410007191401751076207730731F40BC080E0A8
:1054200009C0E7E5FAE180E08F5F8913EECF8FEFE7
:1054300001C08FEF1F910F910895CF92DF92EF92ED
:10544000FF92CF936B017C018091761A811106C087
:105450008AE79EE00E94E9328FEF6AC0C091731A1A
:10546000C83008F062C0C701B601B9DF88230CF06C
:105470005EC02C2F30E0220F331F220F331FF901A3
:10548000ED5AF54EC082D182E282F3826F2D7727EA
:10549000882799274091741A5091751A4F5F5F4F72
:1054A000CA01820F931FDCD2B70188279927209168
:1054B000731A4091741A5091751A4E5F5F4FCA016A
:1054C00034E0239F800D911D1124CAD299278F2D7E
:1054D0007E2D6D2D2091731A4091741A5091751A7A
:1054E0004D5F5F4FCA0134E0239F800D911D112451
:1054F000B7D22091731A8091741A9091751A0496FC
:105500006C2D34E0239F800D911D1124A9D2609150
:10551000731A6F5F6093731A8091741A9091751A61
:105520009FD28091731A815003C08FEF01C08FEF1B
:10553000CF91FF90EF90DF90CF9008959C019091D4
:10554000761A911105C084EA9EE00C94E932089520
:1055500070937E1A60937D1A30937C1A20937B1A85
:10556000B8DE60917B1A70917C1A8CE999E261D661
:1055700080937F1A80917F1A811104C08AED9EE08A
:105580000C94E9320895CF92DF92EF92FF920F933D
:105590001F93CF93DF9300D01F92CDB7DEB7082FB4
:1055A0001091761A111105C08BE19FE00E94E9323B
:1055B0005EC1673309F48EC030F4653359F0663349
:1055C00009F441C053C1683309F4AFC0693309F429
:1055D0000BC14CC1411129C0CE0101968EDE88233A
:1055E000C9F039812A819B818C811F923F931F9240
:1055F0002F931F929F931F928F9384E08F9385E345
:105600008F930F930E943F040FB6F894DEBF0FBE36
:10561000CDBF09C01F9285E38F930F930E943F0473
:105620000F900F900F9011E022C1642F0E94300460
:105630001F9281E08F930F930E943F040F900F9071
:105640000F9011E014C14230B9F50E943104E82EE8
:10565000802F0E9431048E29E82EF12C3ADEE114CD
:10566000F10471F486E30E94F4041F9286E08F93A4
:105670000F930E943F040F900F900F9011E0F7C01E
:1056800025D5BC01C7010E94F43A892B59F01F921D
:1056900083E08F930F930E943F040F900F900F9021
:1056A00011E0E5C066E3802F0E947E046BED78E296
:1056B000C70144DF11E0DBC0642F0E9430041F9259
:1056C00081E08F930F930E943F040F900F900F90F3
:1056D00011E0CDC04130D9F40E943104863A59F02E
:1056E0001F9283E08F930F930E943F040F900F90BF
:1056F0000F9011E0BCC061DE1F9287E38F930F9380
:105700000E943F040F900F900F9011E0B0C0642FE3
:105710000E9430041F9281E08F930F930E943F04F8
:105720000F900F900F9011E0A2C0453009F04EC0CD
:105730000E943104182F802F0E943104D82E802F10
:105740000E943104F82E802F0E943104E82E802F11
:105750000E943104282F163A59F01F9283E08F934C
:105760000F930E943F040F900F900F9011E07FC0A5
:105770008F2D90E0A0E0B0E0DC0199278827BD29BB
:10578000822BBC01CD017E2958DE8823A4F0282F6E
:10579000082E000C330B3F938F9381E08F9388E3A7
:1057A0008F930F930E943F040F900F900F900F90D4
:1057B0000F9011E05CC01F9282E08F930F930E94C4
:1057C0003F040F900F900F9011E051C0642F0E9482
:1057D00030041F9281E08F930F930E943F040F903B
:1057E0000F900F9011E043C0443091F50E943104B6
:1057F000C82ED12CE12CF12CFC2CEE24DD24CC2461
:10580000802F0E943104E82A802F0E943104182F33
:10581000802F0E943104A7019601282BDA01C901CB
:10582000BC01CD01712BDBDD282F082E000C330BC2
:105830003F938F9381E08F9389E38F930F930E941F
:105840003F040F900F900F900F900F9011E00FC03A
:10585000642F0E9430041F9281E08F930F930E9467
:105860003F040F900F900F9011E001C010E0812FC6
:105870000F900F900F900F90DF91CF911F910F918C
:10588000FF90EF90DF90CF900895CF93C091801A52
:10589000C11104C087E49FE09CD601C0C1E08C2FF9
:1058A000CF91089581E08093801A0895CF93DF937C
:1058B000C82FD62FEADF882329F1ECE7F0E08081BA
:1058C000282F2F7330E4C39FC0011124822B8083C3
:1058D000D83050F48081807ED82BD083EBE7F0E085
:1058E0008081877F80830EC0D03160F4ECE7F0E0E8
:1058F0008081807ED850D82BD083EBE7F0E0808188
:1059000088608083DF91CF910895CF93DF93EC017E
:10591000BCDF8823E9F0ECE7F0E0808180628083DF
:10592000EAE7F0E08FE880831092841A1092831ADD
:105930001092821A1092811AD093881AC093871AF3
:105940001092861A1092851A8081806480837894E0
:10595000DF91CF910895CF93DF93EC0196DF8823F9
:10596000E9F0ECE7F0E080818F7D8083EAE7F0E00A
:105970008FE880831092841A1092831A1092821AF0
:105980001092811A1092881A1092871AD093861A50
:10599000C093851A8081806480837894DF91CF9151
:1059A00008951F920F920FB60F9211240BB60F920B
:1059B0002F933F934F935F936F937F938F939F9317
:1059C000AF93BF93EF93FF93E091871AF091881AFA
:1059D000309721F080917900199501C080E0E09125
:1059E000851AF091861A309729F08091780090916D
:1059F00079001995E091831AF091841A309721F07B
:105A000080917900199519C0E091811AF091821A5C
:105A1000309731F0809178009091790019950DC000
:105A2000882331F0EAE7F0E080818064808305C05C
:105A3000EAE7F0E080818F778083FF91EF91BF915B
:105A4000AF919F918F917F916F915F914F913F9116
:105A50002F910F900BBE0F900FBE0F901F901895B7
:105A6000F999FECF92BD81BD60BDFA9AF99A089569
:105A7000F999FECF92BD81BDF89A80B508959B013A
:105A8000AC0181E08093891AECEBF0E080818B7FA0
:105A900080831092B90060E074E284EF90E00E948D
:105AA0001B3BDA01C9014097A109B109B695A79539
:105AB000979587958093B8002FEF80E792E021506B
:105AC00080409040E1F700C0000008951F93CF93FD
:105AD000DF93162FE091E51AF091E61A2081C1E0DC
